{
  "address": "0x464c84c41f3C25Ba5a75B006D8B20600A8777306",
  "abi": [
    {
      "inputs": [
        {
          "internalType": "contract IArbitrator",
          "name": "_arbitrator",
          "type": "address"
        },
        {
          "internalType": "bytes",
          "name": "_arbitratorExtraData",
          "type": "bytes"
        },
        {
          "internalType": "uint256",
          "name": "_reviewTimeout",
          "type": "uint256"
        },
        {
          "internalType": "uint256",
          "name": "_arbitrationCostMultiplier",
          "type": "uint256"
        },
        {
          "internalType": "uint256",
          "name": "_translationMultiplier",
          "type": "uint256"
        },
        {
          "internalType": "uint256",
          "name": "_challengeMultiplier",
          "type": "uint256"
        },
        {
          "internalType": "uint256",
          "name": "_sharedStakeMultiplier",
          "type": "uint256"
        },
        {
          "internalType": "uint256",
          "name": "_winnerStakeMultiplier",
          "type": "uint256"
        },
        {
          "internalType": "uint256",
          "name": "_loserStakeMultiplier",
          "type": "uint256"
        }
      ],
      "stateMutability": "nonpayable",
      "type": "constructor"
    },
    {
      "anonymous": false,
      "inputs": [
        {
          "indexed": true,
          "internalType": "uint256",
          "name": "_taskID",
          "type": "uint256"
        },
        {
          "indexed": false,
          "internalType": "enum Linguo.Party",
          "name": "_party",
          "type": "uint8"
        },
        {
          "indexed": true,
          "internalType": "address",
          "name": "_contributor",
          "type": "address"
        },
        {
          "indexed": false,
          "internalType": "uint256",
          "name": "_amount",
          "type": "uint256"
        }
      ],
      "name": "AppealContribution",
      "type": "event"
    },
    {
      "anonymous": false,
      "inputs": [
        {
          "indexed": true,
          "internalType": "contract IArbitrator",
          "name": "_arbitrator",
          "type": "address"
        },
        {
          "indexed": true,
          "internalType": "uint256",
          "name": "_disputeID",
          "type": "uint256"
        },
        {
          "indexed": false,
          "internalType": "uint256",
          "name": "_metaEvidenceID",
          "type": "uint256"
        },
        {
          "indexed": false,
          "internalType": "uint256",
          "name": "_evidenceGroupID",
          "type": "uint256"
        }
      ],
      "name": "Dispute",
      "type": "event"
    },
    {
      "anonymous": false,
      "inputs": [
        {
          "indexed": true,
          "internalType": "contract IArbitrator",
          "name": "_arbitrator",
          "type": "address"
        },
        {
          "indexed": true,
          "internalType": "uint256",
          "name": "_evidenceGroupID",
          "type": "uint256"
        },
        {
          "indexed": true,
          "internalType": "address",
          "name": "_party",
          "type": "address"
        },
        {
          "indexed": false,
          "internalType": "string",
          "name": "_evidence",
          "type": "string"
        }
      ],
      "name": "Evidence",
      "type": "event"
    },
    {
      "anonymous": false,
      "inputs": [
        {
          "indexed": true,
          "internalType": "uint256",
          "name": "_taskID",
          "type": "uint256"
        },
        {
          "indexed": false,
          "internalType": "enum Linguo.Party",
          "name": "_party",
          "type": "uint8"
        }
      ],
      "name": "HasPaidAppealFee",
      "type": "event"
    },
    {
      "anonymous": false,
      "inputs": [
        {
          "indexed": true,
          "internalType": "uint256",
          "name": "_metaEvidenceID",
          "type": "uint256"
        },
        {
          "indexed": false,
          "internalType": "string",
          "name": "_evidence",
          "type": "string"
        }
      ],
      "name": "MetaEvidence",
      "type": "event"
    },
    {
      "anonymous": false,
      "inputs": [
        {
          "indexed": true,
          "internalType": "contract IArbitrator",
          "name": "_arbitrator",
          "type": "address"
        },
        {
          "indexed": true,
          "internalType": "uint256",
          "name": "_disputeID",
          "type": "uint256"
        },
        {
          "indexed": false,
          "internalType": "uint256",
          "name": "_ruling",
          "type": "uint256"
        }
      ],
      "name": "Ruling",
      "type": "event"
    },
    {
      "anonymous": false,
      "inputs": [
        {
          "indexed": true,
          "internalType": "uint256",
          "name": "_taskID",
          "type": "uint256"
        },
        {
          "indexed": true,
          "internalType": "address",
          "name": "_translator",
          "type": "address"
        },
        {
          "indexed": false,
          "internalType": "uint256",
          "name": "_price",
          "type": "uint256"
        },
        {
          "indexed": false,
          "internalType": "uint256",
          "name": "_timestamp",
          "type": "uint256"
        }
      ],
      "name": "TaskAssigned",
      "type": "event"
    },
    {
      "anonymous": false,
      "inputs": [
        {
          "indexed": true,
          "internalType": "uint256",
          "name": "_taskID",
          "type": "uint256"
        },
        {
          "indexed": true,
          "internalType": "address",
          "name": "_requester",
          "type": "address"
        },
        {
          "indexed": false,
          "internalType": "uint256",
          "name": "_timestamp",
          "type": "uint256"
        }
      ],
      "name": "TaskCreated",
      "type": "event"
    },
    {
      "anonymous": false,
      "inputs": [
        {
          "indexed": true,
          "internalType": "uint256",
          "name": "_taskID",
          "type": "uint256"
        },
        {
          "indexed": false,
          "internalType": "string",
          "name": "_reason",
          "type": "string"
        },
        {
          "indexed": false,
          "internalType": "uint256",
          "name": "_timestamp",
          "type": "uint256"
        }
      ],
      "name": "TaskResolved",
      "type": "event"
    },
    {
      "anonymous": false,
      "inputs": [
        {
          "indexed": true,
          "internalType": "uint256",
          "name": "_taskID",
          "type": "uint256"
        },
        {
          "indexed": true,
          "internalType": "address",
          "name": "_challenger",
          "type": "address"
        },
        {
          "indexed": false,
          "internalType": "uint256",
          "name": "_timestamp",
          "type": "uint256"
        }
      ],
      "name": "TranslationChallenged",
      "type": "event"
    },
    {
      "anonymous": false,
      "inputs": [
        {
          "indexed": true,
          "internalType": "uint256",
          "name": "_taskID",
          "type": "uint256"
        },
        {
          "indexed": true,
          "internalType": "address",
          "name": "_translator",
          "type": "address"
        },
        {
          "indexed": false,
          "internalType": "string",
          "name": "_translatedText",
          "type": "string"
        },
        {
          "indexed": false,
          "internalType": "uint256",
          "name": "_timestamp",
          "type": "uint256"
        }
      ],
      "name": "TranslationSubmitted",
      "type": "event"
    },
    {
      "inputs": [],
      "name": "MULTIPLIER_DIVISOR",
      "outputs": [
        {
          "internalType": "uint256",
          "name": "",
          "type": "uint256"
        }
      ],
      "stateMutability": "view",
      "type": "function"
    },
    {
      "inputs": [],
      "name": "VERSION_ID",
      "outputs": [
        {
          "internalType": "uint8",
          "name": "",
          "type": "uint8"
        }
      ],
      "stateMutability": "view",
      "type": "function"
    },
    {
      "inputs": [
        {
          "internalType": "uint256",
          "name": "_taskID",
          "type": "uint256"
        }
      ],
      "name": "acceptTranslation",
      "outputs": [],
      "stateMutability": "nonpayable",
      "type": "function"
    },
    {
      "inputs": [
        {
          "internalType": "uint256",
          "name": "_taskID",
          "type": "uint256"
        },
        {
          "internalType": "address payable",
          "name": "_beneficiary",
          "type": "address"
        }
      ],
      "name": "amountWithdrawable",
      "outputs": [
        {
          "internalType": "uint256",
          "name": "total",
          "type": "uint256"
        }
      ],
      "stateMutability": "view",
      "type": "function"
    },
    {
      "inputs": [],
      "name": "arbitrationCostMultiplier",
      "outputs": [
        {
          "internalType": "uint256",
          "name": "",
          "type": "uint256"
        }
      ],
      "stateMutability": "view",
      "type": "function"
    },
    {
      "inputs": [],
      "name": "arbitrator",
      "outputs": [
        {
          "internalType": "contract IArbitrator",
          "name": "",
          "type": "address"
        }
      ],
      "stateMutability": "view",
      "type": "function"
    },
    {
      "inputs": [],
      "name": "arbitratorExtraData",
      "outputs": [
        {
          "internalType": "bytes",
          "name": "",
          "type": "bytes"
        }
      ],
      "stateMutability": "view",
      "type": "function"
    },
    {
      "inputs": [
        {
          "internalType": "uint256",
          "name": "_taskID",
          "type": "uint256"
        }
      ],
      "name": "assignTask",
      "outputs": [],
      "stateMutability": "payable",
      "type": "function"
    },
    {
      "inputs": [
        {
          "internalType": "address payable",
          "name": "_beneficiary",
          "type": "address"
        },
        {
          "internalType": "uint256",
          "name": "_taskID",
          "type": "uint256"
        },
        {
          "internalType": "uint256",
          "name": "_cursor",
          "type": "uint256"
        },
        {
          "internalType": "uint256",
          "name": "_count",
          "type": "uint256"
        }
      ],
      "name": "batchRoundWithdraw",
      "outputs": [],
      "stateMutability": "nonpayable",
      "type": "function"
    },
    {
      "inputs": [],
      "name": "challengeMultiplier",
      "outputs": [
        {
          "internalType": "uint256",
          "name": "",
          "type": "uint256"
        }
      ],
      "stateMutability": "view",
      "type": "function"
    },
    {
      "inputs": [
        {
          "internalType": "uint256",
          "name": "_taskID",
          "type": "uint256"
        },
        {
          "internalType": "string",
          "name": "_evidence",
          "type": "string"
        }
      ],
      "name": "challengeTranslation",
      "outputs": [],
      "stateMutability": "payable",
      "type": "function"
    },
    {
      "inputs": [
        {
          "internalType": "uint256",
          "name": "_arbitrationCostMultiplier",
          "type": "uint256"
        }
      ],
      "name": "changeArbitrationCostMultiplier",
      "outputs": [],
      "stateMutability": "nonpayable",
      "type": "function"
    },
    {
      "inputs": [
        {
          "internalType": "uint256",
          "name": "_challengeMultiplier",
          "type": "uint256"
        }
      ],
      "name": "changeChallengeMultiplier",
      "outputs": [],
      "stateMutability": "nonpayable",
      "type": "function"
    },
    {
      "inputs": [
        {
          "internalType": "address",
          "name": "_governor",
          "type": "address"
        }
      ],
      "name": "changeGovernor",
      "outputs": [],
      "stateMutability": "nonpayable",
      "type": "function"
    },
    {
      "inputs": [
        {
          "internalType": "uint256",
          "name": "_loserStakeMultiplier",
          "type": "uint256"
        }
      ],
      "name": "changeLoserStakeMultiplier",
      "outputs": [],
      "stateMutability": "nonpayable",
      "type": "function"
    },
    {
      "inputs": [
        {
          "internalType": "uint256",
          "name": "_reviewTimeout",
          "type": "uint256"
        }
      ],
      "name": "changeReviewTimeout",
      "outputs": [],
      "stateMutability": "nonpayable",
      "type": "function"
    },
    {
      "inputs": [
        {
          "internalType": "uint256",
          "name": "_sharedStakeMultiplier",
          "type": "uint256"
        }
      ],
      "name": "changeSharedStakeMultiplier",
      "outputs": [],
      "stateMutability": "nonpayable",
      "type": "function"
    },
    {
      "inputs": [
        {
          "internalType": "uint256",
          "name": "_translationMultiplier",
          "type": "uint256"
        }
      ],
      "name": "changeTranslationMultiplier",
      "outputs": [],
      "stateMutability": "nonpayable",
      "type": "function"
    },
    {
      "inputs": [
        {
          "internalType": "uint256",
          "name": "_winnerStakeMultiplier",
          "type": "uint256"
        }
      ],
      "name": "changeWinnerStakeMultiplier",
      "outputs": [],
      "stateMutability": "nonpayable",
      "type": "function"
    },
    {
      "inputs": [
        {
          "internalType": "uint256",
          "name": "_deadline",
          "type": "uint256"
        },
        {
          "internalType": "uint256",
          "name": "_minPrice",
          "type": "uint256"
        },
        {
          "internalType": "string",
          "name": "_metaEvidence",
          "type": "string"
        }
      ],
      "name": "createTask",
      "outputs": [
        {
          "internalType": "uint256",
          "name": "taskID",
          "type": "uint256"
        }
      ],
      "stateMutability": "payable",
      "type": "function"
    },
    {
      "inputs": [
        {
          "internalType": "uint256",
          "name": "",
          "type": "uint256"
        }
      ],
      "name": "disputeIDtoTaskID",
      "outputs": [
        {
          "internalType": "uint256",
          "name": "",
          "type": "uint256"
        }
      ],
      "stateMutability": "view",
      "type": "function"
    },
    {
      "inputs": [
        {
          "internalType": "uint256",
          "name": "_taskID",
          "type": "uint256"
        },
        {
          "internalType": "enum Linguo.Party",
          "name": "_side",
          "type": "uint8"
        }
      ],
      "name": "fundAppeal",
      "outputs": [],
      "stateMutability": "payable",
      "type": "function"
    },
    {
      "inputs": [
        {
          "internalType": "uint256",
          "name": "_taskID",
          "type": "uint256"
        }
      ],
      "name": "getChallengeValue",
      "outputs": [
        {
          "internalType": "uint256",
          "name": "deposit",
          "type": "uint256"
        }
      ],
      "stateMutability": "view",
      "type": "function"
    },
    {
      "inputs": [
        {
          "internalType": "uint256",
          "name": "_taskID",
          "type": "uint256"
        },
        {
          "internalType": "uint256",
          "name": "_round",
          "type": "uint256"
        },
        {
          "internalType": "address",
          "name": "_contributor",
          "type": "address"
        }
      ],
      "name": "getContributions",
      "outputs": [
        {
          "internalType": "uint256[3]",
          "name": "contributions",
          "type": "uint256[3]"
        }
      ],
      "stateMutability": "view",
      "type": "function"
    },
    {
      "inputs": [
        {
          "internalType": "uint256",
          "name": "_taskID",
          "type": "uint256"
        }
      ],
      "name": "getDepositValue",
      "outputs": [
        {
          "internalType": "uint256",
          "name": "deposit",
          "type": "uint256"
        }
      ],
      "stateMutability": "view",
      "type": "function"
    },
    {
      "inputs": [
        {
          "internalType": "uint256",
          "name": "_taskID",
          "type": "uint256"
        }
      ],
      "name": "getNumberOfRounds",
      "outputs": [
        {
          "internalType": "uint256",
          "name": "",
          "type": "uint256"
        }
      ],
      "stateMutability": "view",
      "type": "function"
    },
    {
      "inputs": [
        {
          "internalType": "uint256",
          "name": "_taskID",
          "type": "uint256"
        },
        {
          "internalType": "uint256",
          "name": "_round",
          "type": "uint256"
        }
      ],
      "name": "getRoundInfo",
      "outputs": [
        {
          "internalType": "uint256[3]",
          "name": "paidFees",
          "type": "uint256[3]"
        },
        {
          "internalType": "bool[3]",
          "name": "hasPaid",
          "type": "bool[3]"
        },
        {
          "internalType": "uint256",
          "name": "feeRewards",
          "type": "uint256"
        }
      ],
      "stateMutability": "view",
      "type": "function"
    },
    {
      "inputs": [],
      "name": "getTaskCount",
      "outputs": [
        {
          "internalType": "uint256",
          "name": "",
          "type": "uint256"
        }
      ],
      "stateMutability": "view",
      "type": "function"
    },
    {
      "inputs": [
        {
          "internalType": "uint256",
          "name": "_taskID",
          "type": "uint256"
        }
      ],
      "name": "getTaskParties",
      "outputs": [
        {
          "internalType": "address payable[3]",
          "name": "parties",
          "type": "address[3]"
        }
      ],
      "stateMutability": "view",
      "type": "function"
    },
    {
      "inputs": [
        {
          "internalType": "uint256",
          "name": "_taskID",
          "type": "uint256"
        }
      ],
      "name": "getTaskPrice",
      "outputs": [
        {
          "internalType": "uint256",
          "name": "price",
          "type": "uint256"
        }
      ],
      "stateMutability": "view",
      "type": "function"
    },
    {
      "inputs": [],
      "name": "governor",
      "outputs": [
        {
          "internalType": "address",
          "name": "",
          "type": "address"
        }
      ],
      "stateMutability": "view",
      "type": "function"
    },
    {
      "inputs": [],
      "name": "loserStakeMultiplier",
      "outputs": [
        {
          "internalType": "uint256",
          "name": "",
          "type": "uint256"
        }
      ],
      "stateMutability": "view",
      "type": "function"
    },
    {
      "inputs": [
        {
          "internalType": "uint256",
          "name": "_taskID",
          "type": "uint256"
        }
      ],
      "name": "reimburseRequester",
      "outputs": [],
      "stateMutability": "nonpayable",
      "type": "function"
    },
    {
      "inputs": [],
      "name": "reviewTimeout",
      "outputs": [
        {
          "internalType": "uint256",
          "name": "",
          "type": "uint256"
        }
      ],
      "stateMutability": "view",
      "type": "function"
    },
    {
      "inputs": [
        {
          "internalType": "uint256",
          "name": "_disputeID",
          "type": "uint256"
        },
        {
          "internalType": "uint256",
          "name": "_ruling",
          "type": "uint256"
        }
      ],
      "name": "rule",
      "outputs": [],
      "stateMutability": "nonpayable",
      "type": "function"
    },
    {
      "inputs": [],
      "name": "sharedStakeMultiplier",
      "outputs": [
        {
          "internalType": "uint256",
          "name": "",
          "type": "uint256"
        }
      ],
      "stateMutability": "view",
      "type": "function"
    },
    {
      "inputs": [
        {
          "internalType": "uint256",
          "name": "_taskID",
          "type": "uint256"
        },
        {
          "internalType": "string",
          "name": "_evidence",
          "type": "string"
        }
      ],
      "name": "submitEvidence",
      "outputs": [],
      "stateMutability": "nonpayable",
      "type": "function"
    },
    {
      "inputs": [
        {
          "internalType": "uint256",
          "name": "_taskID",
          "type": "uint256"
        },
        {
          "internalType": "string",
          "name": "_translation",
          "type": "string"
        }
      ],
      "name": "submitTranslation",
      "outputs": [],
      "stateMutability": "nonpayable",
      "type": "function"
    },
    {
      "inputs": [
        {
          "internalType": "uint256",
          "name": "",
          "type": "uint256"
        }
      ],
      "name": "tasks",
      "outputs": [
        {
          "internalType": "uint256",
          "name": "submissionTimeout",
          "type": "uint256"
        },
        {
          "internalType": "uint256",
          "name": "minPrice",
          "type": "uint256"
        },
        {
          "internalType": "uint256",
          "name": "maxPrice",
          "type": "uint256"
        },
        {
          "internalType": "enum Linguo.Status",
          "name": "status",
          "type": "uint8"
        },
        {
          "internalType": "uint256",
          "name": "lastInteraction",
          "type": "uint256"
        },
        {
          "internalType": "address payable",
          "name": "requester",
          "type": "address"
        },
        {
          "internalType": "uint256",
          "name": "requesterDeposit",
          "type": "uint256"
        },
        {
          "internalType": "uint256",
          "name": "sumDeposit",
          "type": "uint256"
        },
        {
          "internalType": "uint256",
          "name": "disputeID",
          "type": "uint256"
        },
        {
          "internalType": "uint256",
          "name": "ruling",
          "type": "uint256"
        }
      ],
      "stateMutability": "view",
      "type": "function"
    },
    {
      "inputs": [],
      "name": "translationMultiplier",
      "outputs": [
        {
          "internalType": "uint256",
          "name": "",
          "type": "uint256"
        }
      ],
      "stateMutability": "view",
      "type": "function"
    },
    {
      "inputs": [],
      "name": "winnerStakeMultiplier",
      "outputs": [
        {
          "internalType": "uint256",
          "name": "",
          "type": "uint256"
        }
      ],
      "stateMutability": "view",
      "type": "function"
    },
    {
      "inputs": [
        {
          "internalType": "address payable",
          "name": "_beneficiary",
          "type": "address"
        },
        {
          "internalType": "uint256",
          "name": "_taskID",
          "type": "uint256"
        },
        {
          "internalType": "uint256",
          "name": "_round",
          "type": "uint256"
        }
      ],
      "name": "withdrawFeesAndRewards",
      "outputs": [],
      "stateMutability": "nonpayable",
      "type": "function"
    }
  ],
  "transactionHash": "0xebe62cad0e29286e0393097e588a60730dc8704f430887eeb06373bf92a282d1",
  "args": [
    "0x9C1dA9A04925bDfDedf0f6421bC7EEa8305F9002",
    "0x00000000000000000000000000000000000000000000000000000000000000040000000000000000000000000000000000000000000000000000000000000001",
    "604800",
    "12500",
    "2500",
    "0",
    "5000",
    "5000",
    "10000"
  ],
  "linkedData": {
    "languagePair": "en|fr"
  },
  "solcInputHash": "519d0ebd29d5bce4f2d0b04ccbfab5e6",
  "bytecode": "0x60a0604052600080546001600160a01b031916331790553480156200002357600080fd5b5060405162003e7c38038062003e7c83398181016040526101208110156200004a57600080fd5b8151602083018051604051929492938301929190846401000000008211156200007257600080fd5b9083019060208201858111156200008857600080fd5b8251640100000000811182820188101715620000a357600080fd5b82525081516020918201929091019080838360005b83811015620000d2578181015183820152602001620000b8565b50505050905090810190601f168015620001005780820380516001836020036101000a031916815260200191505b5060409081526020828101519183015160608085015160808087015160a088015160c089015160e090990151948d901b6001600160601b0319169092528a519699509397509095929490936200015c916001918b019062000184565b5060029690965560039490945560049290925560055560065560075560085550620002309050565b828054600181600116156101000203166002900490600052602060002090601f016020900481019282620001bc576000855562000207565b82601f10620001d757805160ff191683800117855562000207565b8280016001018555821562000207579182015b8281111562000207578251825591602001919060010190620001ea565b506200021592915062000219565b5090565b5b808211156200021557600081556001016200021a565b60805160601c613be86200029460003980610f8252806110765280611161528061134a5280611665528061183b5280611a405280611cea5280611dd15280612437528061266d52806127b052806128615280612b9a5280612f655250613be86000f3fe6080604052600436106102515760003560e01c80637b94338311610139578063adc7faba116100b6578063c4e690df1161007a578063c4e690df14610ab7578063cc7b9d0614610acc578063d2dbe1d814610af7578063d661dd3114610b21578063e4c0aaf414610b36578063fc6f8f1614610b6957610251565b8063adc7faba146109af578063b5f3918b146109d9578063b857318514610a03578063c17a340e14610a20578063c36cd19614610a3557610251565b806392239dff116100fd57806392239dff1461088557806395c95522146108af578063a6a7f0eb146108d9578063a95c98051461095b578063aba4ab741461098557610251565b80637b9433831461065357806382b3501714610668578063881f7c57146106e25780638a9bb02a146107575780638d977672146107f257610251565b806320c58ca5116101d25780633b40249b116101965780633b40249b1461051f578063416583411461054957806368c76ffd1461055e5780636cc6cde1146105d55780636e8218aa146105ea5780636e99a23a1461061457610251565b806320c58ca514610456578063244772e81461046b578063311a6c5614610495578063339ac67c146104c55780633a2dabfa1461050a57610251565b806312b3a2c01161021957806312b3a2c0146103b257806312ce3525146103d85780631972483a146104025780631a5056b11461042c5780631d5120851461044157610251565b8063064ba1891461025657806309e24ad4146102925780630c340a24146102be5780630c7ac7b6146102ef5780631165542b14610379575b600080fd5b34801561026257600080fd5b506102806004803603602081101561027957600080fd5b5035610b93565b60408051918252519081900360200190f35b34801561029e57600080fd5b506102bc600480360360208110156102b557600080fd5b5035610ba5565b005b3480156102ca57600080fd5b506102d3610bf3565b604080516001600160a01b039092168252519081900360200190f35b3480156102fb57600080fd5b50610304610c02565b6040805160208082528351818301528351919283929083019185019080838360005b8381101561033e578181015183820152602001610326565b50505050905090810190601f16801561036b5780820380516001836020036101000a031916815260200191505b509250505060405180910390f35b34801561038557600080fd5b506102806004803603604081101561039c57600080fd5b50803590602001356001600160a01b0316610c8f565b6102bc600480360360408110156103c857600080fd5b508035906020013560ff16610e9f565b3480156103e457600080fd5b506102bc600480360360208110156103fb57600080fd5b5035611750565b34801561040e57600080fd5b506102806004803603602081101561042557600080fd5b503561179e565b34801561043857600080fd5b5061028061193d565b34801561044d57600080fd5b50610280611943565b34801561046257600080fd5b50610280611949565b34801561047757600080fd5b506102806004803603602081101561048e57600080fd5b503561194f565b3480156104a157600080fd5b506102bc600480360360408110156104b857600080fd5b50803590602001356119d6565b3480156104d157600080fd5b506102bc600480360360808110156104e857600080fd5b506001600160a01b038135169060208101359060408101359060600135611b99565b34801561051657600080fd5b50610280611bf2565b34801561052b57600080fd5b506102bc6004803603602081101561054257600080fd5b5035611bf8565b34801561055557600080fd5b50610280611c46565b34801561056a57600080fd5b5061059d6004803603606081101561058157600080fd5b50803590602081013590604001356001600160a01b0316611c4c565b6040518082606080838360005b838110156105c25781810151838201526020016105aa565b5050505090500191505060405180910390f35b3480156105e157600080fd5b506102d3611ce8565b3480156105f657600080fd5b506102806004803603602081101561060d57600080fd5b5035611d0c565b34801561062057600080fd5b506102bc6004803603606081101561063757600080fd5b506001600160a01b038135169060208101359060400135611ef1565b34801561065f57600080fd5b506102806121a6565b6102806004803603606081101561067e57600080fd5b813591602081013591810190606081016040820135600160201b8111156106a457600080fd5b8201836020820111156106b657600080fd5b803590602001918460018302840111600160201b831117156106d757600080fd5b5090925090506121ac565b6102bc600480360360408110156106f857600080fd5b81359190810190604081016020820135600160201b81111561071957600080fd5b82018360208201111561072b57600080fd5b803590602001918460018302840111600160201b8311171561074c57600080fd5b5090925090506123d9565b34801561076357600080fd5b506107876004803603604081101561077a57600080fd5b50803590602001356128f3565b6040518084606080838360005b838110156107ac578181015183820152602001610794565b5050505090500183600360200280838360005b838110156107d75781810151838201526020016107bf565b50505050905001828152602001935050505060405180910390f35b3480156107fe57600080fd5b5061081c6004803603602081101561081557600080fd5b50356129ee565b604051808b81526020018a815260200189815260200188600481111561083e57fe5b8152602001878152602001866001600160a01b031681526020018581526020018481526020018381526020018281526020019a505050505050505050505060405180910390f35b34801561089157600080fd5b506102bc600480360360208110156108a857600080fd5b5035612a60565b3480156108bb57600080fd5b5061059d600480360360208110156108d257600080fd5b5035612aae565b3480156108e557600080fd5b506102bc600480360360408110156108fc57600080fd5b81359190810190604081016020820135600160201b81111561091d57600080fd5b82018360208201111561092f57600080fd5b803590602001918460018302840111600160201b8311171561095057600080fd5b509092509050612b1a565b34801561096757600080fd5b506102bc6004803603602081101561097e57600080fd5b5035612c28565b34801561099157600080fd5b506102bc600480360360208110156109a857600080fd5b5035612c76565b3480156109bb57600080fd5b506102bc600480360360208110156109d257600080fd5b5035612de5565b3480156109e557600080fd5b506102bc600480360360208110156109fc57600080fd5b5035612e33565b6102bc60048036036020811015610a1957600080fd5b5035612e81565b348015610a2c57600080fd5b506102806131d2565b348015610a4157600080fd5b506102bc60048036036040811015610a5857600080fd5b81359190810190604081016020820135600160201b811115610a7957600080fd5b820183602082011115610a8b57600080fd5b803590602001918460018302840111600160201b83111715610aac57600080fd5b5090925090506131d8565b348015610ac357600080fd5b5061028061337d565b348015610ad857600080fd5b50610ae1613383565b6040805160ff9092168252519081900360200190f35b348015610b0357600080fd5b506102bc60048036036020811015610b1a57600080fd5b5035613388565b348015610b2d57600080fd5b5061028061350f565b348015610b4257600080fd5b506102bc60048036036020811015610b5957600080fd5b50356001600160a01b0316613515565b348015610b7557600080fd5b5061028060048036036020811015610b8c57600080fd5b5035613580565b600a6020526000908152604090205481565b6000546001600160a01b03163314610bee5760405162461bcd60e51b81526004018080602001828103825260298152602001806139856029913960400191505060405180910390fd5b600255565b6000546001600160a01b031681565b60018054604080516020600284861615610100026000190190941693909304601f81018490048402820184019092528181529291830182828015610c875780601f10610c5c57610100808354040283529160200191610c87565b820191906000526020600020905b815481529060010190602001808311610c6a57829003601f168201915b505050505081565b60008060098481548110610c9f57fe5b60009182526020909120600e9091020190506004600382015460ff166004811115610cc657fe5b14610cd15750610e99565b60005b600c820154811015610e9657600082600c018281548110610cf157fe5b60009182526020909120600360069092020190810154909150610100900460ff161580610d295750600381015462010000900460ff16155b15610d5e576001600160a01b038516600090815260058201602052604090206002810154600190910154019390930192610e8d565b600d830154610e1857600080826001015411610d7b576000610db7565b8160020154826001015460048401546001600160a01b038916600090815260058601602052604090209290910191600101540281610db557fe5b045b9050600080836002015411610dcd576000610e09565b8260020154836001015460048501546001600160a01b038a16600090815260058701602052604090209290910191600201540281610e0757fe5b045b91909101949094019350610e8d565b60008160000184600d015460038110610e2d57fe5b015411610e3b576000610e88565b600d830154819060038110610e4c57fe5b015460048201546001600160a01b03871660009081526005840160205260409020600d86015460038110610e7c57fe5b01540281610e8657fe5b045b840193505b50600101610cd4565b50505b92915050565b600060098381548110610eae57fe5b60009182526020909120600e9091020190506001826002811115610ece57fe5b1480610ee557506002826002811115610ee357fe5b145b610f205760405162461bcd60e51b8152600401808060200182810382526036815260200180613ae36036913960400191505060405180910390fd5b60038082015460ff166004811115610f3457fe5b14610f7e576040805162461bcd60e51b81526020600482015260156024820152742737903234b9b83aba32903a379030b83832b0b61760591b604482015290519081900360640190fd5b60017f00000000000000000000000000000000000000000000000000000000000000006001600160a01b03166310f169e883600b01546040518263ffffffff1660e01b81526004018082815260200191505060206040518083038186803b158015610fe857600080fd5b505afa158015610ffc573d6000803e3d6000fd5b505050506040513d602081101561101257600080fd5b5051600281111561101f57fe5b14611071576040805162461bcd60e51b815260206004820152601a60248201527f44697370757465206973206e6f742061707065616c61626c652e000000000000604482015290519081900360640190fd5b6000807f00000000000000000000000000000000000000000000000000000000000000006001600160a01b031663afe15cfb84600b01546040518263ffffffff1660e01b815260040180828152602001915050604080518083038186803b1580156110db57600080fd5b505afa1580156110ef573d6000803e3d6000fd5b505050506040513d604081101561110557600080fd5b508051602090910151909250905042821180159061112257508042105b61115d5760405162461bcd60e51b815260040180806020018281038252602e81526020018061383b602e913960400191505060405180910390fd5b60007f00000000000000000000000000000000000000000000000000000000000000006001600160a01b0316631c3db16d85600b01546040518263ffffffff1660e01b81526004018082815260200191505060206040518083038186803b1580156111c757600080fd5b505afa1580156111db573d6000803e3d6000fd5b505050506040513d60208110156111f157600080fd5b50519050600085600281111561120357fe5b821415611213575060075461126b565b81611221575060065461126b565b600284840304844203106112665760405162461bcd60e51b815260040180806020018281038252603e8152602001806138fa603e913960400191505060405180910390fd5b506008545b600c8501805460009190600019810190811061128357fe5b90600052602060002090600602019050806003018760028111156112a357fe5b600381106112ad57fe5b602081049091015460ff601f9092166101000a900416156112ff5760405162461bcd60e51b8152600401808060200182810382526021815260200180613a9d6021913960400191505060405180910390fd5b600b8601546040805163791f8b7360e11b8152600481018381526024820192835260018054600260001961010083851615020190911604604484018190526000956001600160a01b037f0000000000000000000000000000000000000000000000000000000000000000169563f23f16e695919492909160640190849080156113c95780601f1061139e576101008083540402835291602001916113c9565b820191906000526020600020905b8154815290600101906020018083116113ac57829003601f168201915b5050935050505060206040518083038186803b1580156113e857600080fd5b505afa1580156113fc573d6000803e3d6000fd5b505050506040513d602081101561141257600080fd5b50519050600061143861271061142884876135ab565b8161142f57fe5b849190046135df565b905060008061146934611464878e600281111561145157fe5b6003811061145b57fe5b015486906135f4565b61360f565b3360009081526005880160205260409020919350915082908c600281111561148d57fe5b6003811061149757fe5b018054909101905581858c60028111156114ad57fe5b600381106114b757fe5b018054909101905560405133908d907f22039e79a27860a038aece214124c8ecef12fdc1334feb8e8a157a0ae16a1db4908e908690808360028111156114f957fe5b81526020018281526020019250505060405180910390a382858c600281111561151e57fe5b6003811061152857fe5b0154106115d8576001856003018c600281111561154157fe5b6003811061154b57fe5b602091828204019190066101000a81548160ff021916908315150217905550846000018b600281111561157a57fe5b6003811061158457fe5b015460048601805490910190556040518c907f213276d821d6205d87fa4f4658db4bf5a24a2323b0fdd8ffcd239c445f86a57b908d90808260028111156115c757fe5b815260200191505060405180910390a25b604051339082156108fc029083906000818181858888f1505050506003860154610100900460ff16905080156116185750600385015462010000900460ff165b1561174257600b8a01546040805163093225f160e31b8152600481018381526024820192835260018054600260001961010083851615020190911604604484018190526001600160a01b037f000000000000000000000000000000000000000000000000000000000000000016956349912f88958b95919492909160640190849080156116e65780601f106116bb576101008083540402835291602001916116e6565b820191906000526020600020905b8154815290600101906020018083116116c957829003601f168201915b505093505050506000604051808303818588803b15801561170657600080fd5b505af115801561171a573d6000803e3d6000fd5b505050600c8c01805460010181556000525050600485015461173c90856135f4565b60048601555b505050505050505050505050565b6000546001600160a01b031633146117995760405162461bcd60e51b81526004018080602001828103825260298152602001806139856029913960400191505060405180910390fd5b600655565b600080600983815481106117ae57fe5b90600052602060002090600e020190506002548160040154420311806117e757506002600382015460ff1660048111156117e457fe5b14155b156117fb576001600160ff1b039150611937565b60405163f7434ea960e01b815260206004820190815260018054600260001961010083851615020190911604602484018190526000936001600160a01b037f0000000000000000000000000000000000000000000000000000000000000000169363f7434ea9939290918291604490910190849080156118bc5780601f10611891576101008083540402835291602001916118bc565b820191906000526020600020905b81548152906001019060200180831161189f57829003601f168201915b50509250505060206040518083038186803b1580156118da57600080fd5b505afa1580156118ee573d6000803e3d6000fd5b505050506040513d602081101561190457600080fd5b50516006830154600554919250611933916127109161192391906135ab565b8161192a57fe5b839190046135df565b9250505b50919050565b60035481565b60085481565b60055481565b6000806009838154811061195f57fe5b90600052602060002090600e02019050806000015481600401544203118061199a57506000600382015460ff16600481111561199757fe5b14155b156119a85760009150611937565b806000015481600401544203826001015483600201540302816119c757fe5b04816001015401915050919050565b60008160028111156119e457fe5b6000848152600a602052604081205460098054939450909283908110611a0657fe5b600091825260208220600c600e909202019081018054919350906000198101908110611a2e57fe5b906000526020600020906006020190507f00000000000000000000000000000000000000000000000000000000000000006001600160a01b0316336001600160a01b031614611aae5760405162461bcd60e51b81526004018080602001828103825260218152602001806138d96021913960400191505060405180910390fd5b60038083015460ff166004811115611ac257fe5b14611afe5760405162461bcd60e51b81526004018080602001828103825260268152602001806138696026913960400191505060405180910390fd5b600381015460ff61010090910416151560011415611b1f5760019350611b3c565b600381015462010000900460ff16151560011415611b3c57600293505b85337f394027a5fa6e098a1191094d1719d6929b9abc535fcc0c8f448d6a4e75622276866002811115611b6b57fe5b60408051918252519081900360200190a3611b9186856002811115611b8c57fe5b613634565b505050505050565b600060098481548110611ba857fe5b90600052602060002090600e0201905060008390505b600c82015481108015611bda5750821580611bda575082840181105b15611b9157611bea868683611ef1565b600101611bbe565b60045481565b6000546001600160a01b03163314611c415760405162461bcd60e51b81526004018080602001828103825260298152602001806139856029913960400191505060405180910390fd5b600355565b60065481565b611c5461381c565b600060098581548110611c6357fe5b90600052602060002090600e02019050600081600c018581548110611c8457fe5b600091825260208083206001600160a01b03881684526005600690930201918201905260409182902082516060810190935290925060038282826020028201915b815481526020019060010190808311611cc5575050505050925050509392505050565b7f000000000000000000000000000000000000000000000000000000000000000081565b60008060098381548110611d1c57fe5b90600052602060002090600e020190508060000154816004015442031180611d5757506000600382015460ff166004811115611d5457fe5b14155b15611d6b576001600160ff1b039150611937565b600081600001548260040154420383600101548460020154030281611d8c57fe5b60018481015460405163f7434ea960e01b81526020600482019081528354600281861615610100026000190190911604602483018190529590940490910194506000937f00000000000000000000000000000000000000000000000000000000000000006001600160a01b03169363f7434ea99392909182916044019084908015611e585780601f10611e2d57610100808354040283529160200191611e58565b820191906000526020600020905b815481529060010190602001808311611e3b57829003601f168201915b50509250505060206040518083038186803b158015611e7657600080fd5b505afa158015611e8a573d6000803e3d6000fd5b505050506040513d6020811015611ea057600080fd5b5051600454909150611ee89061271090611eba90856135ab565b81611ec157fe5b04612710611eda600354856135ab90919063ffffffff16565b81611ee157fe5b04906135df565b95945050505050565b600060098381548110611f0057fe5b90600052602060002090600e02019050600081600c018381548110611f2157fe5b6000918252602090912060069091020190506004600383015460ff166004811115611f4857fe5b14611f9a576040805162461bcd60e51b815260206004820152601c60248201527f546865207461736b2073686f756c64206265207265736f6c7665642e00000000604482015290519081900360640190fd5b6003810154600090610100900460ff161580611fc15750600382015462010000900460ff16155b15611ffb57506001600160a01b03851660009081526005820160205260408120600281018054600190920180549084905592905501612179565b600d8301546120d857600080836001015411612018576000612054565b8260020154836001015460048501546001600160a01b038a1660009081526005870160205260409020929091019160010154028161205257fe5b045b905060008084600201541161206a5760006120a6565b8360020154846001015460048601546001600160a01b038b166000908152600588016020526040902092909101916002015402816120a457fe5b045b6001600160a01b0389166000908152600586016020526040812060018101829055600201559190910191506121799050565b60008260000184600d0154600381106120ed57fe5b0154116120fb576000612148565b600d83015482906003811061210c57fe5b015460048301546001600160a01b03881660009081526005850160205260409020600d8601546003811061213c57fe5b0154028161214657fe5b045b6001600160a01b03871660009081526005840160205260408120600d86015492935090916003811061217657fe5b01555b6040516001600160a01b0387169082156108fc029083906000818181858888f15050505050505050505050565b60075481565b6000833410156121ed5760405162461bcd60e51b8152600401808060200182810382526041815260200180613b3f6041913960600191505060405180910390fd5b42851161222b5760405162461bcd60e51b8152600401808060200182810382526025815260200180613abe6025913960400191505060405180910390fd5b506009805460018101825560009190915242808603600e83027f6e1540171b6c0c960b71a7020d9f60077f6af931a8bbf590da0223dacf75c7af81019182557f6e1540171b6c0c960b71a7020d9f60077f6af931a8bbf590da0223dacf75c7b08101879055347f6e1540171b6c0c960b71a7020d9f60077f6af931a8bbf590da0223dacf75c7b182018190557f6e1540171b6c0c960b71a7020d9f60077f6af931a8bbf590da0223dacf75c7b38201939093557f6e1540171b6c0c960b71a7020d9f60077f6af931a8bbf590da0223dacf75c7b4810180546001600160a01b031916331790557f6e1540171b6c0c960b71a7020d9f60077f6af931a8bbf590da0223dacf75c7b50191909155604080516020808252810185905283917f61606860eb6c87306811e2695215385101daab53bd6ab4e9f9049aead9363c7d91879187919081908101848480828437600083820152604051601f909101601f19169092018290039550909350505050a2604080514281529051339184917f6cf53aa7292e664152c2ea948c3b3c95d4b05c36daeb2626d0293473c4a4a1539181900360200190a350949350505050565b6000600984815481106123e857fe5b6000918252602080832060405163f7434ea960e01b8152600481019283526001805460026000196101008385161502019091160460248301819052600e90950290920195506001600160a01b037f0000000000000000000000000000000000000000000000000000000000000000169363f7434ea993918291604490910190849080156124b65780601f1061248b576101008083540402835291602001916124b6565b820191906000526020600020905b81548152906001019060200180831161249957829003601f168201915b50509250505060206040518083038186803b1580156124d457600080fd5b505afa1580156124e8573d6000803e3d6000fd5b505050506040513d60208110156124fe57600080fd5b5051600683015460055491925060009161251f9161271091611428916135ab565b90506002600384015460ff16600481111561253657fe5b14612588576040805162461bcd60e51b815260206004820181905260248201527f546865207461736b20697320696e207468652077726f6e67207374617475732e604482015290519081900360640190fd5b6002548360040154420311156125cf5760405162461bcd60e51b8152600401808060200182810382526024815260200180613a796024913960400191505060405180910390fd5b8034101561260e5760405162461bcd60e51b815260040180806020018281038252602a81526020018061395b602a913960400191505060405180910390fd5b6003838101805460ff19169091179055600a830180546001600160a01b031916331790556040805163c13517e160e01b8152600260048201818152602483019384526001805460001981831615610100020116839004604485018190527f00000000000000000000000000000000000000000000000000000000000000006001600160a01b03169563c13517e19589959492606490910190849080156126f55780601f106126ca576101008083540402835291602001916126f5565b820191906000526020600020905b8154815290600101906020018083116126d857829003601f168201915b505093505050506020604051808303818588803b15801561271557600080fd5b505af1158015612729573d6000803e3d6000fd5b50505050506040513d602081101561274057600080fd5b5051600b84018190556000908152600a60205260408120879055600c8401805460010181559052600783015461278290839061277c90846135df565b906135f4565b60078401556040513482900390339082156108fc029083906000818181858888f193505050505083600b01547f00000000000000000000000000000000000000000000000000000000000000006001600160a01b03167f74baab670a4015ab2f1b467c5252a96141a2573f2908e58a92081e80d3cfde3d898a604051808381526020018281526020019250505060405180910390a3604080514281529051339189917f6f0bb1c54bb0ad8822894f45a3837ab62e23e77d25c5881ab57e1c6a99f7e0b59181900360200190a384156128ea57336001600160a01b0316877f00000000000000000000000000000000000000000000000000000000000000006001600160a01b03167fdccf2f8b2cc26eafcd61905cba744cff4b81d14740725f6376390dc6298a6a3c898960405180806020018281038252848482818152602001925080828437600083820152604051601f909101601f19169092018290039550909350505050a45b50505050505050565b6128fb61381c565b61290361381c565b6000806009868154811061291357fe5b90600052602060002090600e02019050600081600c01868154811061293457fe5b906000526020600020906006020190508060000181600301826004015482600380602002604051908101604052809291908260038015612989576020028201915b815481526020019060010190808311612975575b5050604080516060810191829052949750869350600392509050826000855b825461010083900a900460ff1615158152602060019283018181049485019490930390920291018084116129a85790505050505050915094509450945050509250925092565b600981815481106129fe57600080fd5b60009182526020909120600e9091020180546001820154600283015460038401546004850154600586015460068701546007880154600b890154600d909901549799509597949660ff9094169592946001600160a01b0390921693909291908a565b6000546001600160a01b03163314612aa95760405162461bcd60e51b81526004018080602001828103825260298152602001806139856029913960400191505060405180910390fd5b600855565b612ab661381c565b600060098381548110612ac557fe5b60009182526020909120604080516060810191829052600e9093029091019250600883019060039082845b81546001600160a01b03168152600190910190602001808311612af0575050505050915050919050565b600060098481548110612b2957fe5b60009182526020909120600e9091020190506004600382015460ff166004811115612b5057fe5b1415612b8d5760405162461bcd60e51b8152600401808060200182810382526026815260200180613b196026913960400191505060405180910390fd5b336001600160a01b0316847f00000000000000000000000000000000000000000000000000000000000000006001600160a01b03167fdccf2f8b2cc26eafcd61905cba744cff4b81d14740725f6376390dc6298a6a3c868660405180806020018281038252848482818152602001925080828437600083820152604051601f909101601f19169092018290039550909350505050a450505050565b6000546001600160a01b03163314612c715760405162461bcd60e51b81526004018080602001828103825260298152602001806139856029913960400191505060405180910390fd5b600455565b600060098281548110612c8557fe5b60009182526020909120600e9091020190506002600382015460ff166004811115612cac57fe5b10612ce85760405162461bcd60e51b815260040180806020018281038252602d815260200180613a4c602d913960400191505060405180910390fd5b80546004820154420311612d2d5760405162461bcd60e51b81526004018080602001828103825260328152602001806139ed6032913960400191505060405180910390fd5b60038101805460ff1916600417905560078101546006820154600583015460405191909201916001600160a01b0316906108fc8315029083906000818181858888f150506000600686018190556007860155505060408051426020820152818152601481830152731c995c5d595cdd195c8b5c995a5b589d5c9cd95960621b606082015290518592507f5850eca3b971056e7a311e04b06c359c0aceec8e422e4e015301e136efbd888a9181900360800190a2505050565b6000546001600160a01b03163314612e2e5760405162461bcd60e51b81526004018080602001828103825260298152602001806139856029913960400191505060405180910390fd5b600755565b6000546001600160a01b03163314612e7c5760405162461bcd60e51b81526004018080602001828103825260298152602001806139856029913960400191505060405180910390fd5b600555565b600060098281548110612e9057fe5b90600052602060002090600e020190508060000154816004015442031115612eff576040805162461bcd60e51b815260206004820181905260248201527f54686520646561646c696e652068617320616c7265616479207061737365642e604482015290519081900360640190fd5b600081600001548260040154420383600101548460020154030281612f2057fe5b60018481015460405163f7434ea960e01b81526020600482019081528354600281861615610100026000190190911604602483018190529590940490910194506000937f00000000000000000000000000000000000000000000000000000000000000006001600160a01b03169363f7434ea99392909182916044019084908015612fec5780601f10612fc157610100808354040283529160200191612fec565b820191906000526020600020905b815481529060010190602001808311612fcf57829003601f168201915b50509250505060206040518083038186803b15801561300a57600080fd5b505afa15801561301e573d6000803e3d6000fd5b505050506040513d602081101561303457600080fd5b5051600454909150600090613071906127109061305190866135ab565b8161305857fe5b04612710611eda600354866135ab90919063ffffffff16565b90506000600385015460ff16600481111561308857fe5b146130c45760405162461bcd60e51b815260040180806020018281038252602d815260200180613a1f602d913960400191505060405180910390fd5b803410156131035760405162461bcd60e51b8152600401808060200182810382526033815260200180613b806033913960400191505060405180910390fd5b6009840180546001600160a01b0319163317905560038401805460ff191660011790556002840154600585015460405191859003916001600160a01b0391909116906108fc8315029083906000818181858888f150505050600686018590555050600784018190556040513482900390339082156108fc029083906000818181858888f150506040805188815242602082015281513395508b94507f9c8de00bfaaca6ca425ca3047c87c81f398e79f7c15166f53dcb29782ef9da4293509081900390910190a3505050505050565b60095490565b6000600984815481106131e757fe5b60009182526020909120600e9091020190506001600382015460ff16600481111561320e57fe5b1461324a5760405162461bcd60e51b815260040180806020018281038252604a81526020018061388f604a913960600191505060405180910390fd5b80546004820154420311156132a6576040805162461bcd60e51b815260206004820181905260248201527f54686520646561646c696e652068617320616c7265616479207061737365642e604482015290519081900360640190fd5b60088101600101546001600160a01b031633146132f45760405162461bcd60e51b815260040180806020018281038252603f8152602001806139ae603f913960400191505060405180910390fd5b60038101805460ff1916600217905542600482018190556040805160208101839052818152908101849052339186917f81c1cc8daea412565717a44fb42a08dbcb5d73101f5473d062391293c947d26d9187918791908060608101858580828437600083820152604051601f909101601f1916909201829003965090945050505050a350505050565b60025481565b600081565b60006009828154811061339757fe5b60009182526020909120600e9091020190506002600382015460ff1660048111156133be57fe5b14613410576040805162461bcd60e51b815260206004820181905260248201527f546865207461736b20697320696e207468652077726f6e67207374617475732e604482015290519081900360640190fd5b60025481600401544203116134565760405162461bcd60e51b81526004018080602001828103825260238152602001806139386023913960400191505060405180910390fd5b60038101805460ff19166004179055600781015460068201540160088201600101546040516001600160a01b039091169082156108fc029083906000818181858888f150506000600686018190556007860155505060408051426020820152818152601481830152731d1c985b9cdb185d1a5bdb8b5858d8d95c1d195960621b606082015290518592507f5850eca3b971056e7a311e04b06c359c0aceec8e422e4e015301e136efbd888a9181900360800190a2505050565b61271081565b6000546001600160a01b0316331461355e5760405162461bcd60e51b81526004018080602001828103825260298152602001806139856029913960400191505060405180910390fd5b600080546001600160a01b0319166001600160a01b0392909216919091179055565b6000806009838154811061359057fe5b60009182526020909120600e90910201600c01549392505050565b6000826135ba57506000610e99565b828202828482816135c757fe5b04146135d5576000196135d7565b805b949350505050565b6000828201838110156135d5576000196135d7565b60008282111561360657506000610e99565b50808203610e99565b600080838311156136255750829050600061362d565b508190508083035b9250929050565b6000828152600a6020526040812054600980549192918390811061365457fe5b6000918252602082206003600e90920201908101805460ff19166004179055600d810185905591508361372f57600582015460068301546040516001600160a01b039092169181156108fc0291906000818181858888f193505050505060028260070154816136bf57fe5b60098401546040519290910492506001600160a01b0316906108fc8315029083906000818181858888f1505050600884019150600290505b6003811061370157fe5b01546040516001600160a01b039091169082156108fc029083906000818181858888f19350505050506137ad565b600184141561374f575060078101546006820154016008820160016136f7565b600582015460068301546040516001600160a01b039092169181156108fc0291906000818181858888f150505050600a83015460078401546040516001600160a01b03909216925080156108fc02916000818181858888f150505050505b600060068301819055600783015560408051426020820152818152600f818301526e191a5cdc1d5d194b5cd95d1d1b1959608a1b6060820152905184917f5850eca3b971056e7a311e04b06c359c0aceec8e422e4e015301e136efbd888a919081900360800190a25050505050565b6040518060600160405280600390602082028036833750919291505056fe46756e64696e67206d757374206265206d6164652077697468696e207468652061707065616c20706572696f642e54686520646973707574652068617320616c7265616479206265656e207265736f6c7665642e546865207461736b20697320656974686572206e6f742061737369676e6564206f72207472616e736c6174696f6e2068617320616c7265616479206265656e207375626d69747465642e4d7573742062652063616c6c6564206279207468652061726269747261746f722e546865206c6f736572206d7573742070617920647572696e67207468652066697273742068616c66206f66207468652061707065616c20706572696f642e54686520726576696577207068617365206861736e277420706173736564207965742e4e6f7420656e6f7567682045544820746f20636f766572206368616c6c656e6765206465706f7369742e4f6e6c7920676f7665726e6f7220697320616c6c6f77656420746f20706572666f726d20746869732e43616e2774207375626d6974207472616e736c6174696f6e20746f2061207461736b2074686174207761736e27742061737369676e656420746f20796f752e43616e2774207265696d62757273652069662074686520646561646c696e65206861736e277420706173736564207965742e5461736b2068617320616c7265616479206265656e2061737369676e6564206f72207265696d6275727365642e43616e2774207265696d6275727365206966207472616e736c6174696f6e20776173207375626d69747465642e546865207265766965772070686173652068617320616c7265616479207061737365642e41707065616c206665652068617320616c7265616479206265656e20706169642e54686520646561646c696e652073686f756c6420626520696e20746865206675747572652e526563697069656e74206d7573742062652065697468657220746865207472616e736c61746f72206f72206368616c6c656e6765722e546865207461736b206d757374206e6f7420616c7265616479206265207265736f6c7665642e4465706f73697465642076616c75652073686f756c642062652067726561746572207468616e206f7220657175616c20746f20746865206d696e2070726963652e4e6f7420656e6f7567682045544820746f20726561636820746865207265717569726564206465706f7369742076616c75652ea264697066735822122072c48903a79a358aceabee75519e6051ba7088cf20cb655fe6454d21371e14ba64736f6c63430007040033",
  "devdoc": {
    "details": "This contract trusts that the Arbitrator is honest and will not reenter or modify its costs during a call.  The arbitrator must support appeal periods.",
    "events": {
      "AppealContribution(uint256,uint8,address,uint256)": {
        "details": "To be emitted when someone contributes to the appeal process.",
        "params": {
          "_amount": "The amount contributed.",
          "_contributor": "The address of the contributor.",
          "_party": "The party which received the contribution.",
          "_taskID": "The ID of the respective task."
        }
      },
      "HasPaidAppealFee(uint256,uint8)": {
        "details": "To be emitted when the appeal fees of one of the parties are fully funded.",
        "params": {
          "_party": "The party that is fully funded.",
          "_taskID": "The ID of the respective task."
        }
      },
      "TaskAssigned(uint256,address,uint256,uint256)": {
        "details": "To be emitted when a translator assigns a task to himself.",
        "params": {
          "_price": "The task price at the moment it was assigned.",
          "_taskID": "The ID of the assigned task.",
          "_timestamp": "When the task was assigned.",
          "_translator": "The address that was assigned to the task."
        }
      },
      "TaskCreated(uint256,address,uint256)": {
        "details": "To be emitted when a new task is created.",
        "params": {
          "_requester": "The address that created the task.",
          "_taskID": "The ID of the newly created task.",
          "_timestamp": "When the task was created."
        }
      },
      "TaskResolved(uint256,string,uint256)": {
        "details": "To be emitted when a task is resolved, either by the translation being accepted, the requester being reimbursed or a dispute being settled.",
        "params": {
          "_reason": "Short description of what caused the task to be solved. One of: 'translation-accepted' | 'requester-reimbursed' | 'dispute-settled'",
          "_taskID": "The ID of the respective task.",
          "_timestamp": "When the task was resolved."
        }
      },
      "TranslationChallenged(uint256,address,uint256)": {
        "details": "To be emitted when a translation is challenged.",
        "params": {
          "_challenger": "The address of the challenger.",
          "_taskID": "The ID of the respective task.",
          "_timestamp": "When the task was challenged."
        }
      },
      "TranslationSubmitted(uint256,address,string,uint256)": {
        "details": "To be emitted when a translation is submitted.",
        "params": {
          "_taskID": "The ID of the respective task.",
          "_timestamp": "When the translation was submitted.",
          "_translatedText": "A URI to the translated text.",
          "_translator": "The address that performed the translation."
        }
      }
    },
    "kind": "dev",
    "methods": {
      "acceptTranslation(uint256)": {
        "details": "Pays the translator for completed task if no one challenged the translation during the review period.",
        "params": {
          "_taskID": "The ID of the task."
        }
      },
      "amountWithdrawable(uint256,address)": {
        "details": "Returns the sum of withdrawable wei from appeal rounds. This function is O(n), where n is the number of rounds of the task. This could exceed the gas limit, therefore this function should only be used for interface display and not by other contracts.",
        "params": {
          "_beneficiary": "The contributor for which to query.",
          "_taskID": "The ID of the associated task."
        },
        "returns": {
          "total": "The total amount of wei available to withdraw."
        }
      },
      "assignTask(uint256)": {
        "details": "Assigns a specific task to the sender. Requires a translator's deposit.  Note that the deposit should be a little higher than the required value because of the price increase during the time the transaction is mined. The surplus will be reimbursed.",
        "params": {
          "_taskID": "The ID of the task."
        }
      },
      "batchRoundWithdraw(address,uint256,uint256,uint256)": {
        "details": "Withdraws contributions of multiple appeal rounds at once. This function is O(n) where n is the number of rounds. This could exceed the gas limit, therefore this function should be used only as a utility and not be relied upon by other contracts.",
        "params": {
          "_beneficiary": "The address that made contributions.",
          "_count": "The number of rounds to iterate. If set to 0 or a value larger than the number of rounds, iterates until the last round.",
          "_cursor": "The round from where to start withdrawing.",
          "_taskID": "The ID of the associated task."
        }
      },
      "challengeTranslation(uint256,string)": {
        "details": "Challenges the translation of a specific task. Requires challenger's deposit.",
        "params": {
          "_evidence": "A link to evidence using its URI. Ignored if not provided.",
          "_taskID": "The ID of the task."
        }
      },
      "changeArbitrationCostMultiplier(uint256)": {
        "details": "Changes the multiplier for the arbitration cost part of the translators' deposit.",
        "params": {
          "_arbitrationCostMultiplier": "A new value of the multiplier for calculating translator's deposit. In basis points."
        }
      },
      "changeChallengeMultiplier(uint256)": {
        "details": "Changes the multiplier for challengers' deposit.",
        "params": {
          "_challengeMultiplier": "A new value of the multiplier for calculating challenger's deposit. In basis points."
        }
      },
      "changeGovernor(address)": {
        "details": "Changes the governor of this contract.",
        "params": {
          "_governor": "A new governor."
        }
      },
      "changeLoserStakeMultiplier(uint256)": {
        "details": "Changes the percentage of arbitration fees that must be paid as a fee stake by the party that lost the previous round.",
        "params": {
          "_loserStakeMultiplier": "A new value for the multiplier of the appeal cost that the party that lost the previous round has to pay. In basis points."
        }
      },
      "changeReviewTimeout(uint256)": {
        "details": "Changes the time allocated for the review phase.",
        "params": {
          "_reviewTimeout": "A new value of the time allotted for reviewing a translation. In seconds."
        }
      },
      "changeSharedStakeMultiplier(uint256)": {
        "details": "Changes the percentage of arbitration fees that must be paid by parties as a fee stake if there was no winner and loser in the previous round.",
        "params": {
          "_sharedStakeMultiplier": "A new value of the multiplier of the appeal cost in case where there was no winner/loser in previous round. In basis point."
        }
      },
      "changeTranslationMultiplier(uint256)": {
        "details": "Changes the multiplier for the task price part of translators' deposit.",
        "params": {
          "_translationMultiplier": "A new value of the multiplier for calculating translator's deposit. In basis points."
        }
      },
      "changeWinnerStakeMultiplier(uint256)": {
        "details": "Changes the percentage of arbitration fees that must be paid as a fee stake by the party that won the previous round.",
        "params": {
          "_winnerStakeMultiplier": "A new value of the multiplier of the appeal cost that the winner of the previous round has to pay. In basis points."
        }
      },
      "constructor": {
        "details": "Constructor.",
        "params": {
          "_arbitrator": "The arbitrator of the contract.",
          "_arbitratorExtraData": "Extra data for the arbitrator.",
          "_challengeMultiplier": "Multiplier for calculating challenger's deposit. In basis points.",
          "_loserStakeMultiplier": "Multiplier of the appeal cost that the loser has to pay for a round. In basis points.",
          "_reviewTimeout": "Time in seconds during which a translation can be challenged.",
          "_sharedStakeMultiplier": "Multiplier of the appeal cost that submitter must pay for a round when there is no winner/loser in the previous round. In basis points.",
          "_translationMultiplier": "Multiplier for calculating translator's deposit. In basis points.",
          "_winnerStakeMultiplier": "Multiplier of the appeal cost that the winner has to pay for a round. In basis points."
        }
      },
      "createTask(uint256,uint256,string)": {
        "details": "Creates a task based on provided details. Requires a value of maximum price to be deposited.",
        "params": {
          "_deadline": "The deadline for the translation to be completed.",
          "_metaEvidence": "A URI of a meta-evidence object for task submission.",
          "_minPrice": "A minimum price of the translation. In wei."
        },
        "returns": {
          "taskID": "The ID of the created task."
        }
      },
      "fundAppeal(uint256,uint8)": {
        "details": "Takes up to the total amount required to fund a side of an appeal. Reimburses the rest. Creates an appeal if all sides are fully funded.",
        "params": {
          "_side": "The party that pays the appeal fee.",
          "_taskID": "The ID of challenged task."
        }
      },
      "getChallengeValue(uint256)": {
        "details": "Gets the deposit required for challenging the translation.",
        "params": {
          "_taskID": "The ID of the task."
        },
        "returns": {
          "deposit": "The challengers's deposit."
        }
      },
      "getContributions(uint256,uint256,address)": {
        "details": "Gets the contributions made by a party for a given round of appeal of a task.",
        "params": {
          "_contributor": "The address of the contributor.",
          "_round": "The position of the round.",
          "_taskID": "The ID of the task."
        },
        "returns": {
          "contributions": "The contributions."
        }
      },
      "getDepositValue(uint256)": {
        "details": "Gets the deposit required for self-assigning the task.",
        "params": {
          "_taskID": "The ID of the task."
        },
        "returns": {
          "deposit": "The translator's deposit."
        }
      },
      "getNumberOfRounds(uint256)": {
        "details": "Gets the number of rounds of the specific task.",
        "params": {
          "_taskID": "The ID of the task."
        },
        "returns": {
          "_0": "The number of rounds."
        }
      },
      "getRoundInfo(uint256,uint256)": {
        "details": "Gets the information on a round of a task.",
        "params": {
          "_round": "The round to be queried.",
          "_taskID": "The ID of the task."
        },
        "returns": {
          "feeRewards": "The amount of fees that will be available as rewards for the winner.",
          "hasPaid": "Whether or not a given party has paid the full fees for the round.",
          "paidFees": "The amount paid by each party in the round."
        }
      },
      "getTaskCount()": {
        "details": "Gets the total number of created tasks.",
        "returns": {
          "_0": "The number of created tasks."
        }
      },
      "getTaskParties(uint256)": {
        "details": "Gets the addresses of parties of a specified task.",
        "params": {
          "_taskID": "The ID of the task."
        },
        "returns": {
          "parties": "The addresses of translator and challenger as [ZERO_ADDRESS, translator, challenger]."
        }
      },
      "getTaskPrice(uint256)": {
        "details": "Gets the current price of a specified task.",
        "params": {
          "_taskID": "The ID of the task."
        },
        "returns": {
          "price": "The price of the task."
        }
      },
      "reimburseRequester(uint256)": {
        "details": "Reimburses the requester if no one picked the task or the translator failed to submit the translation before deadline.",
        "params": {
          "_taskID": "The ID of the task."
        }
      },
      "rule(uint256,uint256)": {
        "details": "Gives the ruling for a dispute. Can only be called by the arbitrator.  The purpose of this function is to ensure that the address calling it has the right to rule on the contract and to invert the ruling in the case a party loses from lack of appeal fees funding.",
        "params": {
          "_disputeID": "ID of the dispute in the Arbitrator contract.",
          "_ruling": "Ruling given by the arbitrator. Note that 0 is reserved for \"Refuse to arbitrate\"."
        }
      },
      "submitEvidence(uint256,string)": {
        "details": "Submit a reference to evidence. EVENT.",
        "params": {
          "_evidence": "A link to evidence using its URI.",
          "_taskID": "The ID of the task."
        }
      },
      "submitTranslation(uint256,string)": {
        "details": "Submits translated text for a specific task.",
        "params": {
          "_taskID": "The ID of the task.",
          "_translation": "A URI to the translated text."
        }
      },
      "withdrawFeesAndRewards(address,uint256,uint256)": {
        "details": "Withdraws contributions of appeal rounds. Reimburses contributions if no disputes were raised. If a dispute was raised, sends the fee stake rewards and reimbursements proportional to the contributions made to the winner of a dispute.",
        "params": {
          "_beneficiary": "The address that made contributions.",
          "_round": "The round from which to withdraw.",
          "_taskID": "The ID of the associated task."
        }
      }
    },
    "title": "Linguo",
    "version": 1
  },
  "userdoc": {
    "kind": "user",
    "methods": {},
    "notice": "Linguo is a decentralized platform where anyone can submit a document for translation and have it translated by freelancers.  It has no platform fees and disputes about translation quality are handled by Kleros jurors.",
    "version": 1
  },
  "storageLayout": {
    "storage": [
      {
        "astId": 324,
        "contract": "contracts/0.7.x/Linguo.sol:Linguo",
        "label": "governor",
        "offset": 0,
        "slot": "0",
        "type": "t_address"
      },
      {
        "astId": 328,
        "contract": "contracts/0.7.x/Linguo.sol:Linguo",
        "label": "arbitratorExtraData",
        "offset": 0,
        "slot": "1",
        "type": "t_bytes_storage"
      },
      {
        "astId": 330,
        "contract": "contracts/0.7.x/Linguo.sol:Linguo",
        "label": "reviewTimeout",
        "offset": 0,
        "slot": "2",
        "type": "t_uint256"
      },
      {
        "astId": 332,
        "contract": "contracts/0.7.x/Linguo.sol:Linguo",
        "label": "arbitrationCostMultiplier",
        "offset": 0,
        "slot": "3",
        "type": "t_uint256"
      },
      {
        "astId": 334,
        "contract": "contracts/0.7.x/Linguo.sol:Linguo",
        "label": "translationMultiplier",
        "offset": 0,
        "slot": "4",
        "type": "t_uint256"
      },
      {
        "astId": 336,
        "contract": "contracts/0.7.x/Linguo.sol:Linguo",
        "label": "challengeMultiplier",
        "offset": 0,
        "slot": "5",
        "type": "t_uint256"
      },
      {
        "astId": 338,
        "contract": "contracts/0.7.x/Linguo.sol:Linguo",
        "label": "sharedStakeMultiplier",
        "offset": 0,
        "slot": "6",
        "type": "t_uint256"
      },
      {
        "astId": 340,
        "contract": "contracts/0.7.x/Linguo.sol:Linguo",
        "label": "winnerStakeMultiplier",
        "offset": 0,
        "slot": "7",
        "type": "t_uint256"
      },
      {
        "astId": 342,
        "contract": "contracts/0.7.x/Linguo.sol:Linguo",
        "label": "loserStakeMultiplier",
        "offset": 0,
        "slot": "8",
        "type": "t_uint256"
      },
      {
        "astId": 345,
        "contract": "contracts/0.7.x/Linguo.sol:Linguo",
        "label": "tasks",
        "offset": 0,
        "slot": "9",
        "type": "t_array(t_struct(Task)303_storage)dyn_storage"
      },
      {
        "astId": 349,
        "contract": "contracts/0.7.x/Linguo.sol:Linguo",
        "label": "disputeIDtoTaskID",
        "offset": 0,
        "slot": "10",
        "type": "t_mapping(t_uint256,t_uint256)"
      }
    ],
    "types": {
      "t_address": {
        "encoding": "inplace",
        "label": "address",
        "numberOfBytes": "20"
      },
      "t_address_payable": {
        "encoding": "inplace",
        "label": "address payable",
        "numberOfBytes": "20"
      },
      "t_array(t_address_payable)3_storage": {
        "base": "t_address_payable",
        "encoding": "inplace",
        "label": "address payable[3]",
        "numberOfBytes": "96"
      },
      "t_array(t_bool)3_storage": {
        "base": "t_bool",
        "encoding": "inplace",
        "label": "bool[3]",
        "numberOfBytes": "32"
      },
      "t_array(t_struct(Round)320_storage)dyn_storage": {
        "base": "t_struct(Round)320_storage",
        "encoding": "dynamic_array",
        "label": "struct Linguo.Round[]",
        "numberOfBytes": "32"
      },
      "t_array(t_struct(Task)303_storage)dyn_storage": {
        "base": "t_struct(Task)303_storage",
        "encoding": "dynamic_array",
        "label": "struct Linguo.Task[]",
        "numberOfBytes": "32"
      },
      "t_array(t_uint256)3_storage": {
        "base": "t_uint256",
        "encoding": "inplace",
        "label": "uint256[3]",
        "numberOfBytes": "96"
      },
      "t_bool": {
        "encoding": "inplace",
        "label": "bool",
        "numberOfBytes": "1"
      },
      "t_bytes_storage": {
        "encoding": "bytes",
        "label": "bytes",
        "numberOfBytes": "32"
      },
      "t_enum(Status)271": {
        "encoding": "inplace",
        "label": "enum Linguo.Status",
        "numberOfBytes": "1"
      },
      "t_mapping(t_address,t_array(t_uint256)3_storage)": {
        "encoding": "mapping",
        "key": "t_address",
        "label": "mapping(address => uint256[3])",
        "numberOfBytes": "32",
        "value": "t_array(t_uint256)3_storage"
      },
      "t_mapping(t_uint256,t_uint256)": {
        "encoding": "mapping",
        "key": "t_uint256",
        "label": "mapping(uint256 => uint256)",
        "numberOfBytes": "32",
        "value": "t_uint256"
      },
      "t_struct(Round)320_storage": {
        "encoding": "inplace",
        "label": "struct Linguo.Round",
        "members": [
          {
            "astId": 307,
            "contract": "contracts/0.7.x/Linguo.sol:Linguo",
            "label": "paidFees",
            "offset": 0,
            "slot": "0",
            "type": "t_array(t_uint256)3_storage"
          },
          {
            "astId": 311,
            "contract": "contracts/0.7.x/Linguo.sol:Linguo",
            "label": "hasPaid",
            "offset": 0,
            "slot": "3",
            "type": "t_array(t_bool)3_storage"
          },
          {
            "astId": 313,
            "contract": "contracts/0.7.x/Linguo.sol:Linguo",
            "label": "feeRewards",
            "offset": 0,
            "slot": "4",
            "type": "t_uint256"
          },
          {
            "astId": 319,
            "contract": "contracts/0.7.x/Linguo.sol:Linguo",
            "label": "contributions",
            "offset": 0,
            "slot": "5",
            "type": "t_mapping(t_address,t_array(t_uint256)3_storage)"
          }
        ],
        "numberOfBytes": "192"
      },
      "t_struct(Task)303_storage": {
        "encoding": "inplace",
        "label": "struct Linguo.Task",
        "members": [
          {
            "astId": 277,
            "contract": "contracts/0.7.x/Linguo.sol:Linguo",
            "label": "submissionTimeout",
            "offset": 0,
            "slot": "0",
            "type": "t_uint256"
          },
          {
            "astId": 279,
            "contract": "contracts/0.7.x/Linguo.sol:Linguo",
            "label": "minPrice",
            "offset": 0,
            "slot": "1",
            "type": "t_uint256"
          },
          {
            "astId": 281,
            "contract": "contracts/0.7.x/Linguo.sol:Linguo",
            "label": "maxPrice",
            "offset": 0,
            "slot": "2",
            "type": "t_uint256"
          },
          {
            "astId": 283,
            "contract": "contracts/0.7.x/Linguo.sol:Linguo",
            "label": "status",
            "offset": 0,
            "slot": "3",
            "type": "t_enum(Status)271"
          },
          {
            "astId": 285,
            "contract": "contracts/0.7.x/Linguo.sol:Linguo",
            "label": "lastInteraction",
            "offset": 0,
            "slot": "4",
            "type": "t_uint256"
          },
          {
            "astId": 287,
            "contract": "contracts/0.7.x/Linguo.sol:Linguo",
            "label": "requester",
            "offset": 0,
            "slot": "5",
            "type": "t_address_payable"
          },
          {
            "astId": 289,
            "contract": "contracts/0.7.x/Linguo.sol:Linguo",
            "label": "requesterDeposit",
            "offset": 0,
            "slot": "6",
            "type": "t_uint256"
          },
          {
            "astId": 291,
            "contract": "contracts/0.7.x/Linguo.sol:Linguo",
            "label": "sumDeposit",
            "offset": 0,
            "slot": "7",
            "type": "t_uint256"
          },
          {
            "astId": 295,
            "contract": "contracts/0.7.x/Linguo.sol:Linguo",
            "label": "parties",
            "offset": 0,
            "slot": "8",
            "type": "t_array(t_address_payable)3_storage"
          },
          {
            "astId": 297,
            "contract": "contracts/0.7.x/Linguo.sol:Linguo",
            "label": "disputeID",
            "offset": 0,
            "slot": "11",
            "type": "t_uint256"
          },
          {
            "astId": 300,
            "contract": "contracts/0.7.x/Linguo.sol:Linguo",
            "label": "rounds",
            "offset": 0,
            "slot": "12",
            "type": "t_array(t_struct(Round)320_storage)dyn_storage"
          },
          {
            "astId": 302,
            "contract": "contracts/0.7.x/Linguo.sol:Linguo",
            "label": "ruling",
            "offset": 0,
            "slot": "13",
            "type": "t_uint256"
          }
        ],
        "numberOfBytes": "448"
      },
      "t_uint256": {
        "encoding": "inplace",
        "label": "uint256",
        "numberOfBytes": "32"
      }
    }
  }
}