{
  "address": "0x42345aBc644a9fA233EBcfe92C5c2b94Eb2fA9e5",
  "abi": [
    {
      "inputs": [
        {
          "internalType": "contract IArbitrator",
          "name": "_arbitrator",
          "type": "address"
        },
        {
          "internalType": "bytes",
          "name": "_arbitratorExtraData",
          "type": "bytes"
        },
        {
          "internalType": "contract IERC20",
          "name": "_WETH",
          "type": "address"
        },
        {
          "internalType": "address",
          "name": "_uniswapFactory",
          "type": "address"
        },
        {
          "internalType": "uint256",
          "name": "_reviewTimeout",
          "type": "uint256"
        },
        {
          "internalType": "uint256",
          "name": "_translationMultiplier",
          "type": "uint256"
        },
        {
          "internalType": "uint256",
          "name": "_sharedStakeMultiplier",
          "type": "uint256"
        },
        {
          "internalType": "uint256",
          "name": "_winnerStakeMultiplier",
          "type": "uint256"
        },
        {
          "internalType": "uint256",
          "name": "_loserStakeMultiplier",
          "type": "uint256"
        }
      ],
      "stateMutability": "nonpayable",
      "type": "constructor"
    },
    {
      "anonymous": false,
      "inputs": [
        {
          "indexed": true,
          "internalType": "uint256",
          "name": "_taskID",
          "type": "uint256"
        },
        {
          "indexed": false,
          "internalType": "enum LinguoToken.Party",
          "name": "_party",
          "type": "uint8"
        },
        {
          "indexed": true,
          "internalType": "address",
          "name": "_contributor",
          "type": "address"
        },
        {
          "indexed": false,
          "internalType": "uint256",
          "name": "_amount",
          "type": "uint256"
        }
      ],
      "name": "AppealContribution",
      "type": "event"
    },
    {
      "anonymous": false,
      "inputs": [
        {
          "indexed": true,
          "internalType": "contract IArbitrator",
          "name": "_arbitrator",
          "type": "address"
        },
        {
          "indexed": true,
          "internalType": "uint256",
          "name": "_disputeID",
          "type": "uint256"
        },
        {
          "indexed": false,
          "internalType": "uint256",
          "name": "_metaEvidenceID",
          "type": "uint256"
        },
        {
          "indexed": false,
          "internalType": "uint256",
          "name": "_evidenceGroupID",
          "type": "uint256"
        }
      ],
      "name": "Dispute",
      "type": "event"
    },
    {
      "anonymous": false,
      "inputs": [
        {
          "indexed": true,
          "internalType": "contract IArbitrator",
          "name": "_arbitrator",
          "type": "address"
        },
        {
          "indexed": true,
          "internalType": "uint256",
          "name": "_evidenceGroupID",
          "type": "uint256"
        },
        {
          "indexed": true,
          "internalType": "address",
          "name": "_party",
          "type": "address"
        },
        {
          "indexed": false,
          "internalType": "string",
          "name": "_evidence",
          "type": "string"
        }
      ],
      "name": "Evidence",
      "type": "event"
    },
    {
      "anonymous": false,
      "inputs": [
        {
          "indexed": true,
          "internalType": "uint256",
          "name": "_taskID",
          "type": "uint256"
        },
        {
          "indexed": false,
          "internalType": "enum LinguoToken.Party",
          "name": "_party",
          "type": "uint8"
        }
      ],
      "name": "HasPaidAppealFee",
      "type": "event"
    },
    {
      "anonymous": false,
      "inputs": [
        {
          "indexed": true,
          "internalType": "uint256",
          "name": "_metaEvidenceID",
          "type": "uint256"
        },
        {
          "indexed": false,
          "internalType": "string",
          "name": "_evidence",
          "type": "string"
        }
      ],
      "name": "MetaEvidence",
      "type": "event"
    },
    {
      "anonymous": false,
      "inputs": [
        {
          "indexed": true,
          "internalType": "contract IArbitrator",
          "name": "_arbitrator",
          "type": "address"
        },
        {
          "indexed": true,
          "internalType": "uint256",
          "name": "_disputeID",
          "type": "uint256"
        },
        {
          "indexed": false,
          "internalType": "uint256",
          "name": "_ruling",
          "type": "uint256"
        }
      ],
      "name": "Ruling",
      "type": "event"
    },
    {
      "anonymous": false,
      "inputs": [
        {
          "indexed": true,
          "internalType": "uint256",
          "name": "_taskID",
          "type": "uint256"
        },
        {
          "indexed": true,
          "internalType": "address",
          "name": "_translator",
          "type": "address"
        },
        {
          "indexed": false,
          "internalType": "uint256",
          "name": "_price",
          "type": "uint256"
        },
        {
          "indexed": false,
          "internalType": "uint256",
          "name": "_timestamp",
          "type": "uint256"
        }
      ],
      "name": "TaskAssigned",
      "type": "event"
    },
    {
      "anonymous": false,
      "inputs": [
        {
          "indexed": true,
          "internalType": "uint256",
          "name": "_taskID",
          "type": "uint256"
        },
        {
          "indexed": true,
          "internalType": "address",
          "name": "_requester",
          "type": "address"
        },
        {
          "indexed": false,
          "internalType": "contract IERC20",
          "name": "_token",
          "type": "address"
        },
        {
          "indexed": false,
          "internalType": "uint256",
          "name": "_timestamp",
          "type": "uint256"
        }
      ],
      "name": "TaskCreated",
      "type": "event"
    },
    {
      "anonymous": false,
      "inputs": [
        {
          "indexed": true,
          "internalType": "uint256",
          "name": "_taskID",
          "type": "uint256"
        },
        {
          "indexed": false,
          "internalType": "string",
          "name": "_reason",
          "type": "string"
        },
        {
          "indexed": false,
          "internalType": "uint256",
          "name": "_timestamp",
          "type": "uint256"
        }
      ],
      "name": "TaskResolved",
      "type": "event"
    },
    {
      "anonymous": false,
      "inputs": [
        {
          "indexed": true,
          "internalType": "uint256",
          "name": "_taskID",
          "type": "uint256"
        },
        {
          "indexed": true,
          "internalType": "address",
          "name": "_challenger",
          "type": "address"
        },
        {
          "indexed": false,
          "internalType": "uint256",
          "name": "_timestamp",
          "type": "uint256"
        }
      ],
      "name": "TranslationChallenged",
      "type": "event"
    },
    {
      "anonymous": false,
      "inputs": [
        {
          "indexed": true,
          "internalType": "uint256",
          "name": "_taskID",
          "type": "uint256"
        },
        {
          "indexed": true,
          "internalType": "address",
          "name": "_translator",
          "type": "address"
        },
        {
          "indexed": false,
          "internalType": "string",
          "name": "_translatedText",
          "type": "string"
        },
        {
          "indexed": false,
          "internalType": "uint256",
          "name": "_timestamp",
          "type": "uint256"
        }
      ],
      "name": "TranslationSubmitted",
      "type": "event"
    },
    {
      "inputs": [],
      "name": "MULTIPLIER_DIVISOR",
      "outputs": [
        {
          "internalType": "uint256",
          "name": "",
          "type": "uint256"
        }
      ],
      "stateMutability": "view",
      "type": "function"
    },
    {
      "inputs": [],
      "name": "VERSION_ID",
      "outputs": [
        {
          "internalType": "uint8",
          "name": "",
          "type": "uint8"
        }
      ],
      "stateMutability": "view",
      "type": "function"
    },
    {
      "inputs": [],
      "name": "WETH",
      "outputs": [
        {
          "internalType": "contract IERC20",
          "name": "",
          "type": "address"
        }
      ],
      "stateMutability": "view",
      "type": "function"
    },
    {
      "inputs": [
        {
          "internalType": "uint256",
          "name": "_taskID",
          "type": "uint256"
        }
      ],
      "name": "acceptTranslation",
      "outputs": [],
      "stateMutability": "nonpayable",
      "type": "function"
    },
    {
      "inputs": [
        {
          "internalType": "uint256",
          "name": "_taskID",
          "type": "uint256"
        },
        {
          "internalType": "address",
          "name": "_beneficiary",
          "type": "address"
        }
      ],
      "name": "amountWithdrawable",
      "outputs": [
        {
          "internalType": "uint256",
          "name": "total",
          "type": "uint256"
        }
      ],
      "stateMutability": "view",
      "type": "function"
    },
    {
      "inputs": [],
      "name": "arbitrator",
      "outputs": [
        {
          "internalType": "contract IArbitrator",
          "name": "",
          "type": "address"
        }
      ],
      "stateMutability": "view",
      "type": "function"
    },
    {
      "inputs": [],
      "name": "arbitratorExtraData",
      "outputs": [
        {
          "internalType": "bytes",
          "name": "",
          "type": "bytes"
        }
      ],
      "stateMutability": "view",
      "type": "function"
    },
    {
      "inputs": [
        {
          "internalType": "uint256",
          "name": "_taskID",
          "type": "uint256"
        }
      ],
      "name": "assignTask",
      "outputs": [],
      "stateMutability": "payable",
      "type": "function"
    },
    {
      "inputs": [
        {
          "internalType": "address payable",
          "name": "_beneficiary",
          "type": "address"
        },
        {
          "internalType": "uint256",
          "name": "_taskID",
          "type": "uint256"
        },
        {
          "internalType": "uint256",
          "name": "_cursor",
          "type": "uint256"
        },
        {
          "internalType": "uint256",
          "name": "_count",
          "type": "uint256"
        }
      ],
      "name": "batchRoundWithdraw",
      "outputs": [],
      "stateMutability": "nonpayable",
      "type": "function"
    },
    {
      "inputs": [
        {
          "internalType": "uint256",
          "name": "_taskID",
          "type": "uint256"
        },
        {
          "internalType": "string",
          "name": "_evidence",
          "type": "string"
        }
      ],
      "name": "challengeTranslation",
      "outputs": [],
      "stateMutability": "payable",
      "type": "function"
    },
    {
      "inputs": [
        {
          "internalType": "address",
          "name": "_governor",
          "type": "address"
        }
      ],
      "name": "changeGovernor",
      "outputs": [],
      "stateMutability": "nonpayable",
      "type": "function"
    },
    {
      "inputs": [
        {
          "internalType": "uint256",
          "name": "_loserStakeMultiplier",
          "type": "uint256"
        }
      ],
      "name": "changeLoserStakeMultiplier",
      "outputs": [],
      "stateMutability": "nonpayable",
      "type": "function"
    },
    {
      "inputs": [
        {
          "internalType": "uint256",
          "name": "_reviewTimeout",
          "type": "uint256"
        }
      ],
      "name": "changeReviewTimeout",
      "outputs": [],
      "stateMutability": "nonpayable",
      "type": "function"
    },
    {
      "inputs": [
        {
          "internalType": "uint256",
          "name": "_sharedStakeMultiplier",
          "type": "uint256"
        }
      ],
      "name": "changeSharedStakeMultiplier",
      "outputs": [],
      "stateMutability": "nonpayable",
      "type": "function"
    },
    {
      "inputs": [
        {
          "internalType": "uint256",
          "name": "_translationMultiplier",
          "type": "uint256"
        }
      ],
      "name": "changeTranslationMultiplier",
      "outputs": [],
      "stateMutability": "nonpayable",
      "type": "function"
    },
    {
      "inputs": [
        {
          "internalType": "uint256",
          "name": "_winnerStakeMultiplier",
          "type": "uint256"
        }
      ],
      "name": "changeWinnerStakeMultiplier",
      "outputs": [],
      "stateMutability": "nonpayable",
      "type": "function"
    },
    {
      "inputs": [
        {
          "internalType": "uint256",
          "name": "_deadline",
          "type": "uint256"
        },
        {
          "internalType": "contract IERC20",
          "name": "_token",
          "type": "address"
        },
        {
          "internalType": "uint256",
          "name": "_minPrice",
          "type": "uint256"
        },
        {
          "internalType": "uint256",
          "name": "_maxPrice",
          "type": "uint256"
        },
        {
          "internalType": "string",
          "name": "_metaEvidence",
          "type": "string"
        }
      ],
      "name": "createTask",
      "outputs": [
        {
          "internalType": "uint256",
          "name": "taskID",
          "type": "uint256"
        }
      ],
      "stateMutability": "nonpayable",
      "type": "function"
    },
    {
      "inputs": [
        {
          "internalType": "uint256",
          "name": "",
          "type": "uint256"
        }
      ],
      "name": "disputeIDtoTaskID",
      "outputs": [
        {
          "internalType": "uint256",
          "name": "",
          "type": "uint256"
        }
      ],
      "stateMutability": "view",
      "type": "function"
    },
    {
      "inputs": [
        {
          "internalType": "uint256",
          "name": "_taskID",
          "type": "uint256"
        },
        {
          "internalType": "enum LinguoToken.Party",
          "name": "_side",
          "type": "uint8"
        }
      ],
      "name": "fundAppeal",
      "outputs": [],
      "stateMutability": "payable",
      "type": "function"
    },
    {
      "inputs": [
        {
          "internalType": "uint256",
          "name": "_taskID",
          "type": "uint256"
        }
      ],
      "name": "getChallengeValue",
      "outputs": [
        {
          "internalType": "uint256",
          "name": "deposit",
          "type": "uint256"
        }
      ],
      "stateMutability": "view",
      "type": "function"
    },
    {
      "inputs": [
        {
          "internalType": "uint256",
          "name": "_taskID",
          "type": "uint256"
        },
        {
          "internalType": "uint256",
          "name": "_round",
          "type": "uint256"
        },
        {
          "internalType": "address",
          "name": "_contributor",
          "type": "address"
        }
      ],
      "name": "getContributions",
      "outputs": [
        {
          "internalType": "uint256[3]",
          "name": "contributions",
          "type": "uint256[3]"
        }
      ],
      "stateMutability": "view",
      "type": "function"
    },
    {
      "inputs": [
        {
          "internalType": "uint256",
          "name": "_taskID",
          "type": "uint256"
        }
      ],
      "name": "getDepositValue",
      "outputs": [
        {
          "internalType": "uint256",
          "name": "deposit",
          "type": "uint256"
        }
      ],
      "stateMutability": "view",
      "type": "function"
    },
    {
      "inputs": [
        {
          "internalType": "uint256",
          "name": "_taskID",
          "type": "uint256"
        }
      ],
      "name": "getNumberOfRounds",
      "outputs": [
        {
          "internalType": "uint256",
          "name": "",
          "type": "uint256"
        }
      ],
      "stateMutability": "view",
      "type": "function"
    },
    {
      "inputs": [
        {
          "internalType": "uint256",
          "name": "_taskID",
          "type": "uint256"
        },
        {
          "internalType": "uint256",
          "name": "_round",
          "type": "uint256"
        }
      ],
      "name": "getRoundInfo",
      "outputs": [
        {
          "internalType": "uint256[3]",
          "name": "paidFees",
          "type": "uint256[3]"
        },
        {
          "internalType": "bool[3]",
          "name": "hasPaid",
          "type": "bool[3]"
        },
        {
          "internalType": "uint256",
          "name": "feeRewards",
          "type": "uint256"
        }
      ],
      "stateMutability": "view",
      "type": "function"
    },
    {
      "inputs": [],
      "name": "getTaskCount",
      "outputs": [
        {
          "internalType": "uint256",
          "name": "",
          "type": "uint256"
        }
      ],
      "stateMutability": "view",
      "type": "function"
    },
    {
      "inputs": [
        {
          "internalType": "uint256",
          "name": "_taskID",
          "type": "uint256"
        }
      ],
      "name": "getTaskEquivalentPrices",
      "outputs": [
        {
          "internalType": "uint256",
          "name": "priceETH",
          "type": "uint256"
        },
        {
          "internalType": "uint256",
          "name": "priceToken",
          "type": "uint256"
        }
      ],
      "stateMutability": "view",
      "type": "function"
    },
    {
      "inputs": [
        {
          "internalType": "uint256",
          "name": "_taskID",
          "type": "uint256"
        }
      ],
      "name": "getTaskParties",
      "outputs": [
        {
          "internalType": "address payable[3]",
          "name": "parties",
          "type": "address[3]"
        }
      ],
      "stateMutability": "view",
      "type": "function"
    },
    {
      "inputs": [
        {
          "internalType": "uint256",
          "name": "_taskID",
          "type": "uint256"
        }
      ],
      "name": "getTaskPrice",
      "outputs": [
        {
          "internalType": "uint256",
          "name": "price",
          "type": "uint256"
        }
      ],
      "stateMutability": "view",
      "type": "function"
    },
    {
      "inputs": [],
      "name": "governor",
      "outputs": [
        {
          "internalType": "address",
          "name": "",
          "type": "address"
        }
      ],
      "stateMutability": "view",
      "type": "function"
    },
    {
      "inputs": [],
      "name": "loserStakeMultiplier",
      "outputs": [
        {
          "internalType": "uint256",
          "name": "",
          "type": "uint256"
        }
      ],
      "stateMutability": "view",
      "type": "function"
    },
    {
      "inputs": [
        {
          "internalType": "uint256",
          "name": "_taskID",
          "type": "uint256"
        }
      ],
      "name": "reimburseRequester",
      "outputs": [],
      "stateMutability": "nonpayable",
      "type": "function"
    },
    {
      "inputs": [],
      "name": "reviewTimeout",
      "outputs": [
        {
          "internalType": "uint256",
          "name": "",
          "type": "uint256"
        }
      ],
      "stateMutability": "view",
      "type": "function"
    },
    {
      "inputs": [
        {
          "internalType": "uint256",
          "name": "_disputeID",
          "type": "uint256"
        },
        {
          "internalType": "uint256",
          "name": "_ruling",
          "type": "uint256"
        }
      ],
      "name": "rule",
      "outputs": [],
      "stateMutability": "nonpayable",
      "type": "function"
    },
    {
      "inputs": [],
      "name": "sharedStakeMultiplier",
      "outputs": [
        {
          "internalType": "uint256",
          "name": "",
          "type": "uint256"
        }
      ],
      "stateMutability": "view",
      "type": "function"
    },
    {
      "inputs": [
        {
          "internalType": "uint256",
          "name": "_taskID",
          "type": "uint256"
        },
        {
          "internalType": "string",
          "name": "_evidence",
          "type": "string"
        }
      ],
      "name": "submitEvidence",
      "outputs": [],
      "stateMutability": "nonpayable",
      "type": "function"
    },
    {
      "inputs": [
        {
          "internalType": "uint256",
          "name": "_taskID",
          "type": "uint256"
        },
        {
          "internalType": "string",
          "name": "_translation",
          "type": "string"
        }
      ],
      "name": "submitTranslation",
      "outputs": [],
      "stateMutability": "nonpayable",
      "type": "function"
    },
    {
      "inputs": [
        {
          "internalType": "uint256",
          "name": "",
          "type": "uint256"
        }
      ],
      "name": "tasks",
      "outputs": [
        {
          "internalType": "contract IERC20",
          "name": "token",
          "type": "address"
        },
        {
          "internalType": "uint256",
          "name": "submissionTimeout",
          "type": "uint256"
        },
        {
          "internalType": "uint256",
          "name": "minPrice",
          "type": "uint256"
        },
        {
          "internalType": "uint256",
          "name": "maxPrice",
          "type": "uint256"
        },
        {
          "internalType": "enum LinguoToken.Status",
          "name": "status",
          "type": "uint8"
        },
        {
          "internalType": "uint256",
          "name": "lastInteraction",
          "type": "uint256"
        },
        {
          "internalType": "address payable",
          "name": "requester",
          "type": "address"
        },
        {
          "internalType": "uint256",
          "name": "requesterDeposit",
          "type": "uint256"
        },
        {
          "internalType": "uint256",
          "name": "sumDeposit",
          "type": "uint256"
        },
        {
          "internalType": "uint256",
          "name": "disputeID",
          "type": "uint256"
        },
        {
          "internalType": "uint256",
          "name": "ruling",
          "type": "uint256"
        }
      ],
      "stateMutability": "view",
      "type": "function"
    },
    {
      "inputs": [],
      "name": "translationMultiplier",
      "outputs": [
        {
          "internalType": "uint256",
          "name": "",
          "type": "uint256"
        }
      ],
      "stateMutability": "view",
      "type": "function"
    },
    {
      "inputs": [],
      "name": "uniswapFactory",
      "outputs": [
        {
          "internalType": "address",
          "name": "",
          "type": "address"
        }
      ],
      "stateMutability": "view",
      "type": "function"
    },
    {
      "inputs": [],
      "name": "winnerStakeMultiplier",
      "outputs": [
        {
          "internalType": "uint256",
          "name": "",
          "type": "uint256"
        }
      ],
      "stateMutability": "view",
      "type": "function"
    },
    {
      "inputs": [
        {
          "internalType": "address payable",
          "name": "_beneficiary",
          "type": "address"
        },
        {
          "internalType": "uint256",
          "name": "_taskID",
          "type": "uint256"
        },
        {
          "internalType": "uint256",
          "name": "_round",
          "type": "uint256"
        }
      ],
      "name": "withdrawFeesAndRewards",
      "outputs": [],
      "stateMutability": "nonpayable",
      "type": "function"
    }
  ],
  "transactionHash": "0x2392daa20b360415fef9ea660697e6d67ed2055f38bc414bea936f75a523e510",
  "args": [
    "0xA8243657a1E6ad1AAf2b59c4CCDFE85fC6fD7a8B",
    "0x",
    "0xd0A1E359811322d97991E03f863a0C30C2cF029C",
    "0x5C69bEe701ef814a2B6a3EDD4B1652CB9cc5aA6f",
    "86400",
    "1000",
    "10000",
    "5000",
    "20000"
  ],
  "solcInputHash": "0x8fe8225116477aec14e56dc8e50d1c283e91b68f69aeb80bfab6fb5b6a78f56e",
  "bytecode": "0x60e0604052600080546001600160a01b031916331790553480156200002357600080fd5b50604051620046c6380380620046c683398181016040526101208110156200004a57600080fd5b8151602083018051604051929492938301929190846401000000008211156200007257600080fd5b9083019060208201858111156200008857600080fd5b8251640100000000811182820188101715620000a357600080fd5b82525081516020918201929091019080838360005b83811015620000d2578181015183820152602001620000b8565b50505050905090810190601f168015620001005780820380516001836020036101000a031916815260200191505b50604090815260208281015191830151606080850151608086015160a087015160c08089015160e090990151948d901b6001600160601b03191690528a5196995093975090959094929390926200015e91600191908b019062000197565b506001600160601b0319606097881b81166080529590961b90941660a05260029290925560035560045560055560065550620002439050565b828054600181600116156101000203166002900490600052602060002090601f016020900481019282620001cf57600085556200021a565b82601f10620001ea57805160ff19168380011785556200021a565b828001600101855582156200021a579182015b828111156200021a578251825591602001919060010190620001fd565b50620002289291506200022c565b5090565b5b808211156200022857600081556001016200022d565b60805160601c60a05160601c60c05160601c6143ee620002d860003980610f97528061108b5280611176528061135f528061167a528061184d5280611a145280611c715280611d4152806121515280612369528061248b528061253c528061289e5280612ced5250806126c95280613598525080612bad52806134be52806135095280613535528061357052506143ee6000f3fe6080604052600436106102465760003560e01c80638a9bb02a11610139578063b8573185116100b6578063d2dbe1d81161007a578063d2dbe1d814610a2e578063d661dd3114610a58578063e4c0aaf414610a6d578063ec180da014610aa0578063f0900d2f14610ae3578063fc6f8f1614610b7f57610246565b8063b85731851461093a578063c17a340e14610957578063c36cd1961461096c578063c4e690df146109ee578063cc7b9d0614610a0357610246565b8063a6a7f0eb116100fd578063a6a7f0eb14610825578063a95c9805146108a7578063aba4ab74146108d1578063ad5c4648146108fb578063adc7faba1461091057610246565b80638a9bb02a1461067e5780638bdb2afa146107195780638d9776721461072e57806392239dff146107d157806395c95522146107fb57610246565b8063311a6c56116101c75780636cc6cde11161018b5780636cc6cde1146105765780636e8218aa1461058b5780636e99a23a146105b55780637b943383146105f4578063881f7c571461060957610246565b8063311a6c5614610460578063339ac67c146104905780633a2dabfa146104d557806341658341146104ea57806368c76ffd146104ff57610246565b806312b3a2c01161020e57806312b3a2c0146103a757806312ce3525146103cd5780631972483a146103f75780631d51208514610421578063244772e81461043657610246565b8063064ba1891461024b57806309e24ad4146102875780630c340a24146102b35780630c7ac7b6146102e45780631165542b1461036e575b600080fd5b34801561025757600080fd5b506102756004803603602081101561026e57600080fd5b5035610ba9565b60408051918252519081900360200190f35b34801561029357600080fd5b506102b1600480360360208110156102aa57600080fd5b5035610bbb565b005b3480156102bf57600080fd5b506102c8610c09565b604080516001600160a01b039092168252519081900360200190f35b3480156102f057600080fd5b506102f9610c18565b6040805160208082528351818301528351919283929083019185019080838360005b8381101561033357818101518382015260200161031b565b50505050905090810190601f1680156103605780820380516001836020036101000a031916815260200191505b509250505060405180910390f35b34801561037a57600080fd5b506102756004803603604081101561039157600080fd5b50803590602001356001600160a01b0316610ca5565b6102b1600480360360408110156103bd57600080fd5b508035906020013560ff16610eb4565b3480156103d957600080fd5b506102b1600480360360208110156103f057600080fd5b5035611765565b34801561040357600080fd5b506102756004803603602081101561041a57600080fd5b50356117b3565b34801561042d57600080fd5b5061027561191d565b34801561044257600080fd5b506102756004803603602081101561045957600080fd5b5035611923565b34801561046c57600080fd5b506102b16004803603604081101561048357600080fd5b50803590602001356119aa565b34801561049c57600080fd5b506102b1600480360360808110156104b357600080fd5b506001600160a01b038135169060208101359060408101359060600135611b6e565b3480156104e157600080fd5b50610275611bc7565b3480156104f657600080fd5b50610275611bcd565b34801561050b57600080fd5b5061053e6004803603606081101561052257600080fd5b50803590602081013590604001356001600160a01b0316611bd3565b6040518082606080838360005b8381101561056357818101518382015260200161054b565b5050505090500191505060405180910390f35b34801561058257600080fd5b506102c8611c6f565b34801561059757600080fd5b50610275600480360360208110156105ae57600080fd5b5035611c93565b3480156105c157600080fd5b506102b1600480360360608110156105d857600080fd5b506001600160a01b038135169060208101359060400135611e39565b34801561060057600080fd5b506102756120ed565b6102b16004803603604081101561061f57600080fd5b81359190810190604081016020820135600160201b81111561064057600080fd5b82018360208201111561065257600080fd5b803590602001918460018302840111600160201b8311171561067357600080fd5b5090925090506120f3565b34801561068a57600080fd5b506106ae600480360360408110156106a157600080fd5b50803590602001356125cc565b6040518084606080838360005b838110156106d35781810151838201526020016106bb565b5050505090500183600360200280838360005b838110156106fe5781810151838201526020016106e6565b50505050905001828152602001935050505060405180910390f35b34801561072557600080fd5b506102c86126c7565b34801561073a57600080fd5b506107586004803603602081101561075157600080fd5b50356126eb565b604051808c6001600160a01b031681526020018b81526020018a815260200189815260200188600481111561078957fe5b8152602001878152602001866001600160a01b031681526020018581526020018481526020018381526020018281526020019b50505050505050505050505060405180910390f35b3480156107dd57600080fd5b506102b1600480360360208110156107f457600080fd5b5035612765565b34801561080757600080fd5b5061053e6004803603602081101561081e57600080fd5b50356127b3565b34801561083157600080fd5b506102b16004803603604081101561084857600080fd5b81359190810190604081016020820135600160201b81111561086957600080fd5b82018360208201111561087b57600080fd5b803590602001918460018302840111600160201b8311171561089c57600080fd5b50909250905061281f565b3480156108b357600080fd5b506102b1600480360360208110156108ca57600080fd5b503561292c565b3480156108dd57600080fd5b506102b1600480360360208110156108f457600080fd5b503561297a565b34801561090757600080fd5b506102c8612bab565b34801561091c57600080fd5b506102b16004803603602081101561093357600080fd5b5035612bcf565b6102b16004803603602081101561095057600080fd5b5035612c1d565b34801561096357600080fd5b50610275612fd0565b34801561097857600080fd5b506102b16004803603604081101561098f57600080fd5b81359190810190604081016020820135600160201b8111156109b057600080fd5b8201836020820111156109c257600080fd5b803590602001918460018302840111600160201b831117156109e357600080fd5b509092509050612fd6565b3480156109fa57600080fd5b5061027561317e565b348015610a0f57600080fd5b50610a18613184565b6040805160ff9092168252519081900360200190f35b348015610a3a57600080fd5b506102b160048036036020811015610a5157600080fd5b5035613189565b348015610a6457600080fd5b506102756133cc565b348015610a7957600080fd5b506102b160048036036020811015610a9057600080fd5b50356001600160a01b03166133d2565b348015610aac57600080fd5b50610aca60048036036020811015610ac357600080fd5b503561343d565b6040805192835260208301919091528051918290030190f35b348015610aef57600080fd5b50610275600480360360a0811015610b0657600080fd5b8135916001600160a01b036020820135169160408201359160608101359181019060a081016080820135600160201b811115610b4157600080fd5b820183602082011115610b5357600080fd5b803590602001918460018302840111600160201b83111715610b7457600080fd5b5090925090506137a6565b348015610b8b57600080fd5b5061027560048036036020811015610ba257600080fd5b5035613ad4565b60086020526000908152604090205481565b6000546001600160a01b03163314610c045760405162461bcd60e51b81526004018080602001828103825260298152602001806141e06029913960400191505060405180910390fd5b600255565b6000546001600160a01b031681565b60018054604080516020600284861615610100026000190190941693909304601f81018490048402820184019092528181529291830182828015610c9d5780601f10610c7257610100808354040283529160200191610c9d565b820191906000526020600020905b815481529060010190602001808311610c8057829003601f168201915b505050505081565b60008060078481548110610cb557fe5b60009182526020909120600f9091020190506004808083015460ff1690811115610cdb57fe5b14610ce65750610eae565b60005b600d820154811015610eab57600082600d018281548110610d0657fe5b60009182526020909120600360069092020190810154909150610100900460ff161580610d3e5750600381015462010000900460ff16155b15610d73576001600160a01b038516600090815260058201602052604090206002810154600190910154019390930192610ea2565b600e830154610e2d57600080826001015411610d90576000610dcc565b8160020154826001015460048401546001600160a01b038916600090815260058601602052604090209290910191600101540281610dca57fe5b045b9050600080836002015411610de2576000610e1e565b8260020154836001015460048501546001600160a01b038a16600090815260058701602052604090209290910191600201540281610e1c57fe5b045b91909101949094019350610ea2565b60008160000184600e015460038110610e4257fe5b015411610e50576000610e9d565b600e830154819060038110610e6157fe5b015460048201546001600160a01b03871660009081526005840160205260409020600e86015460038110610e9157fe5b01540281610e9b57fe5b045b840193505b50600101610ce9565b50505b92915050565b600060078381548110610ec357fe5b60009182526020909120600f9091020190506001826002811115610ee357fe5b1480610efa57506002826002811115610ef857fe5b145b610f355760405162461bcd60e51b815260040180806020018281038252603681526020018061432a6036913960400191505060405180910390fd5b600360048083015460ff1690811115610f4a57fe5b14610f93576040805162461bcd60e51b8152602060048201526014602482015273139bc8191a5cdc1d5d19481d1bc8185c1c19585b60621b604482015290519081900360640190fd5b60017f00000000000000000000000000000000000000000000000000000000000000006001600160a01b03166310f169e883600c01546040518263ffffffff1660e01b81526004018082815260200191505060206040518083038186803b158015610ffd57600080fd5b505afa158015611011573d6000803e3d6000fd5b505050506040513d602081101561102757600080fd5b5051600281111561103457fe5b14611086576040805162461bcd60e51b815260206004820152601a60248201527f44697370757465206973206e6f742061707065616c61626c652e000000000000604482015290519081900360640190fd5b6000807f00000000000000000000000000000000000000000000000000000000000000006001600160a01b031663afe15cfb84600c01546040518263ffffffff1660e01b815260040180828152602001915050604080518083038186803b1580156110f057600080fd5b505afa158015611104573d6000803e3d6000fd5b505050506040513d604081101561111a57600080fd5b508051602090910151909250905042821180159061113757508042105b6111725760405162461bcd60e51b815260040180806020018281038252602e815260200180613f69602e913960400191505060405180910390fd5b60007f00000000000000000000000000000000000000000000000000000000000000006001600160a01b0316631c3db16d85600c01546040518263ffffffff1660e01b81526004018082815260200191505060206040518083038186803b1580156111dc57600080fd5b505afa1580156111f0573d6000803e3d6000fd5b505050506040513d602081101561120657600080fd5b50519050600085600281111561121857fe5b8214156112285750600554611280565b816112365750600454611280565b6002848403048442031061127b5760405162461bcd60e51b815260040180806020018281038252603e815260200180614089603e913960400191505060405180910390fd5b506006545b600d8501805460009190600019810190811061129857fe5b90600052602060002090600602019050806003018760028111156112b857fe5b600381106112c257fe5b602081049091015460ff601f9092166101000a900416156113145760405162461bcd60e51b81526004018080602001828103825260218152602001806142e46021913960400191505060405180910390fd5b600c8601546040805163791f8b7360e11b8152600481018381526024820192835260018054600260001961010083851615020190911604604484018190526000956001600160a01b037f0000000000000000000000000000000000000000000000000000000000000000169563f23f16e695919492909160640190849080156113de5780601f106113b3576101008083540402835291602001916113de565b820191906000526020600020905b8154815290600101906020018083116113c157829003601f168201915b5050935050505060206040518083038186803b1580156113fd57600080fd5b505afa158015611411573d6000803e3d6000fd5b505050506040513d602081101561142757600080fd5b50519050600061144d61271061143d8487613aff565b8161144457fe5b84919004613b33565b905060008061147e34611479878e600281111561146657fe5b6003811061147057fe5b01548690613b48565b613b63565b3360009081526005880160205260409020919350915082908c60028111156114a257fe5b600381106114ac57fe5b018054909101905581858c60028111156114c257fe5b600381106114cc57fe5b018054909101905560405133908d907f22039e79a27860a038aece214124c8ecef12fdc1334feb8e8a157a0ae16a1db4908e9086908083600281111561150e57fe5b81526020018281526020019250505060405180910390a382858c600281111561153357fe5b6003811061153d57fe5b0154106115ed576001856003018c600281111561155657fe5b6003811061156057fe5b602091828204019190066101000a81548160ff021916908315150217905550846000018b600281111561158f57fe5b6003811061159957fe5b015460048601805490910190556040518c907f213276d821d6205d87fa4f4658db4bf5a24a2323b0fdd8ffcd239c445f86a57b908d90808260028111156115dc57fe5b815260200191505060405180910390a25b604051339082156108fc029083906000818181858888f1505050506003860154610100900460ff169050801561162d5750600385015462010000900460ff165b1561175757600c8a01546040805163093225f160e31b8152600481018381526024820192835260018054600260001961010083851615020190911604604484018190526001600160a01b037f000000000000000000000000000000000000000000000000000000000000000016956349912f88958b95919492909160640190849080156116fb5780601f106116d0576101008083540402835291602001916116fb565b820191906000526020600020905b8154815290600101906020018083116116de57829003601f168201915b505093505050506000604051808303818588803b15801561171b57600080fd5b505af115801561172f573d6000803e3d6000fd5b505050600d8c0180546001018155600052505060048501546117519085613b48565b60048601555b505050505050505050505050565b6000546001600160a01b031633146117ae5760405162461bcd60e51b81526004018080602001828103825260298152602001806141e06029913960400191505060405180910390fd5b600455565b600080600783815481106117c357fe5b90600052602060002090600f020190506002548160050154420311806117fc5750600260048083015460ff16908111156117f957fe5b14155b15611810576001600160ff1b039150611917565b60405163f7434ea960e01b815260206004820190815260018054600260001961010083851615020190911604602484018190526001600160a01b037f0000000000000000000000000000000000000000000000000000000000000000169363f7434ea99391829160440190849080156118ca5780601f1061189f576101008083540402835291602001916118ca565b820191906000526020600020905b8154815290600101906020018083116118ad57829003601f168201915b50509250505060206040518083038186803b1580156118e857600080fd5b505afa1580156118fc573d6000803e3d6000fd5b505050506040513d602081101561191257600080fd5b505191505b50919050565b60065481565b6000806007838154811061193357fe5b90600052602060002090600f02019050806001015481600501544203118061196e5750600060048083015460ff169081111561196b57fe5b14155b1561197c5760009150611917565b8060010154816005015442038260020154836003015403028161199b57fe5b04816002015401915050919050565b60008160028111156119b857fe5b600084815260086020526040812054600780549394509092839081106119da57fe5b600091825260208220600d600f909202019081018054919350906000198101908110611a0257fe5b906000526020600020906006020190507f00000000000000000000000000000000000000000000000000000000000000006001600160a01b0316336001600160a01b031614611a825760405162461bcd60e51b81526004018080602001828103825260218152602001806140686021913960400191505060405180910390fd5b600360048084015460ff1690811115611a9757fe5b14611ad35760405162461bcd60e51b8152600401808060200182810382526026815260200180613ff86026913960400191505060405180910390fd5b600381015460ff61010090910416151560011415611af45760019350611b11565b600381015462010000900460ff16151560011415611b1157600293505b85337f394027a5fa6e098a1191094d1719d6929b9abc535fcc0c8f448d6a4e75622276866002811115611b4057fe5b60408051918252519081900360200190a3611b6686856002811115611b6157fe5b613b88565b505050505050565b600060078481548110611b7d57fe5b90600052602060002090600f0201905060008390505b600d82015481108015611baf5750821580611baf575082840181105b15611b6657611bbf868683611e39565b600101611b93565b60035481565b60045481565b611bdb613f4a565b600060078581548110611bea57fe5b90600052602060002090600f02019050600081600d018581548110611c0b57fe5b600091825260208083206001600160a01b03881684526005600690930201918201905260409182902082516060810190935290925060038282826020028201915b815481526020019060010190808311611c4c575050505050925050509392505050565b7f000000000000000000000000000000000000000000000000000000000000000081565b60008060078381548110611ca357fe5b90600052602060002090600f020190508060010154816005015442031180611cde5750600060048083015460ff1690811115611cdb57fe5b14155b15611cf2576001600160ff1b039150611917565b6000611cfd8461343d565b5060405163f7434ea960e01b815260206004820190815260018054600260001961010083851615020190911604602484018190529394506000936001600160a01b037f0000000000000000000000000000000000000000000000000000000000000000169363f7434ea9939182916044019084908015611dbe5780601f10611d9357610100808354040283529160200191611dbe565b820191906000526020600020905b815481529060010190602001808311611da157829003601f168201915b50509250505060206040518083038186803b158015611ddc57600080fd5b505afa158015611df0573d6000803e3d6000fd5b505050506040513d6020811015611e0657600080fd5b5051600354909150611e309061271090611e209085613aff565b81611e2757fe5b83919004613b33565b95945050505050565b600060078381548110611e4857fe5b90600052602060002090600f02019050600081600d018381548110611e6957fe5b6000918252602090912060069091020190506004808084015460ff1690811115611e8f57fe5b14611ee1576040805162461bcd60e51b815260206004820152601c60248201527f546865207461736b2073686f756c64206265207265736f6c7665642e00000000604482015290519081900360640190fd5b6003810154600090610100900460ff161580611f085750600382015462010000900460ff16155b15611f4257506001600160a01b038516600090815260058201602052604081206002810180546001909201805490849055929055016120c0565b600e83015461201f57600080836001015411611f5f576000611f9b565b8260020154836001015460048501546001600160a01b038a16600090815260058701602052604090209290910191600101540281611f9957fe5b045b9050600080846002015411611fb1576000611fed565b8360020154846001015460048601546001600160a01b038b16600090815260058801602052604090209290910191600201540281611feb57fe5b045b6001600160a01b0389166000908152600586016020526040812060018101829055600201559190910191506120c09050565b60008260000184600e01546003811061203457fe5b01541161204257600061208f565b600e83015482906003811061205357fe5b015460048301546001600160a01b03881660009081526005850160205260409020600e8601546003811061208357fe5b0154028161208d57fe5b045b6001600160a01b03871660009081526005840160205260408120600e8601549293509091600381106120bd57fe5b01555b6040516001600160a01b0387169082156108fc029083906000818181858888f15050505050505050505050565b60055481565b60006007848154811061210257fe5b6000918252602080832060405163f7434ea960e01b8152600481019283526001805460026000196101008385161502019091160460248301819052600f90950290920195506001600160a01b037f0000000000000000000000000000000000000000000000000000000000000000169363f7434ea993918291604490910190849080156121d05780601f106121a5576101008083540402835291602001916121d0565b820191906000526020600020905b8154815290600101906020018083116121b357829003601f168201915b50509250505060206040518083038186803b1580156121ee57600080fd5b505afa158015612202573d6000803e3d6000fd5b505050506040513d602081101561221857600080fd5b50519050600260048084015460ff169081111561223157fe5b14612283576040805162461bcd60e51b815260206004820181905260248201527f546865207461736b20697320696e207468652077726f6e67207374617475732e604482015290519081900360640190fd5b6002548260050154420311156122ca5760405162461bcd60e51b81526004018080602001828103825260248152602001806142c06024913960400191505060405180910390fd5b803410156123095760405162461bcd60e51b815260040180806020018281038252602a81526020018061417a602a913960400191505060405180910390fd5b60048281018054600360ff19909116179055600b830180546001600160a01b031916331790556040805163c13517e160e01b81526002928101838152602482019283526001805460001981831615610100020116859004604484018190527f00000000000000000000000000000000000000000000000000000000000000006001600160a01b03169563c13517e1958895919492909160640190849080156123f25780601f106123c7576101008083540402835291602001916123f2565b820191906000526020600020905b8154815290600101906020018083116123d557829003601f168201915b505093505050506020604051808303818588803b15801561241257600080fd5b505af1158015612426573d6000803e3d6000fd5b50505050506040513d602081101561243d57600080fd5b5051600c8301819055600090815260086020526040808220879055600d8401805460010181558252513483900391339183156108fc0291849190818181858888f193505050505082600c01547f00000000000000000000000000000000000000000000000000000000000000006001600160a01b03167f74baab670a4015ab2f1b467c5252a96141a2573f2908e58a92081e80d3cfde3d8889604051808381526020018281526020019250505060405180910390a3604080514281529051339188917f6f0bb1c54bb0ad8822894f45a3837ab62e23e77d25c5881ab57e1c6a99f7e0b59181900360200190a38315611b6657336001600160a01b0316867f00000000000000000000000000000000000000000000000000000000000000006001600160a01b03167fdccf2f8b2cc26eafcd61905cba744cff4b81d14740725f6376390dc6298a6a3c888860405180806020018281038252848482818152602001925080828437600083820152604051601f909101601f19169092018290039550909350505050a4505050505050565b6125d4613f4a565b6125dc613f4a565b600080600786815481106125ec57fe5b90600052602060002090600f02019050600081600d01868154811061260d57fe5b906000526020600020906006020190508060000181600301826004015482600380602002604051908101604052809291908260038015612662576020028201915b81548152602001906001019080831161264e575b5050604080516060810191829052949750869350600392509050826000855b825461010083900a900460ff1615158152602060019283018181049485019490930390920291018084116126815790505050505050915094509450945050509250925092565b7f000000000000000000000000000000000000000000000000000000000000000081565b600781815481106126fb57600080fd5b60009182526020909120600f90910201805460018201546002830154600384015460048501546005860154600687015460078801546008890154600c8a0154600e909a01546001600160a01b03998a169b5097999698959760ff909516969395909216939092908b565b6000546001600160a01b031633146127ae5760405162461bcd60e51b81526004018080602001828103825260298152602001806141e06029913960400191505060405180910390fd5b600655565b6127bb613f4a565b6000600783815481106127ca57fe5b60009182526020909120604080516060810191829052600f9093029091019250600983019060039082845b81546001600160a01b031681526001909101906020018083116127f5575050505050915050919050565b60006007848154811061282e57fe5b60009182526020909120600f9091020190506004808083015460ff169081111561285457fe5b14156128915760405162461bcd60e51b81526004018080602001828103825260268152602001806143606026913960400191505060405180910390fd5b336001600160a01b0316847f00000000000000000000000000000000000000000000000000000000000000006001600160a01b03167fdccf2f8b2cc26eafcd61905cba744cff4b81d14740725f6376390dc6298a6a3c868660405180806020018281038252848482818152602001925080828437600083820152604051601f909101601f19169092018290039550909350505050a450505050565b6000546001600160a01b031633146129755760405162461bcd60e51b81526004018080602001828103825260298152602001806141e06029913960400191505060405180910390fd5b600355565b60006007828154811061298957fe5b60009182526020909120600f909102019050600260048083015460ff16908111156129b057fe5b106129ec5760405162461bcd60e51b815260040180806020018281038252602d815260200180614293602d913960400191505060405180910390fd5b80600101548160050154420311612a345760405162461bcd60e51b81526004018080602001828103825260328152602001806142096032913960400191505060405180910390fd5b6004818101805460ff19169091179055600781018054600883018054600093849055908390556006840154604051929391926001600160a01b03909116916108fc841502918491818181858888f15050855460068701546040805163a9059cbb60e01b81526001600160a01b03928316600482015260248101899052905191909216945063a9059cbb9350604480830193506020928290030181600087803b158015612adf57600080fd5b505af1158015612af3573d6000803e3d6000fd5b505050506040513d6020811015612b0957600080fd5b5051612b465760405162461bcd60e51b8152600401808060200182810382526024815260200180613f976024913960400191505060405180910390fd5b60408051426020820152818152601481830152731c995c5d595cdd195c8b5c995a5b589d5c9cd95960621b6060820152905185917f5850eca3b971056e7a311e04b06c359c0aceec8e422e4e015301e136efbd888a919081900360800190a250505050565b7f000000000000000000000000000000000000000000000000000000000000000081565b6000546001600160a01b03163314612c185760405162461bcd60e51b81526004018080602001828103825260298152602001806141e06029913960400191505060405180910390fd5b600555565b600060078281548110612c2c57fe5b90600052602060002090600f020190508060010154816005015442031115612c9b576040805162461bcd60e51b815260206004820181905260248201527f54686520646561646c696e652068617320616c7265616479207061737365642e604482015290519081900360640190fd5b600080612ca78461343d565b60405163f7434ea960e01b815260206004820190815260018054600260001961010083851615020190911604602484018190529496509294506000936001600160a01b037f0000000000000000000000000000000000000000000000000000000000000000169363f7434ea99390929182916044019084908015612d6c5780601f10612d4157610100808354040283529160200191612d6c565b820191906000526020600020905b815481529060010190602001808311612d4f57829003601f168201915b50509250505060206040518083038186803b158015612d8a57600080fd5b505afa158015612d9e573d6000803e3d6000fd5b505050506040513d6020811015612db457600080fd5b5051600354909150600090612dd1906127109061143d9087613aff565b9050600060048087015460ff1690811115612de857fe5b14612e245760405162461bcd60e51b815260040180806020018281038252602d815260200180614266602d913960400191505060405180910390fd5b80341015612e635760405162461bcd60e51b81526004018080602001828103825260338152602001806143866033913960400191505060405180910390fd5b600a850180546001600160a01b0319163390811790915560048601805460ff1916600117905560078601849055600886018290556040513483900391906108fc8315029083906000818181858888f1505050506003870154612ec6915085613b48565b865460068801546040805163a9059cbb60e01b81526001600160a01b03928316600482015260248101859052905193945091169163a9059cbb916044808201926020929091908290030181600087803b158015612f2257600080fd5b505af1158015612f36573d6000803e3d6000fd5b505050506040513d6020811015612f4c57600080fd5b5051612f895760405162461bcd60e51b815260040180806020018281038252602b81526020018061423b602b913960400191505060405180910390fd5b60408051858152426020820152815133928a927f9c8de00bfaaca6ca425ca3047c87c81f398e79f7c15166f53dcb29782ef9da42929081900390910190a350505050505050565b60075490565b600060078481548110612fe557fe5b60009182526020909120600f909102019050600160048083015460ff169081111561300c57fe5b146130485760405162461bcd60e51b815260040180806020018281038252604a81526020018061401e604a913960600191505060405180910390fd5b80600101548160050154420311156130a7576040805162461bcd60e51b815260206004820181905260248201527f54686520646561646c696e652068617320616c7265616479207061737365642e604482015290519081900360640190fd5b60098101600101546001600160a01b031633146130f55760405162461bcd60e51b81526004018080602001828103825260418152602001806140c76041913960600191505060405180910390fd5b60048101805460ff1916600217905542600582018190556040805160208101839052818152908101849052339186917f81c1cc8daea412565717a44fb42a08dbcb5d73101f5473d062391293c947d26d9187918791908060608101858580828437600083820152604051601f909101601f1916909201829003965090945050505050a350505050565b60025481565b608081565b60006007828154811061319857fe5b60009182526020909120600f909102019050600260048083015460ff16908111156131bf57fe5b14613211576040805162461bcd60e51b815260206004820181905260248201527f546865207461736b20697320696e207468652077726f6e67207374617475732e604482015290519081900360640190fd5b60025481600501544203116132575760405162461bcd60e51b81526004018080602001828103825260238152602001806141306023913960400191505060405180910390fd5b6004818101805460ff19169091179055600a810154600782018054600884018054600093849055908390556040516001600160a01b03909416939192909184916108fc841502918491818181858888f1505086546040805163a9059cbb60e01b81526001600160a01b03898116600483015260248201899052915191909216945063a9059cbb9350604480830193506020928290030181600087803b1580156132ff57600080fd5b505af1158015613313573d6000803e3d6000fd5b505050506040513d602081101561332957600080fd5b50516133665760405162461bcd60e51b8152600401808060200182810382526024815260200180613f976024913960400191505060405180910390fd5b60408051426020820152818152601481830152731d1c985b9cdb185d1a5bdb8b5858d8d95c1d195960621b6060820152905186917f5850eca3b971056e7a311e04b06c359c0aceec8e422e4e015301e136efbd888a919081900360800190a25050505050565b61271081565b6000546001600160a01b0316331461341b5760405162461bcd60e51b81526004018080602001828103825260298152602001806141e06029913960400191505060405180910390fd5b600080546001600160a01b0319166001600160a01b0392909216919091179055565b60008060006007848154811061344f57fe5b600091825260208220600f90910201915060048083015460ff169081111561347357fe5b14801561348a575080600101548160050154420311155b156137a057806001015481600501544203826002015483600301540302816134ae57fe5b60028301548354929091040192507f00000000000000000000000000000000000000000000000000000000000000006001600160a01b03908116911614156134f8578192506137a0565b805460009081906001600160a01b037f000000000000000000000000000000000000000000000000000000000000000081169116106135635782547f0000000000000000000000000000000000000000000000000000000000000000906001600160a01b0316613590565b82546001600160a01b03167f00000000000000000000000000000000000000000000000000000000000000005b9150915060007f0000000000000000000000000000000000000000000000000000000000000000838360405160200180836001600160a01b031660601b8152601401826001600160a01b031660601b8152601401925050506040516020818303038152906040528051906020012060405160200180806001600160f81b0319815250600101836001600160a01b031660601b8152601401828152602001807f96e8ac4277198ff8b6f785478aa9a39f403cb768dd02cbee326c3e7da348845f815250602001925050506040516020818303038152906040528051906020012060001c9050600080826001600160a01b0316630902f1ac6040518163ffffffff1660e01b815260040160606040518083038186803b1580156136b057600080fd5b505afa1580156136c4573d6000803e3d6000fd5b505050506040513d60608110156136da57600080fd5b50805160209091015187546dffffffffffffffffffffffffffff92831694509116915060009081906001600160a01b0388811691161461371b57828461371e565b83835b915091506000821180156137325750600081115b613783576040805162461bcd60e51b815260206004820152601e60248201527f436f756c64206e6f742063616c63756c617465207468652070726963652e0000604482015290519081900360640190fd5b8161378e8a83613aff565b8161379557fe5b049950505050505050505b50915091565b6000838511156137e75760405162461bcd60e51b815260040180806020018281038252603c8152602001806141a4603c913960400191505060405180910390fd5b604080516323b872dd60e01b81523360048201523060248201526044810186905290516001600160a01b038816916323b872dd9160648083019260209291908290030181600087803b15801561383c57600080fd5b505af1158015613850573d6000803e3d6000fd5b505050506040513d602081101561386657600080fd5b50516138a35760405162461bcd60e51b815260040180806020018281038252603d815260200180613fbb603d913960400191505060405180910390fd5b4287116138e15760405162461bcd60e51b81526004018080602001828103825260258152602001806143056025913960400191505060405180910390fd5b5060078054600181018255600091909152600f81027fa66cc928b5edb82af9bd49922954155ab7b0942694bea4ce44661d9a8736c688810180546001600160a01b0389166001600160a01b031991821617825542808b037fa66cc928b5edb82af9bd49922954155ab7b0942694bea4ce44661d9a8736c6898501557fa66cc928b5edb82af9bd49922954155ab7b0942694bea4ce44661d9a8736c68a84018990557fa66cc928b5edb82af9bd49922954155ab7b0942694bea4ce44661d9a8736c68b84018890557fa66cc928b5edb82af9bd49922954155ab7b0942694bea4ce44661d9a8736c68d8401557fa66cc928b5edb82af9bd49922954155ab7b0942694bea4ce44661d9a8736c68e83018054909116331790557fa66cc928b5edb82af9bd49922954155ab7b0942694bea4ce44661d9a8736c68f909101859055604080516020808252810185905283917f61606860eb6c87306811e2695215385101daab53bd6ab4e9f9049aead9363c7d91879187919081908101848480828437600083820152604051601f909101601f19169092018290039550909350505050a28054604080516001600160a01b0390921682524260208301528051339285927ff3efa663e8763e3719e2bdc58b7fdc03d43b6fcec97b7bcf371e6a4ea870448892918290030190a3509695505050505050565b60008060078381548110613ae457fe5b60009182526020909120600f90910201600d01549392505050565b600082613b0e57506000610eae565b82820282848281613b1b57fe5b0414613b2957600019613b2b565b805b949350505050565b600082820183811015613b2957600019613b2b565b600082821115613b5a57506000610eae565b50808203610eae565b60008083831115613b7957508290506000613b81565b508190508083035b9250929050565b6000828152600860205260408120546007805491929183908110613ba857fe5b600091825260208220600f909102016004818101805460ff19169091179055600e810185905560088101805460078301805490859055939091559092509084613d0b57600a8301546040516002909304926001600160a01b03909116906108fc8415029084906000818181858888f1505050600b8501546040516001600160a01b0390911692506108fc851502915084906000818181858888f15050855460068701546040805163a9059cbb60e01b81526001600160a01b03928316600482015260248101889052905191909216945063a9059cbb9350604480830193506020928290030181600087803b158015613c9f57600080fd5b505af1158015613cb3573d6000803e3d6000fd5b505050506040513d6020811015613cc957600080fd5b5051613d065760405162461bcd60e51b81526004018080602001828103825260278152602001806141536027913960400191505060405180910390fd5b613ee8565b6001851415613dfe57600a8301546040516001600160a01b03909116906108fc8415029084906000818181858888f150508554600a8701546040805163a9059cbb60e01b81526001600160a01b03928316600482015260248101889052905191909216945063a9059cbb9350604480830193506020928290030181600087803b158015613d9757600080fd5b505af1158015613dab573d6000803e3d6000fd5b505050506040513d6020811015613dc157600080fd5b5051613d065760405162461bcd60e51b81526004018080602001828103825260288152602001806141086028913960400191505060405180910390fd5b600b8301546040516001600160a01b03909116906108fc8415029084906000818181858888f15050855460068701546040805163a9059cbb60e01b81526001600160a01b03928316600482015260248101889052905191909216945063a9059cbb9350604480830193506020928290030181600087803b158015613e8157600080fd5b505af1158015613e95573d6000803e3d6000fd5b505050506040513d6020811015613eab57600080fd5b5051613ee85760405162461bcd60e51b81526004018080602001828103825260278152602001806141536027913960400191505060405180910390fd5b60408051426020820152818152600f818301526e191a5cdc1d5d194b5cd95d1d1b1959608a1b6060820152905185917f5850eca3b971056e7a311e04b06c359c0aceec8e422e4e015301e136efbd888a919081900360800190a2505050505050565b6040518060600160405280600390602082028036833750919291505056fe46756e64696e67206d757374206265206d6164652077697468696e207468652061707065616c20706572696f642e54686520746f6b656e207472616e736665722077617320756e7375636365737366756c2e52657175657374657220646f6573206e6f74206861766520656e6f75676820746f6b656e7320746f20636f76657220746865206d61782070726963652e54686520646973707574652068617320616c7265616479206265656e207265736f6c7665642e546865207461736b20697320656974686572206e6f742061737369676e6564206f72207472616e736c6174696f6e2068617320616c7265616479206265656e207375626d69747465642e4d7573742062652063616c6c6564206279207468652061726269747261746f722e546865206c6f736572206d7573742070617920647572696e67207468652066697273742068616c66206f66207468652061707065616c20706572696f642e43616e2774207375626d6974207472616e736c6174696f6e20746f20746865207461736b2074686174207761736e27742061737369676e656420746f20796f752e436f756c64206e6f74207472616e7366657220746f6b656e7320746f207472616e736c61746f722e54686520726576696577207068617365206861736e277420706173736564207965742e436f756c64206e6f74207472616e7366657220746f6b656e7320746f207265717565737465722e4e6f7420656e6f7567682045544820746f20636f766572206368616c6c656e6765206465706f7369742e546865206d696e696d616c2070726963652073686f756c64206265206c657373207468616e206f7220657175616c20746f206d61782070726963652e4f6e6c7920676f7665726e6f7220697320616c6c6f77656420746f20706572666f726d20746869732e43616e2774207265696d62757273652069662074686520646561646c696e65206861736e277420706173736564207965742e436f756c64206e6f74207472616e7366657220746f6b656e7320746f20746865207265717565737465722e5461736b2068617320616c7265616479206265656e2061737369676e6564206f72207265696d6275727365642e43616e2774207265696d6275727365206966207472616e736c6174696f6e20776173207375626d69747465642e546865207265766965772070686173652068617320616c7265616479207061737365642e41707065616c206665652068617320616c7265616479206265656e20706169642e54686520646561646c696e652073686f756c6420626520696e20746865206675747572652e526563697069656e74206d7573742062652065697468657220746865207472616e736c61746f72206f72206368616c6c656e6765722e546865207461736b206d757374206e6f7420616c7265616479206265207265736f6c7665642e4e6f7420656e6f7567682045544820746f20726561636820746865207265717569726564206465706f7369742076616c75652ea26469706673582212206f9beb661cea5829eaed6dd342a9f832665be9f40e71a6dfe81d1e67248f045064736f6c63430007040033",
  "devdoc": {
    "events": {
      "AppealContribution(uint256,uint8,address,uint256)": {
        "details": "To be emitted when someone contributes to the appeal process.",
        "params": {
          "_amount": "The amount contributed.",
          "_contributor": "The address of the contributor.",
          "_party": "The party which received the contribution.",
          "_taskID": "The ID of the respective task."
        }
      },
      "HasPaidAppealFee(uint256,uint8)": {
        "details": "To be emitted when the appeal fees of one of the parties are fully funded.",
        "params": {
          "_party": "The party that is fully funded.",
          "_taskID": "The ID of the respective task."
        }
      },
      "TaskAssigned(uint256,address,uint256,uint256)": {
        "details": "To be emitted when a translator assigns the task to himself.",
        "params": {
          "_price": "The task price at the moment it was assigned.",
          "_taskID": "The ID of the assigned task.",
          "_timestamp": "When the task was assigned.",
          "_translator": "The address that was assigned to the task."
        }
      },
      "TaskCreated(uint256,address,address,uint256)": {
        "details": "To be emitted when the new task is created.",
        "params": {
          "_requester": "The address that created the task.",
          "_taskID": "The ID of the newly created task.",
          "_timestamp": "When the task was created.",
          "_token": "The token that task uses."
        }
      },
      "TaskResolved(uint256,string,uint256)": {
        "details": "To be emitted when a task is resolved, either by the translation being accepted, the requester being reimbursed or a dispute being settled.",
        "params": {
          "_reason": "Short description of what caused the task to be solved. One of: 'translation-accepted' | 'requester-reimbursed' | 'dispute-settled'",
          "_taskID": "The ID of the respective task.",
          "_timestamp": "When the task was resolved."
        }
      },
      "TranslationChallenged(uint256,address,uint256)": {
        "details": "To be emitted when a translation is challenged.",
        "params": {
          "_challenger": "The address of the challenger.",
          "_taskID": "The ID of the respective task.",
          "_timestamp": "When the task was challenged."
        }
      },
      "TranslationSubmitted(uint256,address,string,uint256)": {
        "details": "To be emitted when a translation is submitted.",
        "params": {
          "_taskID": "The ID of the respective task.",
          "_timestamp": "When the translation was submitted.",
          "_translatedText": "A URI to the translated text.",
          "_translator": "The address that performed the translation."
        }
      }
    },
    "kind": "dev",
    "methods": {
      "acceptTranslation(uint256)": {
        "details": "Pays the translator for completed task if no one challenged the translation during review period.",
        "params": {
          "_taskID": "The ID of the task."
        }
      },
      "amountWithdrawable(uint256,address)": {
        "details": "Returns the sum of withdrawable wei from appeal rounds. This function is O(n), where n is the number of rounds of the task. This could exceed the gas limit, therefore this function should only be used for interface display and not by other contracts.",
        "params": {
          "_beneficiary": "The contributor for which to query.",
          "_taskID": "The ID of the associated task."
        },
        "returns": {
          "total": "The total amount of wei available to withdraw."
        }
      },
      "assignTask(uint256)": {
        "details": "Assigns a specific task to the sender. Requires a translator's deposit in wei.",
        "params": {
          "_taskID": "The ID of the task."
        }
      },
      "batchRoundWithdraw(address,uint256,uint256,uint256)": {
        "details": "Withdraws contributions of multiple appeal rounds at once. This function is O(n) where n is the number of rounds. This could exceed the gas limit, therefore this function should be used only as a utility and not be relied upon by other contracts.",
        "params": {
          "_beneficiary": "The address that made contributions.",
          "_count": "The number of rounds to iterate. If set to 0 or a value larger than the number of rounds, iterates until the last round.",
          "_cursor": "The round from where to start withdrawing.",
          "_taskID": "The ID of the associated task."
        }
      },
      "challengeTranslation(uint256,string)": {
        "details": "Challenges the translation of a specific task. Requires challenger's deposit in wei.",
        "params": {
          "_evidence": "A link to evidence using its URI. Ignored if not provided.",
          "_taskID": "The ID of the task."
        }
      },
      "changeGovernor(address)": {
        "details": "Changes the governor of this contract.",
        "params": {
          "_governor": "A new governor."
        }
      },
      "changeLoserStakeMultiplier(uint256)": {
        "details": "Changes the percentage of arbitration fees that must be paid as a fee stake by the party that lost the previous round.",
        "params": {
          "_loserStakeMultiplier": "A new value of the multiplier of the appeal cost that the party that lost the previous round has to pay. In basis points."
        }
      },
      "changeReviewTimeout(uint256)": {
        "details": "Changes the time allocated for review phase.",
        "params": {
          "_reviewTimeout": "A new value of the time allotted for reviewing a translation. In seconds."
        }
      },
      "changeSharedStakeMultiplier(uint256)": {
        "details": "Changes the percentage of arbitration fees that must be paid by parties as a fee stake if there was no winner and loser in the previous round.",
        "params": {
          "_sharedStakeMultiplier": "A new value of the multiplier of the appeal cost in case when there is no winner/loser in previous round. In basis point."
        }
      },
      "changeTranslationMultiplier(uint256)": {
        "details": "Changes the multiplier for translator's deposit.",
        "params": {
          "_translationMultiplier": "A new value of the multiplier for calculating translator's deposit. In basis points."
        }
      },
      "changeWinnerStakeMultiplier(uint256)": {
        "details": "Changes the percentage of arbitration fees that must be paid as a fee stake by the party that won the previous round.",
        "params": {
          "_winnerStakeMultiplier": "A new value of the multiplier of the appeal cost that the winner of the previous round has to pay. In basis points."
        }
      },
      "constructor": {
        "details": "Constructor.",
        "params": {
          "_WETH": "Address of the WETH token contract.",
          "_arbitrator": "The arbitrator of the contract.",
          "_arbitratorExtraData": "Extra data for the arbitrator.",
          "_loserStakeMultiplier": "Multiplier of the appeal cost that the loser has to pay for a round. In basis points.",
          "_reviewTimeout": "Time in seconds during which a translation can be challenged.",
          "_sharedStakeMultiplier": "Multiplier of the appeal cost that submitter must pay for a round when there is no winner/loser in the previous round. In basis points.",
          "_translationMultiplier": "Multiplier for calculating translator's deposit. In basis points.",
          "_uniswapFactory": "Address of the UniswapPair factory contract.",
          "_winnerStakeMultiplier": "Multiplier of the appeal cost that the winner has to pay for a round. In basis points."
        }
      },
      "createTask(uint256,address,uint256,uint256,string)": {
        "details": "Creates a task based on provided details. Requires a value of maximal price to be deposited.",
        "params": {
          "_deadline": "The deadline for the translation to be completed.",
          "_maxPrice": "A maximal price of the translation. This value should be deposited by the requester.",
          "_metaEvidence": "A URI of meta-evidence object for task submission.",
          "_minPrice": "A minimal price of the translation.",
          "_token": "The token that will be paid for the completion of the task."
        },
        "returns": {
          "taskID": "The ID of the created task."
        }
      },
      "fundAppeal(uint256,uint8)": {
        "details": "Takes up to the total amount required to fund a side of an appeal. Reimburses the rest. Creates an appeal if all sides are fully funded.",
        "params": {
          "_side": "The party that pays the appeal fee.",
          "_taskID": "The ID of challenged task."
        }
      },
      "getChallengeValue(uint256)": {
        "details": "Gets the deposit required for challenging the translation.",
        "params": {
          "_taskID": "The ID of the task."
        },
        "returns": {
          "deposit": "The challengers's deposit."
        }
      },
      "getContributions(uint256,uint256,address)": {
        "details": "Gets the contributions made by a party for a given round of task's appeal.",
        "params": {
          "_contributor": "The address of the contributor.",
          "_round": "The position of the round.",
          "_taskID": "The ID of the task."
        },
        "returns": {
          "contributions": "The contributions."
        }
      },
      "getDepositValue(uint256)": {
        "details": "Gets the deposit required for self-assigning the task.",
        "params": {
          "_taskID": "The ID of the task."
        },
        "returns": {
          "deposit": "The translator's deposit."
        }
      },
      "getNumberOfRounds(uint256)": {
        "details": "Gets the number of rounds of the specific task.",
        "params": {
          "_taskID": "The ID of the task."
        },
        "returns": {
          "_0": "The number of rounds."
        }
      },
      "getRoundInfo(uint256,uint256)": {
        "details": "Gets the information on a round of a task.",
        "params": {
          "_round": "The round to be queried.",
          "_taskID": "The ID of the task."
        },
        "returns": {
          "feeRewards": "The amount of fees that will be available as rewards for the winner.",
          "hasPaid": "Whether or not a given party has paid the full fees for the round.",
          "paidFees": "The amount paid by each party in the round."
        }
      },
      "getTaskCount()": {
        "details": "Gets the total number of created tasks.",
        "returns": {
          "_0": "The number of created tasks."
        }
      },
      "getTaskEquivalentPrices(uint256)": {
        "details": "Gets the current price of a specified task and the equivalent value in ETH.  Returns 0 if the task can no longer be assigned.",
        "params": {
          "_taskID": "The ID of the task."
        },
        "returns": {
          "priceETH": "The equivalent price of the task in ETH.",
          "priceToken": "The price of the task."
        }
      },
      "getTaskParties(uint256)": {
        "details": "Gets the addresses of parties of a specified task.",
        "params": {
          "_taskID": "The ID of the task."
        },
        "returns": {
          "parties": "The addresses of translator and challenger as [ZERO_ADDRESS, translator, challenger]."
        }
      },
      "getTaskPrice(uint256)": {
        "details": "Gets the current price of a specified task. Returns 0 if the task can no longer be assigned.",
        "params": {
          "_taskID": "The ID of the task."
        },
        "returns": {
          "price": "The price of the task."
        }
      },
      "reimburseRequester(uint256)": {
        "details": "Reimburses the requester if no one picked the task or the translator failed to submit the translation before deadline.",
        "params": {
          "_taskID": "The ID of the task."
        }
      },
      "rule(uint256,uint256)": {
        "details": "Gives a ruling for a dispute. Can only be called by the arbitrator.  The purpose of this function is to ensure that the address calling it has the right to rule on the contract and to invert the ruling in the case a party loses from lack of appeal fees funding.",
        "params": {
          "_disputeID": "ID of the dispute in the Arbitrator contract.",
          "_ruling": "Ruling given by the arbitrator. Note that 0 is reserved for \"Refuse to arbitrate\"."
        }
      },
      "submitEvidence(uint256,string)": {
        "details": "Submit a reference to evidence. EVENT.",
        "params": {
          "_evidence": "A link to evidence using its URI.",
          "_taskID": "A task evidence is submitted for."
        }
      },
      "submitTranslation(uint256,string)": {
        "details": "Submits translated text for a specific task.",
        "params": {
          "_taskID": "The ID of the task.",
          "_translation": "A URI to the translated text."
        }
      },
      "withdrawFeesAndRewards(address,uint256,uint256)": {
        "details": "Witdraws contributions of appeal rounds. Reimburses contributions if no disputes were raised. If a dispute was raised, sends the fee stake rewards and reimbursements proportional to the contributions made to the winner of a dispute.",
        "params": {
          "_beneficiary": "The address that made contributions.",
          "_round": "The round from which to withdraw.",
          "_taskID": "The ID of the associated task."
        }
      }
    },
    "title": "LinguoToken  Linguo is a decentralized platform where anyone can submit a document for translation and have it translated by freelancers.  It has no platform fees and disputes about translation quality are handled by Kleros jurors.  This version of the contract is made for ERC-20 tokens support.  NOTE: This contract trusts that the Arbitrator is honest and will not reenter or modify its costs during a call.  The arbitrator must support appeal period.  Also note that this contract trusts that the tokens will not allow the recipients to block the transfers.",
    "version": 1
  },
  "userdoc": {
    "kind": "user",
    "methods": {},
    "version": 1
  },
  "storageLayout": {
    "storage": [
      {
        "astId": 3961,
        "contract": "contracts/0.7.x/LinguoToken.sol:LinguoToken",
        "label": "governor",
        "offset": 0,
        "slot": "0",
        "type": "t_address"
      },
      {
        "astId": 3965,
        "contract": "contracts/0.7.x/LinguoToken.sol:LinguoToken",
        "label": "arbitratorExtraData",
        "offset": 0,
        "slot": "1",
        "type": "t_bytes_storage"
      },
      {
        "astId": 3967,
        "contract": "contracts/0.7.x/LinguoToken.sol:LinguoToken",
        "label": "reviewTimeout",
        "offset": 0,
        "slot": "2",
        "type": "t_uint256"
      },
      {
        "astId": 3969,
        "contract": "contracts/0.7.x/LinguoToken.sol:LinguoToken",
        "label": "translationMultiplier",
        "offset": 0,
        "slot": "3",
        "type": "t_uint256"
      },
      {
        "astId": 3971,
        "contract": "contracts/0.7.x/LinguoToken.sol:LinguoToken",
        "label": "sharedStakeMultiplier",
        "offset": 0,
        "slot": "4",
        "type": "t_uint256"
      },
      {
        "astId": 3973,
        "contract": "contracts/0.7.x/LinguoToken.sol:LinguoToken",
        "label": "winnerStakeMultiplier",
        "offset": 0,
        "slot": "5",
        "type": "t_uint256"
      },
      {
        "astId": 3975,
        "contract": "contracts/0.7.x/LinguoToken.sol:LinguoToken",
        "label": "loserStakeMultiplier",
        "offset": 0,
        "slot": "6",
        "type": "t_uint256"
      },
      {
        "astId": 3978,
        "contract": "contracts/0.7.x/LinguoToken.sol:LinguoToken",
        "label": "tasks",
        "offset": 0,
        "slot": "7",
        "type": "t_array(t_struct(Task)3936_storage)dyn_storage"
      },
      {
        "astId": 3982,
        "contract": "contracts/0.7.x/LinguoToken.sol:LinguoToken",
        "label": "disputeIDtoTaskID",
        "offset": 0,
        "slot": "8",
        "type": "t_mapping(t_uint256,t_uint256)"
      }
    ],
    "types": {
      "t_address": {
        "encoding": "inplace",
        "label": "address",
        "numberOfBytes": "20"
      },
      "t_address_payable": {
        "encoding": "inplace",
        "label": "address payable",
        "numberOfBytes": "20"
      },
      "t_array(t_address_payable)3_storage": {
        "base": "t_address_payable",
        "encoding": "inplace",
        "label": "address payable[3]",
        "numberOfBytes": "96"
      },
      "t_array(t_bool)3_storage": {
        "base": "t_bool",
        "encoding": "inplace",
        "label": "bool[3]",
        "numberOfBytes": "32"
      },
      "t_array(t_struct(Round)3953_storage)dyn_storage": {
        "base": "t_struct(Round)3953_storage",
        "encoding": "dynamic_array",
        "label": "struct LinguoToken.Round[]",
        "numberOfBytes": "32"
      },
      "t_array(t_struct(Task)3936_storage)dyn_storage": {
        "base": "t_struct(Task)3936_storage",
        "encoding": "dynamic_array",
        "label": "struct LinguoToken.Task[]",
        "numberOfBytes": "32"
      },
      "t_array(t_uint256)3_storage": {
        "base": "t_uint256",
        "encoding": "inplace",
        "label": "uint256[3]",
        "numberOfBytes": "96"
      },
      "t_bool": {
        "encoding": "inplace",
        "label": "bool",
        "numberOfBytes": "1"
      },
      "t_bytes_storage": {
        "encoding": "bytes",
        "label": "bytes",
        "numberOfBytes": "32"
      },
      "t_contract(IERC20)1098": {
        "encoding": "inplace",
        "label": "contract IERC20",
        "numberOfBytes": "20"
      },
      "t_enum(Status)3902": {
        "encoding": "inplace",
        "label": "enum LinguoToken.Status",
        "numberOfBytes": "1"
      },
      "t_mapping(t_address,t_array(t_uint256)3_storage)": {
        "encoding": "mapping",
        "key": "t_address",
        "label": "mapping(address => uint256[3])",
        "numberOfBytes": "32",
        "value": "t_array(t_uint256)3_storage"
      },
      "t_mapping(t_uint256,t_uint256)": {
        "encoding": "mapping",
        "key": "t_uint256",
        "label": "mapping(uint256 => uint256)",
        "numberOfBytes": "32",
        "value": "t_uint256"
      },
      "t_struct(Round)3953_storage": {
        "encoding": "inplace",
        "label": "struct LinguoToken.Round",
        "members": [
          {
            "astId": 3940,
            "contract": "contracts/0.7.x/LinguoToken.sol:LinguoToken",
            "label": "paidFees",
            "offset": 0,
            "slot": "0",
            "type": "t_array(t_uint256)3_storage"
          },
          {
            "astId": 3944,
            "contract": "contracts/0.7.x/LinguoToken.sol:LinguoToken",
            "label": "hasPaid",
            "offset": 0,
            "slot": "3",
            "type": "t_array(t_bool)3_storage"
          },
          {
            "astId": 3946,
            "contract": "contracts/0.7.x/LinguoToken.sol:LinguoToken",
            "label": "feeRewards",
            "offset": 0,
            "slot": "4",
            "type": "t_uint256"
          },
          {
            "astId": 3952,
            "contract": "contracts/0.7.x/LinguoToken.sol:LinguoToken",
            "label": "contributions",
            "offset": 0,
            "slot": "5",
            "type": "t_mapping(t_address,t_array(t_uint256)3_storage)"
          }
        ],
        "numberOfBytes": "192"
      },
      "t_struct(Task)3936_storage": {
        "encoding": "inplace",
        "label": "struct LinguoToken.Task",
        "members": [
          {
            "astId": 3908,
            "contract": "contracts/0.7.x/LinguoToken.sol:LinguoToken",
            "label": "token",
            "offset": 0,
            "slot": "0",
            "type": "t_contract(IERC20)1098"
          },
          {
            "astId": 3910,
            "contract": "contracts/0.7.x/LinguoToken.sol:LinguoToken",
            "label": "submissionTimeout",
            "offset": 0,
            "slot": "1",
            "type": "t_uint256"
          },
          {
            "astId": 3912,
            "contract": "contracts/0.7.x/LinguoToken.sol:LinguoToken",
            "label": "minPrice",
            "offset": 0,
            "slot": "2",
            "type": "t_uint256"
          },
          {
            "astId": 3914,
            "contract": "contracts/0.7.x/LinguoToken.sol:LinguoToken",
            "label": "maxPrice",
            "offset": 0,
            "slot": "3",
            "type": "t_uint256"
          },
          {
            "astId": 3916,
            "contract": "contracts/0.7.x/LinguoToken.sol:LinguoToken",
            "label": "status",
            "offset": 0,
            "slot": "4",
            "type": "t_enum(Status)3902"
          },
          {
            "astId": 3918,
            "contract": "contracts/0.7.x/LinguoToken.sol:LinguoToken",
            "label": "lastInteraction",
            "offset": 0,
            "slot": "5",
            "type": "t_uint256"
          },
          {
            "astId": 3920,
            "contract": "contracts/0.7.x/LinguoToken.sol:LinguoToken",
            "label": "requester",
            "offset": 0,
            "slot": "6",
            "type": "t_address_payable"
          },
          {
            "astId": 3922,
            "contract": "contracts/0.7.x/LinguoToken.sol:LinguoToken",
            "label": "requesterDeposit",
            "offset": 0,
            "slot": "7",
            "type": "t_uint256"
          },
          {
            "astId": 3924,
            "contract": "contracts/0.7.x/LinguoToken.sol:LinguoToken",
            "label": "sumDeposit",
            "offset": 0,
            "slot": "8",
            "type": "t_uint256"
          },
          {
            "astId": 3928,
            "contract": "contracts/0.7.x/LinguoToken.sol:LinguoToken",
            "label": "parties",
            "offset": 0,
            "slot": "9",
            "type": "t_array(t_address_payable)3_storage"
          },
          {
            "astId": 3930,
            "contract": "contracts/0.7.x/LinguoToken.sol:LinguoToken",
            "label": "disputeID",
            "offset": 0,
            "slot": "12",
            "type": "t_uint256"
          },
          {
            "astId": 3933,
            "contract": "contracts/0.7.x/LinguoToken.sol:LinguoToken",
            "label": "rounds",
            "offset": 0,
            "slot": "13",
            "type": "t_array(t_struct(Round)3953_storage)dyn_storage"
          },
          {
            "astId": 3935,
            "contract": "contracts/0.7.x/LinguoToken.sol:LinguoToken",
            "label": "ruling",
            "offset": 0,
            "slot": "14",
            "type": "t_uint256"
          }
        ],
        "numberOfBytes": "480"
      },
      "t_uint256": {
        "encoding": "inplace",
        "label": "uint256",
        "numberOfBytes": "32"
      }
    }
  },
  "gasEstimates": {
    "creation": {
      "codeDepositCost": "3478000",
      "executionCost": "infinite",
      "totalCost": "infinite"
    },
    "external": {
      "MULTIPLIER_DIVISOR()": "264",
      "VERSION_ID()": "340",
      "WETH()": "infinite",
      "acceptTranslation(uint256)": "infinite",
      "amountWithdrawable(uint256,address)": "infinite",
      "arbitrator()": "infinite",
      "arbitratorExtraData()": "infinite",
      "assignTask(uint256)": "infinite",
      "batchRoundWithdraw(address,uint256,uint256,uint256)": "infinite",
      "challengeTranslation(uint256,string)": "infinite",
      "changeGovernor(address)": "infinite",
      "changeLoserStakeMultiplier(uint256)": "infinite",
      "changeReviewTimeout(uint256)": "infinite",
      "changeSharedStakeMultiplier(uint256)": "infinite",
      "changeTranslationMultiplier(uint256)": "infinite",
      "changeWinnerStakeMultiplier(uint256)": "infinite",
      "createTask(uint256,address,uint256,uint256,string)": "infinite",
      "disputeIDtoTaskID(uint256)": "1153",
      "fundAppeal(uint256,uint8)": "infinite",
      "getChallengeValue(uint256)": "infinite",
      "getContributions(uint256,uint256,address)": "infinite",
      "getDepositValue(uint256)": "infinite",
      "getNumberOfRounds(uint256)": "2115",
      "getRoundInfo(uint256,uint256)": "infinite",
      "getTaskCount()": "1065",
      "getTaskEquivalentPrices(uint256)": "infinite",
      "getTaskParties(uint256)": "infinite",
      "getTaskPrice(uint256)": "7886",
      "governor()": "1128",
      "loserStakeMultiplier()": "1110",
      "reimburseRequester(uint256)": "infinite",
      "reviewTimeout()": "1109",
      "rule(uint256,uint256)": "infinite",
      "sharedStakeMultiplier()": "1110",
      "submitEvidence(uint256,string)": "infinite",
      "submitTranslation(uint256,string)": "infinite",
      "tasks(uint256)": "10484",
      "translationMultiplier()": "1088",
      "uniswapFactory()": "infinite",
      "winnerStakeMultiplier()": "1109",
      "withdrawFeesAndRewards(address,uint256,uint256)": "infinite"
    },
    "internal": {
      "calculateContribution(uint256,uint256)": "78",
      "executeRuling(uint256,uint256)": "infinite"
    }
  }
}