{
  "address": "0x152c7F0948Fd0B2741a934aA7bfceB41cd4b5bFD",
  "abi": [
    {
      "inputs": [
        {
          "internalType": "contract IArbitrator",
          "name": "_arbitrator",
          "type": "address"
        },
        {
          "internalType": "bytes",
          "name": "_arbitratorExtraData",
          "type": "bytes"
        },
        {
          "internalType": "uint256",
          "name": "_reviewTimeout",
          "type": "uint256"
        },
        {
          "internalType": "uint256",
          "name": "_translationMultiplier",
          "type": "uint256"
        },
        {
          "internalType": "uint256",
          "name": "_challengeMultiplier",
          "type": "uint256"
        },
        {
          "internalType": "uint256",
          "name": "_sharedStakeMultiplier",
          "type": "uint256"
        },
        {
          "internalType": "uint256",
          "name": "_winnerStakeMultiplier",
          "type": "uint256"
        },
        {
          "internalType": "uint256",
          "name": "_loserStakeMultiplier",
          "type": "uint256"
        }
      ],
      "stateMutability": "nonpayable",
      "type": "constructor"
    },
    {
      "anonymous": false,
      "inputs": [
        {
          "indexed": true,
          "internalType": "uint256",
          "name": "_taskID",
          "type": "uint256"
        },
        {
          "indexed": false,
          "internalType": "enum Linguo.Party",
          "name": "_party",
          "type": "uint8"
        },
        {
          "indexed": true,
          "internalType": "address",
          "name": "_contributor",
          "type": "address"
        },
        {
          "indexed": false,
          "internalType": "uint256",
          "name": "_amount",
          "type": "uint256"
        }
      ],
      "name": "AppealContribution",
      "type": "event"
    },
    {
      "anonymous": false,
      "inputs": [
        {
          "indexed": true,
          "internalType": "contract IArbitrator",
          "name": "_arbitrator",
          "type": "address"
        },
        {
          "indexed": true,
          "internalType": "uint256",
          "name": "_disputeID",
          "type": "uint256"
        },
        {
          "indexed": false,
          "internalType": "uint256",
          "name": "_metaEvidenceID",
          "type": "uint256"
        },
        {
          "indexed": false,
          "internalType": "uint256",
          "name": "_evidenceGroupID",
          "type": "uint256"
        }
      ],
      "name": "Dispute",
      "type": "event"
    },
    {
      "anonymous": false,
      "inputs": [
        {
          "indexed": true,
          "internalType": "contract IArbitrator",
          "name": "_arbitrator",
          "type": "address"
        },
        {
          "indexed": true,
          "internalType": "uint256",
          "name": "_evidenceGroupID",
          "type": "uint256"
        },
        {
          "indexed": true,
          "internalType": "address",
          "name": "_party",
          "type": "address"
        },
        {
          "indexed": false,
          "internalType": "string",
          "name": "_evidence",
          "type": "string"
        }
      ],
      "name": "Evidence",
      "type": "event"
    },
    {
      "anonymous": false,
      "inputs": [
        {
          "indexed": true,
          "internalType": "uint256",
          "name": "_taskID",
          "type": "uint256"
        },
        {
          "indexed": false,
          "internalType": "enum Linguo.Party",
          "name": "_party",
          "type": "uint8"
        }
      ],
      "name": "HasPaidAppealFee",
      "type": "event"
    },
    {
      "anonymous": false,
      "inputs": [
        {
          "indexed": true,
          "internalType": "uint256",
          "name": "_metaEvidenceID",
          "type": "uint256"
        },
        {
          "indexed": false,
          "internalType": "string",
          "name": "_evidence",
          "type": "string"
        }
      ],
      "name": "MetaEvidence",
      "type": "event"
    },
    {
      "anonymous": false,
      "inputs": [
        {
          "indexed": true,
          "internalType": "contract IArbitrator",
          "name": "_arbitrator",
          "type": "address"
        },
        {
          "indexed": true,
          "internalType": "uint256",
          "name": "_disputeID",
          "type": "uint256"
        },
        {
          "indexed": false,
          "internalType": "uint256",
          "name": "_ruling",
          "type": "uint256"
        }
      ],
      "name": "Ruling",
      "type": "event"
    },
    {
      "anonymous": false,
      "inputs": [
        {
          "indexed": true,
          "internalType": "uint256",
          "name": "_taskID",
          "type": "uint256"
        },
        {
          "indexed": true,
          "internalType": "address",
          "name": "_translator",
          "type": "address"
        },
        {
          "indexed": false,
          "internalType": "uint256",
          "name": "_price",
          "type": "uint256"
        },
        {
          "indexed": false,
          "internalType": "uint256",
          "name": "_timestamp",
          "type": "uint256"
        }
      ],
      "name": "TaskAssigned",
      "type": "event"
    },
    {
      "anonymous": false,
      "inputs": [
        {
          "indexed": true,
          "internalType": "uint256",
          "name": "_taskID",
          "type": "uint256"
        },
        {
          "indexed": true,
          "internalType": "address",
          "name": "_requester",
          "type": "address"
        },
        {
          "indexed": false,
          "internalType": "uint256",
          "name": "_timestamp",
          "type": "uint256"
        }
      ],
      "name": "TaskCreated",
      "type": "event"
    },
    {
      "anonymous": false,
      "inputs": [
        {
          "indexed": true,
          "internalType": "uint256",
          "name": "_taskID",
          "type": "uint256"
        },
        {
          "indexed": false,
          "internalType": "string",
          "name": "_reason",
          "type": "string"
        },
        {
          "indexed": false,
          "internalType": "uint256",
          "name": "_timestamp",
          "type": "uint256"
        }
      ],
      "name": "TaskResolved",
      "type": "event"
    },
    {
      "anonymous": false,
      "inputs": [
        {
          "indexed": true,
          "internalType": "uint256",
          "name": "_taskID",
          "type": "uint256"
        },
        {
          "indexed": true,
          "internalType": "address",
          "name": "_challenger",
          "type": "address"
        },
        {
          "indexed": false,
          "internalType": "uint256",
          "name": "_timestamp",
          "type": "uint256"
        }
      ],
      "name": "TranslationChallenged",
      "type": "event"
    },
    {
      "anonymous": false,
      "inputs": [
        {
          "indexed": true,
          "internalType": "uint256",
          "name": "_taskID",
          "type": "uint256"
        },
        {
          "indexed": true,
          "internalType": "address",
          "name": "_translator",
          "type": "address"
        },
        {
          "indexed": false,
          "internalType": "string",
          "name": "_translatedText",
          "type": "string"
        },
        {
          "indexed": false,
          "internalType": "uint256",
          "name": "_timestamp",
          "type": "uint256"
        }
      ],
      "name": "TranslationSubmitted",
      "type": "event"
    },
    {
      "inputs": [],
      "name": "MULTIPLIER_DIVISOR",
      "outputs": [
        {
          "internalType": "uint256",
          "name": "",
          "type": "uint256"
        }
      ],
      "stateMutability": "view",
      "type": "function"
    },
    {
      "inputs": [],
      "name": "VERSION_ID",
      "outputs": [
        {
          "internalType": "uint8",
          "name": "",
          "type": "uint8"
        }
      ],
      "stateMutability": "view",
      "type": "function"
    },
    {
      "inputs": [
        {
          "internalType": "uint256",
          "name": "_taskID",
          "type": "uint256"
        }
      ],
      "name": "acceptTranslation",
      "outputs": [],
      "stateMutability": "nonpayable",
      "type": "function"
    },
    {
      "inputs": [
        {
          "internalType": "uint256",
          "name": "_taskID",
          "type": "uint256"
        },
        {
          "internalType": "address payable",
          "name": "_beneficiary",
          "type": "address"
        }
      ],
      "name": "amountWithdrawable",
      "outputs": [
        {
          "internalType": "uint256",
          "name": "total",
          "type": "uint256"
        }
      ],
      "stateMutability": "view",
      "type": "function"
    },
    {
      "inputs": [],
      "name": "arbitrator",
      "outputs": [
        {
          "internalType": "contract IArbitrator",
          "name": "",
          "type": "address"
        }
      ],
      "stateMutability": "view",
      "type": "function"
    },
    {
      "inputs": [],
      "name": "arbitratorExtraData",
      "outputs": [
        {
          "internalType": "bytes",
          "name": "",
          "type": "bytes"
        }
      ],
      "stateMutability": "view",
      "type": "function"
    },
    {
      "inputs": [
        {
          "internalType": "uint256",
          "name": "_taskID",
          "type": "uint256"
        }
      ],
      "name": "assignTask",
      "outputs": [],
      "stateMutability": "payable",
      "type": "function"
    },
    {
      "inputs": [
        {
          "internalType": "address payable",
          "name": "_beneficiary",
          "type": "address"
        },
        {
          "internalType": "uint256",
          "name": "_taskID",
          "type": "uint256"
        },
        {
          "internalType": "uint256",
          "name": "_cursor",
          "type": "uint256"
        },
        {
          "internalType": "uint256",
          "name": "_count",
          "type": "uint256"
        }
      ],
      "name": "batchRoundWithdraw",
      "outputs": [],
      "stateMutability": "nonpayable",
      "type": "function"
    },
    {
      "inputs": [],
      "name": "challengeMultiplier",
      "outputs": [
        {
          "internalType": "uint256",
          "name": "",
          "type": "uint256"
        }
      ],
      "stateMutability": "view",
      "type": "function"
    },
    {
      "inputs": [
        {
          "internalType": "uint256",
          "name": "_taskID",
          "type": "uint256"
        },
        {
          "internalType": "string",
          "name": "_evidence",
          "type": "string"
        }
      ],
      "name": "challengeTranslation",
      "outputs": [],
      "stateMutability": "payable",
      "type": "function"
    },
    {
      "inputs": [
        {
          "internalType": "uint256",
          "name": "_challengeMultiplier",
          "type": "uint256"
        }
      ],
      "name": "changeChallengeMultiplier",
      "outputs": [],
      "stateMutability": "nonpayable",
      "type": "function"
    },
    {
      "inputs": [
        {
          "internalType": "address",
          "name": "_governor",
          "type": "address"
        }
      ],
      "name": "changeGovernor",
      "outputs": [],
      "stateMutability": "nonpayable",
      "type": "function"
    },
    {
      "inputs": [
        {
          "internalType": "uint256",
          "name": "_loserStakeMultiplier",
          "type": "uint256"
        }
      ],
      "name": "changeLoserStakeMultiplier",
      "outputs": [],
      "stateMutability": "nonpayable",
      "type": "function"
    },
    {
      "inputs": [
        {
          "internalType": "uint256",
          "name": "_reviewTimeout",
          "type": "uint256"
        }
      ],
      "name": "changeReviewTimeout",
      "outputs": [],
      "stateMutability": "nonpayable",
      "type": "function"
    },
    {
      "inputs": [
        {
          "internalType": "uint256",
          "name": "_sharedStakeMultiplier",
          "type": "uint256"
        }
      ],
      "name": "changeSharedStakeMultiplier",
      "outputs": [],
      "stateMutability": "nonpayable",
      "type": "function"
    },
    {
      "inputs": [
        {
          "internalType": "uint256",
          "name": "_translationMultiplier",
          "type": "uint256"
        }
      ],
      "name": "changeTranslationMultiplier",
      "outputs": [],
      "stateMutability": "nonpayable",
      "type": "function"
    },
    {
      "inputs": [
        {
          "internalType": "uint256",
          "name": "_winnerStakeMultiplier",
          "type": "uint256"
        }
      ],
      "name": "changeWinnerStakeMultiplier",
      "outputs": [],
      "stateMutability": "nonpayable",
      "type": "function"
    },
    {
      "inputs": [
        {
          "internalType": "uint256",
          "name": "_deadline",
          "type": "uint256"
        },
        {
          "internalType": "uint256",
          "name": "_minPrice",
          "type": "uint256"
        },
        {
          "internalType": "string",
          "name": "_metaEvidence",
          "type": "string"
        }
      ],
      "name": "createTask",
      "outputs": [
        {
          "internalType": "uint256",
          "name": "taskID",
          "type": "uint256"
        }
      ],
      "stateMutability": "payable",
      "type": "function"
    },
    {
      "inputs": [
        {
          "internalType": "uint256",
          "name": "",
          "type": "uint256"
        }
      ],
      "name": "disputeIDtoTaskID",
      "outputs": [
        {
          "internalType": "uint256",
          "name": "",
          "type": "uint256"
        }
      ],
      "stateMutability": "view",
      "type": "function"
    },
    {
      "inputs": [
        {
          "internalType": "uint256",
          "name": "_taskID",
          "type": "uint256"
        },
        {
          "internalType": "enum Linguo.Party",
          "name": "_side",
          "type": "uint8"
        }
      ],
      "name": "fundAppeal",
      "outputs": [],
      "stateMutability": "payable",
      "type": "function"
    },
    {
      "inputs": [
        {
          "internalType": "uint256",
          "name": "_taskID",
          "type": "uint256"
        }
      ],
      "name": "getChallengeValue",
      "outputs": [
        {
          "internalType": "uint256",
          "name": "deposit",
          "type": "uint256"
        }
      ],
      "stateMutability": "view",
      "type": "function"
    },
    {
      "inputs": [
        {
          "internalType": "uint256",
          "name": "_taskID",
          "type": "uint256"
        },
        {
          "internalType": "uint256",
          "name": "_round",
          "type": "uint256"
        },
        {
          "internalType": "address",
          "name": "_contributor",
          "type": "address"
        }
      ],
      "name": "getContributions",
      "outputs": [
        {
          "internalType": "uint256[3]",
          "name": "contributions",
          "type": "uint256[3]"
        }
      ],
      "stateMutability": "view",
      "type": "function"
    },
    {
      "inputs": [
        {
          "internalType": "uint256",
          "name": "_taskID",
          "type": "uint256"
        }
      ],
      "name": "getDepositValue",
      "outputs": [
        {
          "internalType": "uint256",
          "name": "deposit",
          "type": "uint256"
        }
      ],
      "stateMutability": "view",
      "type": "function"
    },
    {
      "inputs": [
        {
          "internalType": "uint256",
          "name": "_taskID",
          "type": "uint256"
        }
      ],
      "name": "getNumberOfRounds",
      "outputs": [
        {
          "internalType": "uint256",
          "name": "",
          "type": "uint256"
        }
      ],
      "stateMutability": "view",
      "type": "function"
    },
    {
      "inputs": [
        {
          "internalType": "uint256",
          "name": "_taskID",
          "type": "uint256"
        },
        {
          "internalType": "uint256",
          "name": "_round",
          "type": "uint256"
        }
      ],
      "name": "getRoundInfo",
      "outputs": [
        {
          "internalType": "uint256[3]",
          "name": "paidFees",
          "type": "uint256[3]"
        },
        {
          "internalType": "bool[3]",
          "name": "hasPaid",
          "type": "bool[3]"
        },
        {
          "internalType": "uint256",
          "name": "feeRewards",
          "type": "uint256"
        }
      ],
      "stateMutability": "view",
      "type": "function"
    },
    {
      "inputs": [],
      "name": "getTaskCount",
      "outputs": [
        {
          "internalType": "uint256",
          "name": "",
          "type": "uint256"
        }
      ],
      "stateMutability": "view",
      "type": "function"
    },
    {
      "inputs": [
        {
          "internalType": "uint256",
          "name": "_taskID",
          "type": "uint256"
        }
      ],
      "name": "getTaskParties",
      "outputs": [
        {
          "internalType": "address payable[3]",
          "name": "parties",
          "type": "address[3]"
        }
      ],
      "stateMutability": "view",
      "type": "function"
    },
    {
      "inputs": [
        {
          "internalType": "uint256",
          "name": "_taskID",
          "type": "uint256"
        }
      ],
      "name": "getTaskPrice",
      "outputs": [
        {
          "internalType": "uint256",
          "name": "price",
          "type": "uint256"
        }
      ],
      "stateMutability": "view",
      "type": "function"
    },
    {
      "inputs": [],
      "name": "governor",
      "outputs": [
        {
          "internalType": "address",
          "name": "",
          "type": "address"
        }
      ],
      "stateMutability": "view",
      "type": "function"
    },
    {
      "inputs": [],
      "name": "loserStakeMultiplier",
      "outputs": [
        {
          "internalType": "uint256",
          "name": "",
          "type": "uint256"
        }
      ],
      "stateMutability": "view",
      "type": "function"
    },
    {
      "inputs": [
        {
          "internalType": "uint256",
          "name": "_taskID",
          "type": "uint256"
        }
      ],
      "name": "reimburseRequester",
      "outputs": [],
      "stateMutability": "nonpayable",
      "type": "function"
    },
    {
      "inputs": [],
      "name": "reviewTimeout",
      "outputs": [
        {
          "internalType": "uint256",
          "name": "",
          "type": "uint256"
        }
      ],
      "stateMutability": "view",
      "type": "function"
    },
    {
      "inputs": [
        {
          "internalType": "uint256",
          "name": "_disputeID",
          "type": "uint256"
        },
        {
          "internalType": "uint256",
          "name": "_ruling",
          "type": "uint256"
        }
      ],
      "name": "rule",
      "outputs": [],
      "stateMutability": "nonpayable",
      "type": "function"
    },
    {
      "inputs": [],
      "name": "sharedStakeMultiplier",
      "outputs": [
        {
          "internalType": "uint256",
          "name": "",
          "type": "uint256"
        }
      ],
      "stateMutability": "view",
      "type": "function"
    },
    {
      "inputs": [
        {
          "internalType": "uint256",
          "name": "_taskID",
          "type": "uint256"
        },
        {
          "internalType": "string",
          "name": "_evidence",
          "type": "string"
        }
      ],
      "name": "submitEvidence",
      "outputs": [],
      "stateMutability": "nonpayable",
      "type": "function"
    },
    {
      "inputs": [
        {
          "internalType": "uint256",
          "name": "_taskID",
          "type": "uint256"
        },
        {
          "internalType": "string",
          "name": "_translation",
          "type": "string"
        }
      ],
      "name": "submitTranslation",
      "outputs": [],
      "stateMutability": "nonpayable",
      "type": "function"
    },
    {
      "inputs": [
        {
          "internalType": "uint256",
          "name": "",
          "type": "uint256"
        }
      ],
      "name": "tasks",
      "outputs": [
        {
          "internalType": "uint256",
          "name": "submissionTimeout",
          "type": "uint256"
        },
        {
          "internalType": "uint256",
          "name": "minPrice",
          "type": "uint256"
        },
        {
          "internalType": "uint256",
          "name": "maxPrice",
          "type": "uint256"
        },
        {
          "internalType": "enum Linguo.Status",
          "name": "status",
          "type": "uint8"
        },
        {
          "internalType": "uint256",
          "name": "lastInteraction",
          "type": "uint256"
        },
        {
          "internalType": "address payable",
          "name": "requester",
          "type": "address"
        },
        {
          "internalType": "uint256",
          "name": "requesterDeposit",
          "type": "uint256"
        },
        {
          "internalType": "uint256",
          "name": "sumDeposit",
          "type": "uint256"
        },
        {
          "internalType": "uint256",
          "name": "disputeID",
          "type": "uint256"
        },
        {
          "internalType": "uint256",
          "name": "ruling",
          "type": "uint256"
        }
      ],
      "stateMutability": "view",
      "type": "function"
    },
    {
      "inputs": [],
      "name": "translationMultiplier",
      "outputs": [
        {
          "internalType": "uint256",
          "name": "",
          "type": "uint256"
        }
      ],
      "stateMutability": "view",
      "type": "function"
    },
    {
      "inputs": [],
      "name": "winnerStakeMultiplier",
      "outputs": [
        {
          "internalType": "uint256",
          "name": "",
          "type": "uint256"
        }
      ],
      "stateMutability": "view",
      "type": "function"
    },
    {
      "inputs": [
        {
          "internalType": "address payable",
          "name": "_beneficiary",
          "type": "address"
        },
        {
          "internalType": "uint256",
          "name": "_taskID",
          "type": "uint256"
        },
        {
          "internalType": "uint256",
          "name": "_round",
          "type": "uint256"
        }
      ],
      "name": "withdrawFeesAndRewards",
      "outputs": [],
      "stateMutability": "nonpayable",
      "type": "function"
    }
  ],
  "transactionHash": "0x20a63b89458c5e21c8de79886c0e840d7af3588e0dba8186893da84d835c5056",
  "args": [
    "0xA8243657a1E6ad1AAf2b59c4CCDFE85fC6fD7a8B",
    "0x000000000000000000000000000000000000000000000000000000000000000e0000000000000000000000000000000000000000000000000000000000000001",
    "86400",
    "1000",
    "0",
    "10000",
    "5000",
    "20000"
  ],
  "linkedData": {
    "languagePair": "en|fr"
  },
  "solcInputHash": "0x8fe8225116477aec14e56dc8e50d1c283e91b68f69aeb80bfab6fb5b6a78f56e",
  "bytecode": "0x60a0604052600080546001600160a01b031916331790553480156200002357600080fd5b5060405162003d7f38038062003d7f83398181016040526101008110156200004a57600080fd5b8151602083018051604051929492938301929190846401000000008211156200007257600080fd5b9083019060208201858111156200008857600080fd5b8251640100000000811182820188101715620000a357600080fd5b82525081516020918201929091019080838360005b83811015620000d2578181015183820152602001620000b8565b50505050905090810190601f168015620001005780820380516001836020036101000a031916815260200191505b5060409081526020828101519183015160608085015160808087015160a088015160c090980151938c901b6001600160601b0319169091528951959850929650949193919290916200015991600191908a01906200017e565b50600295909555600393909355600491909155600555600655600755506200022a9050565b828054600181600116156101000203166002900490600052602060002090601f016020900481019282620001b6576000855562000201565b82601f10620001d157805160ff191683800117855562000201565b8280016001018555821562000201579182015b8281111562000201578251825591602001919060010190620001e4565b506200020f92915062000213565b5090565b5b808211156200020f576000815560010162000214565b60805160601c613af16200028e60003980610f2d5280611021528061110c52806112f5528061161052806117e652806119e55280611c415280611d285280612360528061259652806126d9528061278a5280612ac35280612e8e5250613af16000f3fe60806040526004361061023b5760003560e01c806382b350171161012e578063b5f3918b116100ab578063cc7b9d061161006f578063cc7b9d0614610a77578063d2dbe1d814610aa2578063d661dd3114610acc578063e4c0aaf414610ae1578063fc6f8f1614610b145761023b565b8063b5f3918b14610984578063b8573185146109ae578063c17a340e146109cb578063c36cd196146109e0578063c4e690df14610a625761023b565b806395c95522116100f257806395c955221461085a578063a6a7f0eb14610884578063a95c980514610906578063aba4ab7414610930578063adc7faba1461095a5761023b565b806382b3501714610613578063881f7c571461068d5780638a9bb02a146107025780638d9776721461079d57806392239dff146108305761023b565b8063244772e8116101bc57806368c76ffd1161018057806368c76ffd146105095780636cc6cde1146105805780636e8218aa146105955780636e99a23a146105bf5780637b943383146105fe5761023b565b8063244772e814610440578063311a6c561461046a578063339ac67c1461049a5780633a2dabfa146104df57806341658341146104f45761023b565b806312b3a2c01161020357806312b3a2c01461039c57806312ce3525146103c25780631972483a146103ec5780631d5120851461041657806320c58ca51461042b5761023b565b8063064ba1891461024057806309e24ad41461027c5780630c340a24146102a85780630c7ac7b6146102d95780631165542b14610363575b600080fd5b34801561024c57600080fd5b5061026a6004803603602081101561026357600080fd5b5035610b3e565b60408051918252519081900360200190f35b34801561028857600080fd5b506102a66004803603602081101561029f57600080fd5b5035610b50565b005b3480156102b457600080fd5b506102bd610b9e565b604080516001600160a01b039092168252519081900360200190f35b3480156102e557600080fd5b506102ee610bad565b6040805160208082528351818301528351919283929083019185019080838360005b83811015610328578181015183820152602001610310565b50505050905090810190601f1680156103555780820380516001836020036101000a031916815260200191505b509250505060405180910390f35b34801561036f57600080fd5b5061026a6004803603604081101561038657600080fd5b50803590602001356001600160a01b0316610c3a565b6102a6600480360360408110156103b257600080fd5b508035906020013560ff16610e4a565b3480156103ce57600080fd5b506102a6600480360360208110156103e557600080fd5b50356116fb565b3480156103f857600080fd5b5061026a6004803603602081101561040f57600080fd5b5035611749565b34801561042257600080fd5b5061026a6118e8565b34801561043757600080fd5b5061026a6118ee565b34801561044c57600080fd5b5061026a6004803603602081101561046357600080fd5b50356118f4565b34801561047657600080fd5b506102a66004803603604081101561048d57600080fd5b508035906020013561197b565b3480156104a657600080fd5b506102a6600480360360808110156104bd57600080fd5b506001600160a01b038135169060208101359060408101359060600135611b3e565b3480156104eb57600080fd5b5061026a611b97565b34801561050057600080fd5b5061026a611b9d565b34801561051557600080fd5b506105486004803603606081101561052c57600080fd5b50803590602081013590604001356001600160a01b0316611ba3565b6040518082606080838360005b8381101561056d578181015183820152602001610555565b5050505090500191505060405180910390f35b34801561058c57600080fd5b506102bd611c3f565b3480156105a157600080fd5b5061026a600480360360208110156105b857600080fd5b5035611c63565b3480156105cb57600080fd5b506102a6600480360360608110156105e257600080fd5b506001600160a01b038135169060208101359060400135611e1a565b34801561060a57600080fd5b5061026a6120cf565b61026a6004803603606081101561062957600080fd5b813591602081013591810190606081016040820135600160201b81111561064f57600080fd5b82018360208201111561066157600080fd5b803590602001918460018302840111600160201b8311171561068257600080fd5b5090925090506120d5565b6102a6600480360360408110156106a357600080fd5b81359190810190604081016020820135600160201b8111156106c457600080fd5b8201836020820111156106d657600080fd5b803590602001918460018302840111600160201b831117156106f757600080fd5b509092509050612302565b34801561070e57600080fd5b506107326004803603604081101561072557600080fd5b508035906020013561281c565b6040518084606080838360005b8381101561075757818101518382015260200161073f565b5050505090500183600360200280838360005b8381101561078257818101518382015260200161076a565b50505050905001828152602001935050505060405180910390f35b3480156107a957600080fd5b506107c7600480360360208110156107c057600080fd5b5035612917565b604051808b81526020018a81526020018981526020018860048111156107e957fe5b8152602001878152602001866001600160a01b031681526020018581526020018481526020018381526020018281526020019a505050505050505050505060405180910390f35b34801561083c57600080fd5b506102a66004803603602081101561085357600080fd5b5035612989565b34801561086657600080fd5b506105486004803603602081101561087d57600080fd5b50356129d7565b34801561089057600080fd5b506102a6600480360360408110156108a757600080fd5b81359190810190604081016020820135600160201b8111156108c857600080fd5b8201836020820111156108da57600080fd5b803590602001918460018302840111600160201b831117156108fb57600080fd5b509092509050612a43565b34801561091257600080fd5b506102a66004803603602081101561092957600080fd5b5035612b51565b34801561093c57600080fd5b506102a66004803603602081101561095357600080fd5b5035612b9f565b34801561096657600080fd5b506102a66004803603602081101561097d57600080fd5b5035612d0e565b34801561099057600080fd5b506102a6600480360360208110156109a757600080fd5b5035612d5c565b6102a6600480360360208110156109c457600080fd5b5035612daa565b3480156109d757600080fd5b5061026a6130db565b3480156109ec57600080fd5b506102a660048036036040811015610a0357600080fd5b81359190810190604081016020820135600160201b811115610a2457600080fd5b820183602082011115610a3657600080fd5b803590602001918460018302840111600160201b83111715610a5757600080fd5b5090925090506130e1565b348015610a6e57600080fd5b5061026a613286565b348015610a8357600080fd5b50610a8c61328c565b6040805160ff9092168252519081900360200190f35b348015610aae57600080fd5b506102a660048036036020811015610ac557600080fd5b5035613291565b348015610ad857600080fd5b5061026a613418565b348015610aed57600080fd5b506102a660048036036020811015610b0457600080fd5b50356001600160a01b031661341e565b348015610b2057600080fd5b5061026a60048036036020811015610b3757600080fd5b5035613489565b60096020526000908152604090205481565b6000546001600160a01b03163314610b995760405162461bcd60e51b815260040180806020018281038252602981526020018061388e6029913960400191505060405180910390fd5b600255565b6000546001600160a01b031681565b60018054604080516020600284861615610100026000190190941693909304601f81018490048402820184019092528181529291830182828015610c325780601f10610c0757610100808354040283529160200191610c32565b820191906000526020600020905b815481529060010190602001808311610c1557829003601f168201915b505050505081565b60008060088481548110610c4a57fe5b60009182526020909120600e9091020190506004600382015460ff166004811115610c7157fe5b14610c7c5750610e44565b60005b600c820154811015610e4157600082600c018281548110610c9c57fe5b60009182526020909120600360069092020190810154909150610100900460ff161580610cd45750600381015462010000900460ff16155b15610d09576001600160a01b038516600090815260058201602052604090206002810154600190910154019390930192610e38565b600d830154610dc357600080826001015411610d26576000610d62565b8160020154826001015460048401546001600160a01b038916600090815260058601602052604090209290910191600101540281610d6057fe5b045b9050600080836002015411610d78576000610db4565b8260020154836001015460048501546001600160a01b038a16600090815260058701602052604090209290910191600201540281610db257fe5b045b91909101949094019350610e38565b60008160000184600d015460038110610dd857fe5b015411610de6576000610e33565b600d830154819060038110610df757fe5b015460048201546001600160a01b03871660009081526005840160205260409020600d86015460038110610e2757fe5b01540281610e3157fe5b045b840193505b50600101610c7f565b50505b92915050565b600060088381548110610e5957fe5b60009182526020909120600e9091020190506001826002811115610e7957fe5b1480610e9057506002826002811115610e8e57fe5b145b610ecb5760405162461bcd60e51b81526004018080602001828103825260368152602001806139ec6036913960400191505060405180910390fd5b60038082015460ff166004811115610edf57fe5b14610f29576040805162461bcd60e51b81526020600482015260156024820152742737903234b9b83aba32903a379030b83832b0b61760591b604482015290519081900360640190fd5b60017f00000000000000000000000000000000000000000000000000000000000000006001600160a01b03166310f169e883600b01546040518263ffffffff1660e01b81526004018082815260200191505060206040518083038186803b158015610f9357600080fd5b505afa158015610fa7573d6000803e3d6000fd5b505050506040513d6020811015610fbd57600080fd5b50516002811115610fca57fe5b1461101c576040805162461bcd60e51b815260206004820152601a60248201527f44697370757465206973206e6f742061707065616c61626c652e000000000000604482015290519081900360640190fd5b6000807f00000000000000000000000000000000000000000000000000000000000000006001600160a01b031663afe15cfb84600b01546040518263ffffffff1660e01b815260040180828152602001915050604080518083038186803b15801561108657600080fd5b505afa15801561109a573d6000803e3d6000fd5b505050506040513d60408110156110b057600080fd5b50805160209091015190925090504282118015906110cd57508042105b6111085760405162461bcd60e51b815260040180806020018281038252602e815260200180613744602e913960400191505060405180910390fd5b60007f00000000000000000000000000000000000000000000000000000000000000006001600160a01b0316631c3db16d85600b01546040518263ffffffff1660e01b81526004018082815260200191505060206040518083038186803b15801561117257600080fd5b505afa158015611186573d6000803e3d6000fd5b505050506040513d602081101561119c57600080fd5b5051905060008560028111156111ae57fe5b8214156111be5750600654611216565b816111cc5750600554611216565b600284840304844203106112115760405162461bcd60e51b815260040180806020018281038252603e815260200180613803603e913960400191505060405180910390fd5b506007545b600c8501805460009190600019810190811061122e57fe5b906000526020600020906006020190508060030187600281111561124e57fe5b6003811061125857fe5b602081049091015460ff601f9092166101000a900416156112aa5760405162461bcd60e51b81526004018080602001828103825260218152602001806139a66021913960400191505060405180910390fd5b600b8601546040805163791f8b7360e11b8152600481018381526024820192835260018054600260001961010083851615020190911604604484018190526000956001600160a01b037f0000000000000000000000000000000000000000000000000000000000000000169563f23f16e695919492909160640190849080156113745780601f1061134957610100808354040283529160200191611374565b820191906000526020600020905b81548152906001019060200180831161135757829003601f168201915b5050935050505060206040518083038186803b15801561139357600080fd5b505afa1580156113a7573d6000803e3d6000fd5b505050506040513d60208110156113bd57600080fd5b5051905060006113e36127106113d384876134b4565b816113da57fe5b849190046134e8565b90506000806114143461140f878e60028111156113fc57fe5b6003811061140657fe5b015486906134fd565b613518565b3360009081526005880160205260409020919350915082908c600281111561143857fe5b6003811061144257fe5b018054909101905581858c600281111561145857fe5b6003811061146257fe5b018054909101905560405133908d907f22039e79a27860a038aece214124c8ecef12fdc1334feb8e8a157a0ae16a1db4908e908690808360028111156114a457fe5b81526020018281526020019250505060405180910390a382858c60028111156114c957fe5b600381106114d357fe5b015410611583576001856003018c60028111156114ec57fe5b600381106114f657fe5b602091828204019190066101000a81548160ff021916908315150217905550846000018b600281111561152557fe5b6003811061152f57fe5b015460048601805490910190556040518c907f213276d821d6205d87fa4f4658db4bf5a24a2323b0fdd8ffcd239c445f86a57b908d908082600281111561157257fe5b815260200191505060405180910390a25b604051339082156108fc029083906000818181858888f1505050506003860154610100900460ff16905080156115c35750600385015462010000900460ff165b156116ed57600b8a01546040805163093225f160e31b8152600481018381526024820192835260018054600260001961010083851615020190911604604484018190526001600160a01b037f000000000000000000000000000000000000000000000000000000000000000016956349912f88958b95919492909160640190849080156116915780601f1061166657610100808354040283529160200191611691565b820191906000526020600020905b81548152906001019060200180831161167457829003601f168201915b505093505050506000604051808303818588803b1580156116b157600080fd5b505af11580156116c5573d6000803e3d6000fd5b505050600c8c0180546001018155600052505060048501546116e790856134fd565b60048601555b505050505050505050505050565b6000546001600160a01b031633146117445760405162461bcd60e51b815260040180806020018281038252602981526020018061388e6029913960400191505060405180910390fd5b600555565b6000806008838154811061175957fe5b90600052602060002090600e0201905060025481600401544203118061179257506002600382015460ff16600481111561178f57fe5b14155b156117a6576001600160ff1b0391506118e2565b60405163f7434ea960e01b815260206004820190815260018054600260001961010083851615020190911604602484018190526000936001600160a01b037f0000000000000000000000000000000000000000000000000000000000000000169363f7434ea9939290918291604490910190849080156118675780601f1061183c57610100808354040283529160200191611867565b820191906000526020600020905b81548152906001019060200180831161184a57829003601f168201915b50509250505060206040518083038186803b15801561188557600080fd5b505afa158015611899573d6000803e3d6000fd5b505050506040513d60208110156118af57600080fd5b505160068301546004549192506118de91612710916118ce91906134b4565b816118d557fe5b839190046134e8565b9250505b50919050565b60075481565b60045481565b6000806008838154811061190457fe5b90600052602060002090600e02019050806000015481600401544203118061193f57506000600382015460ff16600481111561193c57fe5b14155b1561194d57600091506118e2565b8060000154816004015442038260010154836002015403028161196c57fe5b04816001015401915050919050565b600081600281111561198957fe5b600084815260096020526040812054600880549394509092839081106119ab57fe5b600091825260208220600c600e9092020190810180549193509060001981019081106119d357fe5b906000526020600020906006020190507f00000000000000000000000000000000000000000000000000000000000000006001600160a01b0316336001600160a01b031614611a535760405162461bcd60e51b81526004018080602001828103825260218152602001806137e26021913960400191505060405180910390fd5b60038083015460ff166004811115611a6757fe5b14611aa35760405162461bcd60e51b81526004018080602001828103825260268152602001806137726026913960400191505060405180910390fd5b600381015460ff61010090910416151560011415611ac45760019350611ae1565b600381015462010000900460ff16151560011415611ae157600293505b85337f394027a5fa6e098a1191094d1719d6929b9abc535fcc0c8f448d6a4e75622276866002811115611b1057fe5b60408051918252519081900360200190a3611b3686856002811115611b3157fe5b61353d565b505050505050565b600060088481548110611b4d57fe5b90600052602060002090600e0201905060008390505b600c82015481108015611b7f5750821580611b7f575082840181105b15611b3657611b8f868683611e1a565b600101611b63565b60035481565b60055481565b611bab613725565b600060088581548110611bba57fe5b90600052602060002090600e02019050600081600c018581548110611bdb57fe5b600091825260208083206001600160a01b03881684526005600690930201918201905260409182902082516060810190935290925060038282826020028201915b815481526020019060010190808311611c1c575050505050925050509392505050565b7f000000000000000000000000000000000000000000000000000000000000000081565b60008060088381548110611c7357fe5b90600052602060002090600e020190508060000154816004015442031180611cae57506000600382015460ff166004811115611cab57fe5b14155b15611cc2576001600160ff1b0391506118e2565b600081600001548260040154420383600101548460020154030281611ce357fe5b60018481015460405163f7434ea960e01b81526020600482019081528354600281861615610100026000190190911604602483018190529590940490910194506000937f00000000000000000000000000000000000000000000000000000000000000006001600160a01b03169363f7434ea99392909182916044019084908015611daf5780601f10611d8457610100808354040283529160200191611daf565b820191906000526020600020905b815481529060010190602001808311611d9257829003601f168201915b50509250505060206040518083038186803b158015611dcd57600080fd5b505afa158015611de1573d6000803e3d6000fd5b505050506040513d6020811015611df757600080fd5b5051600354909150611e1190612710906118ce90856134b4565b95945050505050565b600060088381548110611e2957fe5b90600052602060002090600e02019050600081600c018381548110611e4a57fe5b6000918252602090912060069091020190506004600383015460ff166004811115611e7157fe5b14611ec3576040805162461bcd60e51b815260206004820152601c60248201527f546865207461736b2073686f756c64206265207265736f6c7665642e00000000604482015290519081900360640190fd5b6003810154600090610100900460ff161580611eea5750600382015462010000900460ff16155b15611f2457506001600160a01b038516600090815260058201602052604081206002810180546001909201805490849055929055016120a2565b600d83015461200157600080836001015411611f41576000611f7d565b8260020154836001015460048501546001600160a01b038a16600090815260058701602052604090209290910191600101540281611f7b57fe5b045b9050600080846002015411611f93576000611fcf565b8360020154846001015460048601546001600160a01b038b16600090815260058801602052604090209290910191600201540281611fcd57fe5b045b6001600160a01b0389166000908152600586016020526040812060018101829055600201559190910191506120a29050565b60008260000184600d01546003811061201657fe5b015411612024576000612071565b600d83015482906003811061203557fe5b015460048301546001600160a01b03881660009081526005850160205260409020600d8601546003811061206557fe5b0154028161206f57fe5b045b6001600160a01b03871660009081526005840160205260408120600d86015492935090916003811061209f57fe5b01555b6040516001600160a01b0387169082156108fc029083906000818181858888f15050505050505050505050565b60065481565b6000833410156121165760405162461bcd60e51b8152600401808060200182810382526041815260200180613a486041913960600191505060405180910390fd5b4285116121545760405162461bcd60e51b81526004018080602001828103825260258152602001806139c76025913960400191505060405180910390fd5b506008805460018101825560009190915242808603600e83027ff3f7a9fe364faab93b216da50a3214154f22a0a2b415b23a84c8169e8b636ee381019182557ff3f7a9fe364faab93b216da50a3214154f22a0a2b415b23a84c8169e8b636ee48101879055347ff3f7a9fe364faab93b216da50a3214154f22a0a2b415b23a84c8169e8b636ee582018190557ff3f7a9fe364faab93b216da50a3214154f22a0a2b415b23a84c8169e8b636ee78201939093557ff3f7a9fe364faab93b216da50a3214154f22a0a2b415b23a84c8169e8b636ee8810180546001600160a01b031916331790557ff3f7a9fe364faab93b216da50a3214154f22a0a2b415b23a84c8169e8b636ee90191909155604080516020808252810185905283917f61606860eb6c87306811e2695215385101daab53bd6ab4e9f9049aead9363c7d91879187919081908101848480828437600083820152604051601f909101601f19169092018290039550909350505050a2604080514281529051339184917f6cf53aa7292e664152c2ea948c3b3c95d4b05c36daeb2626d0293473c4a4a1539181900360200190a350949350505050565b60006008848154811061231157fe5b6000918252602080832060405163f7434ea960e01b8152600481019283526001805460026000196101008385161502019091160460248301819052600e90950290920195506001600160a01b037f0000000000000000000000000000000000000000000000000000000000000000169363f7434ea993918291604490910190849080156123df5780601f106123b4576101008083540402835291602001916123df565b820191906000526020600020905b8154815290600101906020018083116123c257829003601f168201915b50509250505060206040518083038186803b1580156123fd57600080fd5b505afa158015612411573d6000803e3d6000fd5b505050506040513d602081101561242757600080fd5b5051600683015460045491925060009161244891612710916113d3916134b4565b90506002600384015460ff16600481111561245f57fe5b146124b1576040805162461bcd60e51b815260206004820181905260248201527f546865207461736b20697320696e207468652077726f6e67207374617475732e604482015290519081900360640190fd5b6002548360040154420311156124f85760405162461bcd60e51b81526004018080602001828103825260248152602001806139826024913960400191505060405180910390fd5b803410156125375760405162461bcd60e51b815260040180806020018281038252602a815260200180613864602a913960400191505060405180910390fd5b6003838101805460ff19169091179055600a830180546001600160a01b031916331790556040805163c13517e160e01b8152600260048201818152602483019384526001805460001981831615610100020116839004604485018190527f00000000000000000000000000000000000000000000000000000000000000006001600160a01b03169563c13517e195899594926064909101908490801561261e5780601f106125f35761010080835404028352916020019161261e565b820191906000526020600020905b81548152906001019060200180831161260157829003601f168201915b505093505050506020604051808303818588803b15801561263e57600080fd5b505af1158015612652573d6000803e3d6000fd5b50505050506040513d602081101561266957600080fd5b5051600b84018190556000908152600960205260408120879055600c840180546001018155905260078301546126ab9083906126a590846134e8565b906134fd565b60078401556040513482900390339082156108fc029083906000818181858888f193505050505083600b01547f00000000000000000000000000000000000000000000000000000000000000006001600160a01b03167f74baab670a4015ab2f1b467c5252a96141a2573f2908e58a92081e80d3cfde3d898a604051808381526020018281526020019250505060405180910390a3604080514281529051339189917f6f0bb1c54bb0ad8822894f45a3837ab62e23e77d25c5881ab57e1c6a99f7e0b59181900360200190a3841561281357336001600160a01b0316877f00000000000000000000000000000000000000000000000000000000000000006001600160a01b03167fdccf2f8b2cc26eafcd61905cba744cff4b81d14740725f6376390dc6298a6a3c898960405180806020018281038252848482818152602001925080828437600083820152604051601f909101601f19169092018290039550909350505050a45b50505050505050565b612824613725565b61282c613725565b6000806008868154811061283c57fe5b90600052602060002090600e02019050600081600c01868154811061285d57fe5b9060005260206000209060060201905080600001816003018260040154826003806020026040519081016040528092919082600380156128b2576020028201915b81548152602001906001019080831161289e575b5050604080516060810191829052949750869350600392509050826000855b825461010083900a900460ff1615158152602060019283018181049485019490930390920291018084116128d15790505050505050915094509450945050509250925092565b6008818154811061292757600080fd5b60009182526020909120600e9091020180546001820154600283015460038401546004850154600586015460068701546007880154600b890154600d909901549799509597949660ff9094169592946001600160a01b0390921693909291908a565b6000546001600160a01b031633146129d25760405162461bcd60e51b815260040180806020018281038252602981526020018061388e6029913960400191505060405180910390fd5b600755565b6129df613725565b6000600883815481106129ee57fe5b60009182526020909120604080516060810191829052600e9093029091019250600883019060039082845b81546001600160a01b03168152600190910190602001808311612a19575050505050915050919050565b600060088481548110612a5257fe5b60009182526020909120600e9091020190506004600382015460ff166004811115612a7957fe5b1415612ab65760405162461bcd60e51b8152600401808060200182810382526026815260200180613a226026913960400191505060405180910390fd5b336001600160a01b0316847f00000000000000000000000000000000000000000000000000000000000000006001600160a01b03167fdccf2f8b2cc26eafcd61905cba744cff4b81d14740725f6376390dc6298a6a3c868660405180806020018281038252848482818152602001925080828437600083820152604051601f909101601f19169092018290039550909350505050a450505050565b6000546001600160a01b03163314612b9a5760405162461bcd60e51b815260040180806020018281038252602981526020018061388e6029913960400191505060405180910390fd5b600355565b600060088281548110612bae57fe5b60009182526020909120600e9091020190506002600382015460ff166004811115612bd557fe5b10612c115760405162461bcd60e51b815260040180806020018281038252602d815260200180613955602d913960400191505060405180910390fd5b80546004820154420311612c565760405162461bcd60e51b81526004018080602001828103825260328152602001806138f66032913960400191505060405180910390fd5b60038101805460ff1916600417905560078101546006820154600583015460405191909201916001600160a01b0316906108fc8315029083906000818181858888f150506000600686018190556007860155505060408051426020820152818152601481830152731c995c5d595cdd195c8b5c995a5b589d5c9cd95960621b606082015290518592507f5850eca3b971056e7a311e04b06c359c0aceec8e422e4e015301e136efbd888a9181900360800190a2505050565b6000546001600160a01b03163314612d575760405162461bcd60e51b815260040180806020018281038252602981526020018061388e6029913960400191505060405180910390fd5b600655565b6000546001600160a01b03163314612da55760405162461bcd60e51b815260040180806020018281038252602981526020018061388e6029913960400191505060405180910390fd5b600455565b600060088281548110612db957fe5b90600052602060002090600e020190508060000154816004015442031115612e28576040805162461bcd60e51b815260206004820181905260248201527f54686520646561646c696e652068617320616c7265616479207061737365642e604482015290519081900360640190fd5b600081600001548260040154420383600101548460020154030281612e4957fe5b60018481015460405163f7434ea960e01b81526020600482019081528354600281861615610100026000190190911604602483018190529590940490910194506000937f00000000000000000000000000000000000000000000000000000000000000006001600160a01b03169363f7434ea99392909182916044019084908015612f155780601f10612eea57610100808354040283529160200191612f15565b820191906000526020600020905b815481529060010190602001808311612ef857829003601f168201915b50509250505060206040518083038186803b158015612f3357600080fd5b505afa158015612f47573d6000803e3d6000fd5b505050506040513d6020811015612f5d57600080fd5b5051600354909150600090612f7a90612710906113d390866134b4565b90506000600385015460ff166004811115612f9157fe5b14612fcd5760405162461bcd60e51b815260040180806020018281038252602d815260200180613928602d913960400191505060405180910390fd5b8034101561300c5760405162461bcd60e51b8152600401808060200182810382526033815260200180613a896033913960400191505060405180910390fd5b6009840180546001600160a01b0319163317905560038401805460ff191660011790556002840154600585015460405191859003916001600160a01b0391909116906108fc8315029083906000818181858888f150505050600686018590555050600784018190556040513482900390339082156108fc029083906000818181858888f150506040805188815242602082015281513395508b94507f9c8de00bfaaca6ca425ca3047c87c81f398e79f7c15166f53dcb29782ef9da4293509081900390910190a3505050505050565b60085490565b6000600884815481106130f057fe5b60009182526020909120600e9091020190506001600382015460ff16600481111561311757fe5b146131535760405162461bcd60e51b815260040180806020018281038252604a815260200180613798604a913960600191505060405180910390fd5b80546004820154420311156131af576040805162461bcd60e51b815260206004820181905260248201527f54686520646561646c696e652068617320616c7265616479207061737365642e604482015290519081900360640190fd5b60088101600101546001600160a01b031633146131fd5760405162461bcd60e51b815260040180806020018281038252603f8152602001806138b7603f913960400191505060405180910390fd5b60038101805460ff1916600217905542600482018190556040805160208101839052818152908101849052339186917f81c1cc8daea412565717a44fb42a08dbcb5d73101f5473d062391293c947d26d9187918791908060608101858580828437600083820152604051601f909101601f1916909201829003965090945050505050a350505050565b60025481565b600081565b6000600882815481106132a057fe5b60009182526020909120600e9091020190506002600382015460ff1660048111156132c757fe5b14613319576040805162461bcd60e51b815260206004820181905260248201527f546865207461736b20697320696e207468652077726f6e67207374617475732e604482015290519081900360640190fd5b600254816004015442031161335f5760405162461bcd60e51b81526004018080602001828103825260238152602001806138416023913960400191505060405180910390fd5b60038101805460ff19166004179055600781015460068201540160088201600101546040516001600160a01b039091169082156108fc029083906000818181858888f150506000600686018190556007860155505060408051426020820152818152601481830152731d1c985b9cdb185d1a5bdb8b5858d8d95c1d195960621b606082015290518592507f5850eca3b971056e7a311e04b06c359c0aceec8e422e4e015301e136efbd888a9181900360800190a2505050565b61271081565b6000546001600160a01b031633146134675760405162461bcd60e51b815260040180806020018281038252602981526020018061388e6029913960400191505060405180910390fd5b600080546001600160a01b0319166001600160a01b0392909216919091179055565b6000806008838154811061349957fe5b60009182526020909120600e90910201600c01549392505050565b6000826134c357506000610e44565b828202828482816134d057fe5b04146134de576000196134e0565b805b949350505050565b6000828201838110156134de576000196134e0565b60008282111561350f57506000610e44565b50808203610e44565b6000808383111561352e57508290506000613536565b508190508083035b9250929050565b600082815260096020526040812054600880549192918390811061355d57fe5b6000918252602082206003600e90920201908101805460ff19166004179055600d810185905591508361363857600582015460068301546040516001600160a01b039092169181156108fc0291906000818181858888f193505050505060028260070154816135c857fe5b60098401546040519290910492506001600160a01b0316906108fc8315029083906000818181858888f1505050600884019150600290505b6003811061360a57fe5b01546040516001600160a01b039091169082156108fc029083906000818181858888f19350505050506136b6565b600184141561365857506007810154600682015401600882016001613600565b600582015460068301546040516001600160a01b039092169181156108fc0291906000818181858888f150505050600a83015460078401546040516001600160a01b03909216925080156108fc02916000818181858888f150505050505b600060068301819055600783015560408051426020820152818152600f818301526e191a5cdc1d5d194b5cd95d1d1b1959608a1b6060820152905184917f5850eca3b971056e7a311e04b06c359c0aceec8e422e4e015301e136efbd888a919081900360800190a25050505050565b6040518060600160405280600390602082028036833750919291505056fe46756e64696e67206d757374206265206d6164652077697468696e207468652061707065616c20706572696f642e54686520646973707574652068617320616c7265616479206265656e207265736f6c7665642e546865207461736b20697320656974686572206e6f742061737369676e6564206f72207472616e736c6174696f6e2068617320616c7265616479206265656e207375626d69747465642e4d7573742062652063616c6c6564206279207468652061726269747261746f722e546865206c6f736572206d7573742070617920647572696e67207468652066697273742068616c66206f66207468652061707065616c20706572696f642e54686520726576696577207068617365206861736e277420706173736564207965742e4e6f7420656e6f7567682045544820746f20636f766572206368616c6c656e6765206465706f7369742e4f6e6c7920676f7665726e6f7220697320616c6c6f77656420746f20706572666f726d20746869732e43616e2774207375626d6974207472616e736c6174696f6e20746f2061207461736b2074686174207761736e27742061737369676e656420746f20796f752e43616e2774207265696d62757273652069662074686520646561646c696e65206861736e277420706173736564207965742e5461736b2068617320616c7265616479206265656e2061737369676e6564206f72207265696d6275727365642e43616e2774207265696d6275727365206966207472616e736c6174696f6e20776173207375626d69747465642e546865207265766965772070686173652068617320616c7265616479207061737365642e41707065616c206665652068617320616c7265616479206265656e20706169642e54686520646561646c696e652073686f756c6420626520696e20746865206675747572652e526563697069656e74206d7573742062652065697468657220746865207472616e736c61746f72206f72206368616c6c656e6765722e546865207461736b206d757374206e6f7420616c7265616479206265207265736f6c7665642e4465706f73697465642076616c75652073686f756c642062652067726561746572207468616e206f7220657175616c20746f20746865206d696e2070726963652e4e6f7420656e6f7567682045544820746f20726561636820746865207265717569726564206465706f7369742076616c75652ea26469706673582212200355026530c842904281d8179738d531d21c525fd198a49677f78a139d0e500964736f6c63430007040033",
  "devdoc": {
    "details": "This contract trusts that the Arbitrator is honest and will not reenter or modify its costs during a call.  The arbitrator must support appeal periods.",
    "events": {
      "AppealContribution(uint256,uint8,address,uint256)": {
        "details": "To be emitted when someone contributes to the appeal process.",
        "params": {
          "_amount": "The amount contributed.",
          "_contributor": "The address of the contributor.",
          "_party": "The party which received the contribution.",
          "_taskID": "The ID of the respective task."
        }
      },
      "HasPaidAppealFee(uint256,uint8)": {
        "details": "To be emitted when the appeal fees of one of the parties are fully funded.",
        "params": {
          "_party": "The party that is fully funded.",
          "_taskID": "The ID of the respective task."
        }
      },
      "TaskAssigned(uint256,address,uint256,uint256)": {
        "details": "To be emitted when a translator assigns a task to himself.",
        "params": {
          "_price": "The task price at the moment it was assigned.",
          "_taskID": "The ID of the assigned task.",
          "_timestamp": "When the task was assigned.",
          "_translator": "The address that was assigned to the task."
        }
      },
      "TaskCreated(uint256,address,uint256)": {
        "details": "To be emitted when a new task is created.",
        "params": {
          "_requester": "The address that created the task.",
          "_taskID": "The ID of the newly created task.",
          "_timestamp": "When the task was created."
        }
      },
      "TaskResolved(uint256,string,uint256)": {
        "details": "To be emitted when a task is resolved, either by the translation being accepted, the requester being reimbursed or a dispute being settled.",
        "params": {
          "_reason": "Short description of what caused the task to be solved. One of: 'translation-accepted' | 'requester-reimbursed' | 'dispute-settled'",
          "_taskID": "The ID of the respective task.",
          "_timestamp": "When the task was resolved."
        }
      },
      "TranslationChallenged(uint256,address,uint256)": {
        "details": "To be emitted when a translation is challenged.",
        "params": {
          "_challenger": "The address of the challenger.",
          "_taskID": "The ID of the respective task.",
          "_timestamp": "When the task was challenged."
        }
      },
      "TranslationSubmitted(uint256,address,string,uint256)": {
        "details": "To be emitted when a translation is submitted.",
        "params": {
          "_taskID": "The ID of the respective task.",
          "_timestamp": "When the translation was submitted.",
          "_translatedText": "A URI to the translated text.",
          "_translator": "The address that performed the translation."
        }
      }
    },
    "kind": "dev",
    "methods": {
      "acceptTranslation(uint256)": {
        "details": "Pays the translator for completed task if no one challenged the translation during the review period.",
        "params": {
          "_taskID": "The ID of the task."
        }
      },
      "amountWithdrawable(uint256,address)": {
        "details": "Returns the sum of withdrawable wei from appeal rounds. This function is O(n), where n is the number of rounds of the task. This could exceed the gas limit, therefore this function should only be used for interface display and not by other contracts.",
        "params": {
          "_beneficiary": "The contributor for which to query.",
          "_taskID": "The ID of the associated task."
        },
        "returns": {
          "total": "The total amount of wei available to withdraw."
        }
      },
      "assignTask(uint256)": {
        "details": "Assigns a specific task to the sender. Requires a translator's deposit.  Note that the deposit should be a little higher than the required value because of the price increase during the time the transaction is mined. The surplus will be reimbursed.",
        "params": {
          "_taskID": "The ID of the task."
        }
      },
      "batchRoundWithdraw(address,uint256,uint256,uint256)": {
        "details": "Withdraws contributions of multiple appeal rounds at once. This function is O(n) where n is the number of rounds. This could exceed the gas limit, therefore this function should be used only as a utility and not be relied upon by other contracts.",
        "params": {
          "_beneficiary": "The address that made contributions.",
          "_count": "The number of rounds to iterate. If set to 0 or a value larger than the number of rounds, iterates until the last round.",
          "_cursor": "The round from where to start withdrawing.",
          "_taskID": "The ID of the associated task."
        }
      },
      "challengeTranslation(uint256,string)": {
        "details": "Challenges the translation of a specific task. Requires challenger's deposit.",
        "params": {
          "_evidence": "A link to evidence using its URI. Ignored if not provided.",
          "_taskID": "The ID of the task."
        }
      },
      "changeChallengeMultiplier(uint256)": {
        "details": "Changes the multiplier for challengers' deposit.",
        "params": {
          "_challengeMultiplier": "A new value of the multiplier for calculating challenger's deposit. In basis points."
        }
      },
      "changeGovernor(address)": {
        "details": "Changes the governor of this contract.",
        "params": {
          "_governor": "A new governor."
        }
      },
      "changeLoserStakeMultiplier(uint256)": {
        "details": "Changes the percentage of arbitration fees that must be paid as a fee stake by the party that lost the previous round.",
        "params": {
          "_loserStakeMultiplier": "A new value for the multiplier of the appeal cost that the party that lost the previous round has to pay. In basis points."
        }
      },
      "changeReviewTimeout(uint256)": {
        "details": "Changes the time allocated for the review phase.",
        "params": {
          "_reviewTimeout": "A new value of the time allotted for reviewing a translation. In seconds."
        }
      },
      "changeSharedStakeMultiplier(uint256)": {
        "details": "Changes the percentage of arbitration fees that must be paid by parties as a fee stake if there was no winner and loser in the previous round.",
        "params": {
          "_sharedStakeMultiplier": "A new value of the multiplier of the appeal cost in case where there was no winner/loser in previous round. In basis point."
        }
      },
      "changeTranslationMultiplier(uint256)": {
        "details": "Changes the multiplier for translators' deposit.",
        "params": {
          "_translationMultiplier": "A new value of the multiplier for calculating translator's deposit. In basis points."
        }
      },
      "changeWinnerStakeMultiplier(uint256)": {
        "details": "Changes the percentage of arbitration fees that must be paid as a fee stake by the party that won the previous round.",
        "params": {
          "_winnerStakeMultiplier": "A new value of the multiplier of the appeal cost that the winner of the previous round has to pay. In basis points."
        }
      },
      "constructor": {
        "details": "Constructor.",
        "params": {
          "_arbitrator": "The arbitrator of the contract.",
          "_arbitratorExtraData": "Extra data for the arbitrator.",
          "_challengeMultiplier": "Multiplier for calculating challenger's deposit. In basis points.",
          "_loserStakeMultiplier": "Multiplier of the appeal cost that the loser has to pay for a round. In basis points.",
          "_reviewTimeout": "Time in seconds during which a translation can be challenged.",
          "_sharedStakeMultiplier": "Multiplier of the appeal cost that submitter must pay for a round when there is no winner/loser in the previous round. In basis points.",
          "_translationMultiplier": "Multiplier for calculating translator's deposit. In basis points.",
          "_winnerStakeMultiplier": "Multiplier of the appeal cost that the winner has to pay for a round. In basis points."
        }
      },
      "createTask(uint256,uint256,string)": {
        "details": "Creates a task based on provided details. Requires a value of maximum price to be deposited.",
        "params": {
          "_deadline": "The deadline for the translation to be completed.",
          "_metaEvidence": "A URI of a meta-evidence object for task submission.",
          "_minPrice": "A minimum price of the translation. In wei."
        },
        "returns": {
          "taskID": "The ID of the created task."
        }
      },
      "fundAppeal(uint256,uint8)": {
        "details": "Takes up to the total amount required to fund a side of an appeal. Reimburses the rest. Creates an appeal if all sides are fully funded.",
        "params": {
          "_side": "The party that pays the appeal fee.",
          "_taskID": "The ID of challenged task."
        }
      },
      "getChallengeValue(uint256)": {
        "details": "Gets the deposit required for challenging the translation.",
        "params": {
          "_taskID": "The ID of the task."
        },
        "returns": {
          "deposit": "The challengers's deposit."
        }
      },
      "getContributions(uint256,uint256,address)": {
        "details": "Gets the contributions made by a party for a given round of appeal of a task.",
        "params": {
          "_contributor": "The address of the contributor.",
          "_round": "The position of the round.",
          "_taskID": "The ID of the task."
        },
        "returns": {
          "contributions": "The contributions."
        }
      },
      "getDepositValue(uint256)": {
        "details": "Gets the deposit required for self-assigning the task.",
        "params": {
          "_taskID": "The ID of the task."
        },
        "returns": {
          "deposit": "The translator's deposit."
        }
      },
      "getNumberOfRounds(uint256)": {
        "details": "Gets the number of rounds of the specific task.",
        "params": {
          "_taskID": "The ID of the task."
        },
        "returns": {
          "_0": "The number of rounds."
        }
      },
      "getRoundInfo(uint256,uint256)": {
        "details": "Gets the information on a round of a task.",
        "params": {
          "_round": "The round to be queried.",
          "_taskID": "The ID of the task."
        },
        "returns": {
          "feeRewards": "The amount of fees that will be available as rewards for the winner.",
          "hasPaid": "Whether or not a given party has paid the full fees for the round.",
          "paidFees": "The amount paid by each party in the round."
        }
      },
      "getTaskCount()": {
        "details": "Gets the total number of created tasks.",
        "returns": {
          "_0": "The number of created tasks."
        }
      },
      "getTaskParties(uint256)": {
        "details": "Gets the addresses of parties of a specified task.",
        "params": {
          "_taskID": "The ID of the task."
        },
        "returns": {
          "parties": "The addresses of translator and challenger as [ZERO_ADDRESS, translator, challenger]."
        }
      },
      "getTaskPrice(uint256)": {
        "details": "Gets the current price of a specified task.",
        "params": {
          "_taskID": "The ID of the task."
        },
        "returns": {
          "price": "The price of the task."
        }
      },
      "reimburseRequester(uint256)": {
        "details": "Reimburses the requester if no one picked the task or the translator failed to submit the translation before deadline.",
        "params": {
          "_taskID": "The ID of the task."
        }
      },
      "rule(uint256,uint256)": {
        "details": "Gives the ruling for a dispute. Can only be called by the arbitrator.  The purpose of this function is to ensure that the address calling it has the right to rule on the contract and to invert the ruling in the case a party loses from lack of appeal fees funding.",
        "params": {
          "_disputeID": "ID of the dispute in the Arbitrator contract.",
          "_ruling": "Ruling given by the arbitrator. Note that 0 is reserved for \"Refuse to arbitrate\"."
        }
      },
      "submitEvidence(uint256,string)": {
        "details": "Submit a reference to evidence. EVENT.",
        "params": {
          "_evidence": "A link to evidence using its URI.",
          "_taskID": "The ID of the task."
        }
      },
      "submitTranslation(uint256,string)": {
        "details": "Submits translated text for a specific task.",
        "params": {
          "_taskID": "The ID of the task.",
          "_translation": "A URI to the translated text."
        }
      },
      "withdrawFeesAndRewards(address,uint256,uint256)": {
        "details": "Withdraws contributions of appeal rounds. Reimburses contributions if no disputes were raised. If a dispute was raised, sends the fee stake rewards and reimbursements proportional to the contributions made to the winner of a dispute.",
        "params": {
          "_beneficiary": "The address that made contributions.",
          "_round": "The round from which to withdraw.",
          "_taskID": "The ID of the associated task."
        }
      }
    },
    "title": "Linguo",
    "version": 1
  },
  "userdoc": {
    "kind": "user",
    "methods": {},
    "notice": "Linguo is a decentralized platform where anyone can submit a document for translation and have it translated by freelancers.  It has no platform fees and disputes about translation quality are handled by Kleros jurors.",
    "version": 1
  },
  "storageLayout": {
    "storage": [
      {
        "astId": 1391,
        "contract": "contracts/0.7.x/Linguo.sol:Linguo",
        "label": "governor",
        "offset": 0,
        "slot": "0",
        "type": "t_address"
      },
      {
        "astId": 1395,
        "contract": "contracts/0.7.x/Linguo.sol:Linguo",
        "label": "arbitratorExtraData",
        "offset": 0,
        "slot": "1",
        "type": "t_bytes_storage"
      },
      {
        "astId": 1397,
        "contract": "contracts/0.7.x/Linguo.sol:Linguo",
        "label": "reviewTimeout",
        "offset": 0,
        "slot": "2",
        "type": "t_uint256"
      },
      {
        "astId": 1399,
        "contract": "contracts/0.7.x/Linguo.sol:Linguo",
        "label": "translationMultiplier",
        "offset": 0,
        "slot": "3",
        "type": "t_uint256"
      },
      {
        "astId": 1401,
        "contract": "contracts/0.7.x/Linguo.sol:Linguo",
        "label": "challengeMultiplier",
        "offset": 0,
        "slot": "4",
        "type": "t_uint256"
      },
      {
        "astId": 1403,
        "contract": "contracts/0.7.x/Linguo.sol:Linguo",
        "label": "sharedStakeMultiplier",
        "offset": 0,
        "slot": "5",
        "type": "t_uint256"
      },
      {
        "astId": 1405,
        "contract": "contracts/0.7.x/Linguo.sol:Linguo",
        "label": "winnerStakeMultiplier",
        "offset": 0,
        "slot": "6",
        "type": "t_uint256"
      },
      {
        "astId": 1407,
        "contract": "contracts/0.7.x/Linguo.sol:Linguo",
        "label": "loserStakeMultiplier",
        "offset": 0,
        "slot": "7",
        "type": "t_uint256"
      },
      {
        "astId": 1410,
        "contract": "contracts/0.7.x/Linguo.sol:Linguo",
        "label": "tasks",
        "offset": 0,
        "slot": "8",
        "type": "t_array(t_struct(Task)1370_storage)dyn_storage"
      },
      {
        "astId": 1414,
        "contract": "contracts/0.7.x/Linguo.sol:Linguo",
        "label": "disputeIDtoTaskID",
        "offset": 0,
        "slot": "9",
        "type": "t_mapping(t_uint256,t_uint256)"
      }
    ],
    "types": {
      "t_address": {
        "encoding": "inplace",
        "label": "address",
        "numberOfBytes": "20"
      },
      "t_address_payable": {
        "encoding": "inplace",
        "label": "address payable",
        "numberOfBytes": "20"
      },
      "t_array(t_address_payable)3_storage": {
        "base": "t_address_payable",
        "encoding": "inplace",
        "label": "address payable[3]",
        "numberOfBytes": "96"
      },
      "t_array(t_bool)3_storage": {
        "base": "t_bool",
        "encoding": "inplace",
        "label": "bool[3]",
        "numberOfBytes": "32"
      },
      "t_array(t_struct(Round)1387_storage)dyn_storage": {
        "base": "t_struct(Round)1387_storage",
        "encoding": "dynamic_array",
        "label": "struct Linguo.Round[]",
        "numberOfBytes": "32"
      },
      "t_array(t_struct(Task)1370_storage)dyn_storage": {
        "base": "t_struct(Task)1370_storage",
        "encoding": "dynamic_array",
        "label": "struct Linguo.Task[]",
        "numberOfBytes": "32"
      },
      "t_array(t_uint256)3_storage": {
        "base": "t_uint256",
        "encoding": "inplace",
        "label": "uint256[3]",
        "numberOfBytes": "96"
      },
      "t_bool": {
        "encoding": "inplace",
        "label": "bool",
        "numberOfBytes": "1"
      },
      "t_bytes_storage": {
        "encoding": "bytes",
        "label": "bytes",
        "numberOfBytes": "32"
      },
      "t_enum(Status)1338": {
        "encoding": "inplace",
        "label": "enum Linguo.Status",
        "numberOfBytes": "1"
      },
      "t_mapping(t_address,t_array(t_uint256)3_storage)": {
        "encoding": "mapping",
        "key": "t_address",
        "label": "mapping(address => uint256[3])",
        "numberOfBytes": "32",
        "value": "t_array(t_uint256)3_storage"
      },
      "t_mapping(t_uint256,t_uint256)": {
        "encoding": "mapping",
        "key": "t_uint256",
        "label": "mapping(uint256 => uint256)",
        "numberOfBytes": "32",
        "value": "t_uint256"
      },
      "t_struct(Round)1387_storage": {
        "encoding": "inplace",
        "label": "struct Linguo.Round",
        "members": [
          {
            "astId": 1374,
            "contract": "contracts/0.7.x/Linguo.sol:Linguo",
            "label": "paidFees",
            "offset": 0,
            "slot": "0",
            "type": "t_array(t_uint256)3_storage"
          },
          {
            "astId": 1378,
            "contract": "contracts/0.7.x/Linguo.sol:Linguo",
            "label": "hasPaid",
            "offset": 0,
            "slot": "3",
            "type": "t_array(t_bool)3_storage"
          },
          {
            "astId": 1380,
            "contract": "contracts/0.7.x/Linguo.sol:Linguo",
            "label": "feeRewards",
            "offset": 0,
            "slot": "4",
            "type": "t_uint256"
          },
          {
            "astId": 1386,
            "contract": "contracts/0.7.x/Linguo.sol:Linguo",
            "label": "contributions",
            "offset": 0,
            "slot": "5",
            "type": "t_mapping(t_address,t_array(t_uint256)3_storage)"
          }
        ],
        "numberOfBytes": "192"
      },
      "t_struct(Task)1370_storage": {
        "encoding": "inplace",
        "label": "struct Linguo.Task",
        "members": [
          {
            "astId": 1344,
            "contract": "contracts/0.7.x/Linguo.sol:Linguo",
            "label": "submissionTimeout",
            "offset": 0,
            "slot": "0",
            "type": "t_uint256"
          },
          {
            "astId": 1346,
            "contract": "contracts/0.7.x/Linguo.sol:Linguo",
            "label": "minPrice",
            "offset": 0,
            "slot": "1",
            "type": "t_uint256"
          },
          {
            "astId": 1348,
            "contract": "contracts/0.7.x/Linguo.sol:Linguo",
            "label": "maxPrice",
            "offset": 0,
            "slot": "2",
            "type": "t_uint256"
          },
          {
            "astId": 1350,
            "contract": "contracts/0.7.x/Linguo.sol:Linguo",
            "label": "status",
            "offset": 0,
            "slot": "3",
            "type": "t_enum(Status)1338"
          },
          {
            "astId": 1352,
            "contract": "contracts/0.7.x/Linguo.sol:Linguo",
            "label": "lastInteraction",
            "offset": 0,
            "slot": "4",
            "type": "t_uint256"
          },
          {
            "astId": 1354,
            "contract": "contracts/0.7.x/Linguo.sol:Linguo",
            "label": "requester",
            "offset": 0,
            "slot": "5",
            "type": "t_address_payable"
          },
          {
            "astId": 1356,
            "contract": "contracts/0.7.x/Linguo.sol:Linguo",
            "label": "requesterDeposit",
            "offset": 0,
            "slot": "6",
            "type": "t_uint256"
          },
          {
            "astId": 1358,
            "contract": "contracts/0.7.x/Linguo.sol:Linguo",
            "label": "sumDeposit",
            "offset": 0,
            "slot": "7",
            "type": "t_uint256"
          },
          {
            "astId": 1362,
            "contract": "contracts/0.7.x/Linguo.sol:Linguo",
            "label": "parties",
            "offset": 0,
            "slot": "8",
            "type": "t_array(t_address_payable)3_storage"
          },
          {
            "astId": 1364,
            "contract": "contracts/0.7.x/Linguo.sol:Linguo",
            "label": "disputeID",
            "offset": 0,
            "slot": "11",
            "type": "t_uint256"
          },
          {
            "astId": 1367,
            "contract": "contracts/0.7.x/Linguo.sol:Linguo",
            "label": "rounds",
            "offset": 0,
            "slot": "12",
            "type": "t_array(t_struct(Round)1387_storage)dyn_storage"
          },
          {
            "astId": 1369,
            "contract": "contracts/0.7.x/Linguo.sol:Linguo",
            "label": "ruling",
            "offset": 0,
            "slot": "13",
            "type": "t_uint256"
          }
        ],
        "numberOfBytes": "448"
      },
      "t_uint256": {
        "encoding": "inplace",
        "label": "uint256",
        "numberOfBytes": "32"
      }
    }
  },
  "gasEstimates": {
    "creation": {
      "codeDepositCost": "3017800",
      "executionCost": "infinite",
      "totalCost": "infinite"
    },
    "external": {
      "MULTIPLIER_DIVISOR()": "286",
      "VERSION_ID()": "251",
      "acceptTranslation(uint256)": "infinite",
      "amountWithdrawable(uint256,address)": "infinite",
      "arbitrator()": "infinite",
      "arbitratorExtraData()": "infinite",
      "assignTask(uint256)": "infinite",
      "batchRoundWithdraw(address,uint256,uint256,uint256)": "infinite",
      "challengeMultiplier()": "1132",
      "challengeTranslation(uint256,string)": "infinite",
      "changeChallengeMultiplier(uint256)": "infinite",
      "changeGovernor(address)": "infinite",
      "changeLoserStakeMultiplier(uint256)": "infinite",
      "changeReviewTimeout(uint256)": "infinite",
      "changeSharedStakeMultiplier(uint256)": "infinite",
      "changeTranslationMultiplier(uint256)": "infinite",
      "changeWinnerStakeMultiplier(uint256)": "infinite",
      "createTask(uint256,uint256,string)": "infinite",
      "disputeIDtoTaskID(uint256)": "1153",
      "fundAppeal(uint256,uint8)": "infinite",
      "getChallengeValue(uint256)": "infinite",
      "getContributions(uint256,uint256,address)": "infinite",
      "getDepositValue(uint256)": "infinite",
      "getNumberOfRounds(uint256)": "2093",
      "getRoundInfo(uint256,uint256)": "infinite",
      "getTaskCount()": "1087",
      "getTaskParties(uint256)": "infinite",
      "getTaskPrice(uint256)": "7795",
      "governor()": "1128",
      "loserStakeMultiplier()": "1110",
      "reimburseRequester(uint256)": "infinite",
      "reviewTimeout()": "1131",
      "rule(uint256,uint256)": "infinite",
      "sharedStakeMultiplier()": "1132",
      "submitEvidence(uint256,string)": "infinite",
      "submitTranslation(uint256,string)": "infinite",
      "tasks(uint256)": "9650",
      "translationMultiplier()": "1110",
      "winnerStakeMultiplier()": "1131",
      "withdrawFeesAndRewards(address,uint256,uint256)": "infinite"
    },
    "internal": {
      "calculateContribution(uint256,uint256)": "78",
      "executeRuling(uint256,uint256)": "infinite"
    }
  }
}