{
  "address": "0xA4cA48ffdA84D5808E4FC1CfcCdb57A1F2592C95",
  "abi": [
    {
      "inputs": [
        {
          "internalType": "contract IArbitrator",
          "name": "_arbitrator",
          "type": "address"
        },
        {
          "internalType": "bytes",
          "name": "_arbitratorExtraData",
          "type": "bytes"
        },
        {
          "internalType": "contract ERC20",
          "name": "_WETH",
          "type": "address"
        },
        {
          "internalType": "address",
          "name": "_uniswapFactory",
          "type": "address"
        },
        {
          "internalType": "uint256",
          "name": "_reviewTimeout",
          "type": "uint256"
        },
        {
          "internalType": "uint256",
          "name": "_translationMultiplier",
          "type": "uint256"
        },
        {
          "internalType": "uint256",
          "name": "_sharedStakeMultiplier",
          "type": "uint256"
        },
        {
          "internalType": "uint256",
          "name": "_winnerStakeMultiplier",
          "type": "uint256"
        },
        {
          "internalType": "uint256",
          "name": "_loserStakeMultiplier",
          "type": "uint256"
        }
      ],
      "stateMutability": "nonpayable",
      "type": "constructor"
    },
    {
      "anonymous": false,
      "inputs": [
        {
          "indexed": true,
          "internalType": "uint256",
          "name": "_taskID",
          "type": "uint256"
        },
        {
          "indexed": false,
          "internalType": "enum LinguoToken.Party",
          "name": "_party",
          "type": "uint8"
        },
        {
          "indexed": false,
          "internalType": "address",
          "name": "_contributor",
          "type": "address"
        },
        {
          "indexed": false,
          "internalType": "uint256",
          "name": "_amount",
          "type": "uint256"
        }
      ],
      "name": "AppealContribution",
      "type": "event"
    },
    {
      "anonymous": false,
      "inputs": [
        {
          "indexed": true,
          "internalType": "contract IArbitrator",
          "name": "_arbitrator",
          "type": "address"
        },
        {
          "indexed": true,
          "internalType": "uint256",
          "name": "_disputeID",
          "type": "uint256"
        },
        {
          "indexed": false,
          "internalType": "uint256",
          "name": "_metaEvidenceID",
          "type": "uint256"
        },
        {
          "indexed": false,
          "internalType": "uint256",
          "name": "_evidenceGroupID",
          "type": "uint256"
        }
      ],
      "name": "Dispute",
      "type": "event"
    },
    {
      "anonymous": false,
      "inputs": [
        {
          "indexed": true,
          "internalType": "contract IArbitrator",
          "name": "_arbitrator",
          "type": "address"
        },
        {
          "indexed": true,
          "internalType": "uint256",
          "name": "_evidenceGroupID",
          "type": "uint256"
        },
        {
          "indexed": true,
          "internalType": "address",
          "name": "_party",
          "type": "address"
        },
        {
          "indexed": false,
          "internalType": "string",
          "name": "_evidence",
          "type": "string"
        }
      ],
      "name": "Evidence",
      "type": "event"
    },
    {
      "anonymous": false,
      "inputs": [
        {
          "indexed": true,
          "internalType": "uint256",
          "name": "_taskID",
          "type": "uint256"
        },
        {
          "indexed": false,
          "internalType": "enum LinguoToken.Party",
          "name": "_party",
          "type": "uint8"
        }
      ],
      "name": "HasPaidAppealFee",
      "type": "event"
    },
    {
      "anonymous": false,
      "inputs": [
        {
          "indexed": true,
          "internalType": "uint256",
          "name": "_metaEvidenceID",
          "type": "uint256"
        },
        {
          "indexed": false,
          "internalType": "string",
          "name": "_evidence",
          "type": "string"
        }
      ],
      "name": "MetaEvidence",
      "type": "event"
    },
    {
      "anonymous": false,
      "inputs": [
        {
          "indexed": true,
          "internalType": "contract IArbitrator",
          "name": "_arbitrator",
          "type": "address"
        },
        {
          "indexed": true,
          "internalType": "uint256",
          "name": "_disputeID",
          "type": "uint256"
        },
        {
          "indexed": false,
          "internalType": "uint256",
          "name": "_ruling",
          "type": "uint256"
        }
      ],
      "name": "Ruling",
      "type": "event"
    },
    {
      "anonymous": false,
      "inputs": [
        {
          "indexed": true,
          "internalType": "uint256",
          "name": "_taskID",
          "type": "uint256"
        },
        {
          "indexed": true,
          "internalType": "address",
          "name": "_translator",
          "type": "address"
        },
        {
          "indexed": false,
          "internalType": "uint256",
          "name": "_price",
          "type": "uint256"
        },
        {
          "indexed": false,
          "internalType": "uint256",
          "name": "_timestamp",
          "type": "uint256"
        }
      ],
      "name": "TaskAssigned",
      "type": "event"
    },
    {
      "anonymous": false,
      "inputs": [
        {
          "indexed": true,
          "internalType": "uint256",
          "name": "_taskID",
          "type": "uint256"
        },
        {
          "indexed": true,
          "internalType": "address",
          "name": "_requester",
          "type": "address"
        },
        {
          "indexed": false,
          "internalType": "contract ERC20",
          "name": "_token",
          "type": "address"
        },
        {
          "indexed": false,
          "internalType": "uint256",
          "name": "_timestamp",
          "type": "uint256"
        }
      ],
      "name": "TaskCreated",
      "type": "event"
    },
    {
      "anonymous": false,
      "inputs": [
        {
          "indexed": true,
          "internalType": "uint256",
          "name": "_taskID",
          "type": "uint256"
        },
        {
          "indexed": false,
          "internalType": "string",
          "name": "_reason",
          "type": "string"
        },
        {
          "indexed": false,
          "internalType": "uint256",
          "name": "_timestamp",
          "type": "uint256"
        }
      ],
      "name": "TaskResolved",
      "type": "event"
    },
    {
      "anonymous": false,
      "inputs": [
        {
          "indexed": true,
          "internalType": "uint256",
          "name": "_taskID",
          "type": "uint256"
        },
        {
          "indexed": true,
          "internalType": "address",
          "name": "_challenger",
          "type": "address"
        },
        {
          "indexed": false,
          "internalType": "uint256",
          "name": "_timestamp",
          "type": "uint256"
        }
      ],
      "name": "TranslationChallenged",
      "type": "event"
    },
    {
      "anonymous": false,
      "inputs": [
        {
          "indexed": true,
          "internalType": "uint256",
          "name": "_taskID",
          "type": "uint256"
        },
        {
          "indexed": true,
          "internalType": "address",
          "name": "_translator",
          "type": "address"
        },
        {
          "indexed": false,
          "internalType": "string",
          "name": "_translatedText",
          "type": "string"
        },
        {
          "indexed": false,
          "internalType": "uint256",
          "name": "_timestamp",
          "type": "uint256"
        }
      ],
      "name": "TranslationSubmitted",
      "type": "event"
    },
    {
      "inputs": [],
      "name": "MULTIPLIER_DIVISOR",
      "outputs": [
        {
          "internalType": "uint256",
          "name": "",
          "type": "uint256"
        }
      ],
      "stateMutability": "view",
      "type": "function"
    },
    {
      "inputs": [],
      "name": "VERSION_ID",
      "outputs": [
        {
          "internalType": "uint8",
          "name": "",
          "type": "uint8"
        }
      ],
      "stateMutability": "view",
      "type": "function"
    },
    {
      "inputs": [],
      "name": "WETH",
      "outputs": [
        {
          "internalType": "contract ERC20",
          "name": "",
          "type": "address"
        }
      ],
      "stateMutability": "view",
      "type": "function"
    },
    {
      "inputs": [
        {
          "internalType": "uint256",
          "name": "_taskID",
          "type": "uint256"
        }
      ],
      "name": "acceptTranslation",
      "outputs": [],
      "stateMutability": "nonpayable",
      "type": "function"
    },
    {
      "inputs": [
        {
          "internalType": "uint256",
          "name": "_taskID",
          "type": "uint256"
        },
        {
          "internalType": "address",
          "name": "_beneficiary",
          "type": "address"
        }
      ],
      "name": "amountWithdrawable",
      "outputs": [
        {
          "internalType": "uint256",
          "name": "total",
          "type": "uint256"
        }
      ],
      "stateMutability": "view",
      "type": "function"
    },
    {
      "inputs": [],
      "name": "arbitrator",
      "outputs": [
        {
          "internalType": "contract IArbitrator",
          "name": "",
          "type": "address"
        }
      ],
      "stateMutability": "view",
      "type": "function"
    },
    {
      "inputs": [],
      "name": "arbitratorExtraData",
      "outputs": [
        {
          "internalType": "bytes",
          "name": "",
          "type": "bytes"
        }
      ],
      "stateMutability": "view",
      "type": "function"
    },
    {
      "inputs": [
        {
          "internalType": "uint256",
          "name": "_taskID",
          "type": "uint256"
        }
      ],
      "name": "assignTask",
      "outputs": [],
      "stateMutability": "payable",
      "type": "function"
    },
    {
      "inputs": [
        {
          "internalType": "address payable",
          "name": "_beneficiary",
          "type": "address"
        },
        {
          "internalType": "uint256",
          "name": "_taskID",
          "type": "uint256"
        },
        {
          "internalType": "uint256",
          "name": "_cursor",
          "type": "uint256"
        },
        {
          "internalType": "uint256",
          "name": "_count",
          "type": "uint256"
        }
      ],
      "name": "batchRoundWithdraw",
      "outputs": [],
      "stateMutability": "nonpayable",
      "type": "function"
    },
    {
      "inputs": [
        {
          "internalType": "uint256",
          "name": "_taskID",
          "type": "uint256"
        },
        {
          "internalType": "string",
          "name": "_evidence",
          "type": "string"
        }
      ],
      "name": "challengeTranslation",
      "outputs": [],
      "stateMutability": "payable",
      "type": "function"
    },
    {
      "inputs": [
        {
          "internalType": "address",
          "name": "_governor",
          "type": "address"
        }
      ],
      "name": "changeGovernor",
      "outputs": [],
      "stateMutability": "nonpayable",
      "type": "function"
    },
    {
      "inputs": [
        {
          "internalType": "uint256",
          "name": "_loserStakeMultiplier",
          "type": "uint256"
        }
      ],
      "name": "changeLoserStakeMultiplier",
      "outputs": [],
      "stateMutability": "nonpayable",
      "type": "function"
    },
    {
      "inputs": [
        {
          "internalType": "uint256",
          "name": "_reviewTimeout",
          "type": "uint256"
        }
      ],
      "name": "changeReviewTimeout",
      "outputs": [],
      "stateMutability": "nonpayable",
      "type": "function"
    },
    {
      "inputs": [
        {
          "internalType": "uint256",
          "name": "_sharedStakeMultiplier",
          "type": "uint256"
        }
      ],
      "name": "changeSharedStakeMultiplier",
      "outputs": [],
      "stateMutability": "nonpayable",
      "type": "function"
    },
    {
      "inputs": [
        {
          "internalType": "uint256",
          "name": "_translationMultiplier",
          "type": "uint256"
        }
      ],
      "name": "changeTranslationMultiplier",
      "outputs": [],
      "stateMutability": "nonpayable",
      "type": "function"
    },
    {
      "inputs": [
        {
          "internalType": "uint256",
          "name": "_winnerStakeMultiplier",
          "type": "uint256"
        }
      ],
      "name": "changeWinnerStakeMultiplier",
      "outputs": [],
      "stateMutability": "nonpayable",
      "type": "function"
    },
    {
      "inputs": [
        {
          "internalType": "uint256",
          "name": "_deadline",
          "type": "uint256"
        },
        {
          "internalType": "contract ERC20",
          "name": "_token",
          "type": "address"
        },
        {
          "internalType": "uint256",
          "name": "_minPrice",
          "type": "uint256"
        },
        {
          "internalType": "uint256",
          "name": "_maxPrice",
          "type": "uint256"
        },
        {
          "internalType": "string",
          "name": "_metaEvidence",
          "type": "string"
        }
      ],
      "name": "createTask",
      "outputs": [
        {
          "internalType": "uint256",
          "name": "taskID",
          "type": "uint256"
        }
      ],
      "stateMutability": "nonpayable",
      "type": "function"
    },
    {
      "inputs": [
        {
          "internalType": "uint256",
          "name": "",
          "type": "uint256"
        }
      ],
      "name": "disputeIDtoTaskID",
      "outputs": [
        {
          "internalType": "uint256",
          "name": "",
          "type": "uint256"
        }
      ],
      "stateMutability": "view",
      "type": "function"
    },
    {
      "inputs": [
        {
          "internalType": "uint256",
          "name": "_taskID",
          "type": "uint256"
        },
        {
          "internalType": "enum LinguoToken.Party",
          "name": "_side",
          "type": "uint8"
        }
      ],
      "name": "fundAppeal",
      "outputs": [],
      "stateMutability": "payable",
      "type": "function"
    },
    {
      "inputs": [
        {
          "internalType": "uint256",
          "name": "_taskID",
          "type": "uint256"
        }
      ],
      "name": "getChallengeValue",
      "outputs": [
        {
          "internalType": "uint256",
          "name": "deposit",
          "type": "uint256"
        }
      ],
      "stateMutability": "view",
      "type": "function"
    },
    {
      "inputs": [
        {
          "internalType": "uint256",
          "name": "_taskID",
          "type": "uint256"
        },
        {
          "internalType": "uint256",
          "name": "_round",
          "type": "uint256"
        },
        {
          "internalType": "address",
          "name": "_contributor",
          "type": "address"
        }
      ],
      "name": "getContributions",
      "outputs": [
        {
          "internalType": "uint256[3]",
          "name": "contributions",
          "type": "uint256[3]"
        }
      ],
      "stateMutability": "view",
      "type": "function"
    },
    {
      "inputs": [
        {
          "internalType": "uint256",
          "name": "_taskID",
          "type": "uint256"
        }
      ],
      "name": "getDepositValue",
      "outputs": [
        {
          "internalType": "uint256",
          "name": "deposit",
          "type": "uint256"
        }
      ],
      "stateMutability": "view",
      "type": "function"
    },
    {
      "inputs": [
        {
          "internalType": "uint256",
          "name": "_taskID",
          "type": "uint256"
        }
      ],
      "name": "getNumberOfRounds",
      "outputs": [
        {
          "internalType": "uint256",
          "name": "",
          "type": "uint256"
        }
      ],
      "stateMutability": "view",
      "type": "function"
    },
    {
      "inputs": [
        {
          "internalType": "uint256",
          "name": "_taskID",
          "type": "uint256"
        },
        {
          "internalType": "uint256",
          "name": "_round",
          "type": "uint256"
        }
      ],
      "name": "getRoundInfo",
      "outputs": [
        {
          "internalType": "uint256[3]",
          "name": "paidFees",
          "type": "uint256[3]"
        },
        {
          "internalType": "bool[3]",
          "name": "hasPaid",
          "type": "bool[3]"
        },
        {
          "internalType": "uint256",
          "name": "feeRewards",
          "type": "uint256"
        }
      ],
      "stateMutability": "view",
      "type": "function"
    },
    {
      "inputs": [],
      "name": "getTaskCount",
      "outputs": [
        {
          "internalType": "uint256",
          "name": "",
          "type": "uint256"
        }
      ],
      "stateMutability": "view",
      "type": "function"
    },
    {
      "inputs": [
        {
          "internalType": "uint256",
          "name": "_taskID",
          "type": "uint256"
        }
      ],
      "name": "getTaskParties",
      "outputs": [
        {
          "internalType": "address payable[3]",
          "name": "parties",
          "type": "address[3]"
        }
      ],
      "stateMutability": "view",
      "type": "function"
    },
    {
      "inputs": [
        {
          "internalType": "uint256",
          "name": "_taskID",
          "type": "uint256"
        }
      ],
      "name": "getTaskPrice",
      "outputs": [
        {
          "internalType": "uint256",
          "name": "price",
          "type": "uint256"
        }
      ],
      "stateMutability": "view",
      "type": "function"
    },
    {
      "inputs": [
        {
          "internalType": "uint256",
          "name": "_taskID",
          "type": "uint256"
        }
      ],
      "name": "getTaskPriceInETH",
      "outputs": [
        {
          "internalType": "uint256",
          "name": "priceETH",
          "type": "uint256"
        }
      ],
      "stateMutability": "view",
      "type": "function"
    },
    {
      "inputs": [],
      "name": "governor",
      "outputs": [
        {
          "internalType": "address",
          "name": "",
          "type": "address"
        }
      ],
      "stateMutability": "view",
      "type": "function"
    },
    {
      "inputs": [],
      "name": "loserStakeMultiplier",
      "outputs": [
        {
          "internalType": "uint256",
          "name": "",
          "type": "uint256"
        }
      ],
      "stateMutability": "view",
      "type": "function"
    },
    {
      "inputs": [
        {
          "internalType": "uint256",
          "name": "_taskID",
          "type": "uint256"
        }
      ],
      "name": "reimburseRequester",
      "outputs": [],
      "stateMutability": "nonpayable",
      "type": "function"
    },
    {
      "inputs": [],
      "name": "reviewTimeout",
      "outputs": [
        {
          "internalType": "uint256",
          "name": "",
          "type": "uint256"
        }
      ],
      "stateMutability": "view",
      "type": "function"
    },
    {
      "inputs": [
        {
          "internalType": "uint256",
          "name": "_disputeID",
          "type": "uint256"
        },
        {
          "internalType": "uint256",
          "name": "_ruling",
          "type": "uint256"
        }
      ],
      "name": "rule",
      "outputs": [],
      "stateMutability": "nonpayable",
      "type": "function"
    },
    {
      "inputs": [],
      "name": "sharedStakeMultiplier",
      "outputs": [
        {
          "internalType": "uint256",
          "name": "",
          "type": "uint256"
        }
      ],
      "stateMutability": "view",
      "type": "function"
    },
    {
      "inputs": [
        {
          "internalType": "uint256",
          "name": "_taskID",
          "type": "uint256"
        },
        {
          "internalType": "string",
          "name": "_evidence",
          "type": "string"
        }
      ],
      "name": "submitEvidence",
      "outputs": [],
      "stateMutability": "nonpayable",
      "type": "function"
    },
    {
      "inputs": [
        {
          "internalType": "uint256",
          "name": "_taskID",
          "type": "uint256"
        },
        {
          "internalType": "string",
          "name": "_translation",
          "type": "string"
        }
      ],
      "name": "submitTranslation",
      "outputs": [],
      "stateMutability": "nonpayable",
      "type": "function"
    },
    {
      "inputs": [
        {
          "internalType": "uint256",
          "name": "",
          "type": "uint256"
        }
      ],
      "name": "tasks",
      "outputs": [
        {
          "internalType": "contract ERC20",
          "name": "token",
          "type": "address"
        },
        {
          "internalType": "uint256",
          "name": "submissionTimeout",
          "type": "uint256"
        },
        {
          "internalType": "uint256",
          "name": "minPrice",
          "type": "uint256"
        },
        {
          "internalType": "uint256",
          "name": "maxPrice",
          "type": "uint256"
        },
        {
          "internalType": "enum LinguoToken.Status",
          "name": "status",
          "type": "uint8"
        },
        {
          "internalType": "uint256",
          "name": "lastInteraction",
          "type": "uint256"
        },
        {
          "internalType": "address payable",
          "name": "requester",
          "type": "address"
        },
        {
          "internalType": "uint256",
          "name": "requesterDeposit",
          "type": "uint256"
        },
        {
          "internalType": "uint256",
          "name": "sumDeposit",
          "type": "uint256"
        },
        {
          "internalType": "uint256",
          "name": "disputeID",
          "type": "uint256"
        },
        {
          "internalType": "uint256",
          "name": "ruling",
          "type": "uint256"
        }
      ],
      "stateMutability": "view",
      "type": "function"
    },
    {
      "inputs": [],
      "name": "translationMultiplier",
      "outputs": [
        {
          "internalType": "uint256",
          "name": "",
          "type": "uint256"
        }
      ],
      "stateMutability": "view",
      "type": "function"
    },
    {
      "inputs": [],
      "name": "uniswapFactory",
      "outputs": [
        {
          "internalType": "address",
          "name": "",
          "type": "address"
        }
      ],
      "stateMutability": "view",
      "type": "function"
    },
    {
      "inputs": [],
      "name": "winnerStakeMultiplier",
      "outputs": [
        {
          "internalType": "uint256",
          "name": "",
          "type": "uint256"
        }
      ],
      "stateMutability": "view",
      "type": "function"
    },
    {
      "inputs": [
        {
          "internalType": "address payable",
          "name": "_beneficiary",
          "type": "address"
        },
        {
          "internalType": "uint256",
          "name": "_taskID",
          "type": "uint256"
        },
        {
          "internalType": "uint256",
          "name": "_round",
          "type": "uint256"
        }
      ],
      "name": "withdrawFeesAndRewards",
      "outputs": [],
      "stateMutability": "nonpayable",
      "type": "function"
    }
  ],
  "transactionHash": "0x6a57d591119a1c57bc2de39126142ee880ea1691466c8faf3f441ab66e773fd6",
  "args": [
    "0xA8243657a1E6ad1AAf2b59c4CCDFE85fC6fD7a8B",
    "0x",
    "0xd0A1E359811322d97991E03f863a0C30C2cF029C",
    "0x5c69bee701ef814a2b6a3edd4b1652cb9cc5aa6f",
    "86400",
    "1000",
    "10000",
    "5000",
    "20000"
  ],
  "solcInputHash": "0x834fac1401dd18ec1a27b1c0cc86ab92685a0b2da971e9ef32ec80543cc7ffc6",
  "bytecode": "0x6080604052600280546001600160a01b031916331790553480156200002357600080fd5b506040516200427e3803806200427e833981016040819052620000469162000183565b600380546001600160a01b0319166001600160a01b038b161790558751620000769060049060208b0190620000c5565b50600080546001600160a01b039889166001600160a01b031991821617909155600180549790981696169590951790955560059290925560065560075560089190915560095550620002cc9050565b828054600181600116156101000203166002900490600052602060002090601f016020900481019282620000fd576000855562000148565b82601f106200011857805160ff191683800117855562000148565b8280016001018555821562000148579182015b82811115620001485782518255916020019190600101906200012b565b50620001569291506200015a565b5090565b5b808211156200015657600081556001016200015b565b80516200017e81620002b3565b919050565b60008060008060008060008060006101208a8c031215620001a2578485fd5b8951620001af81620002b3565b60208b810151919a50906001600160401b0380821115620001ce578788fd5b818d0191508d601f830112620001e2578788fd5b815181811115620001ef57fe5b604051601f8201601f19168101850183811182821017156200020d57fe5b80604052508181528f858386010111156200022657898afd5b8992505b818310156200024957838301850151818401860152918401916200022a565b818311156200025a57898583830101525b809c5050505050506200027060408b0162000171565b96506200028060608b0162000171565b955060808a0151945060a08a0151935060c08a0151925060e08a015191506101008a015190509295985092959850929598565b6001600160a01b0381168114620002c957600080fd5b50565b613fa280620002dc6000396000f3fe6080604052600436106102465760003560e01c8063881f7c5711610139578063adc7faba116100b6578063cc7b9d061161007a578063cc7b9d061461067d578063d2dbe1d81461069f578063d661dd31146106bf578063e4c0aaf4146106d4578063f0900d2f146106f4578063fc6f8f161461071457610246565b8063adc7faba14610600578063b857318514610620578063c17a340e14610633578063c36cd19614610648578063c4e690df1461066857610246565b806395c95522116100fd57806395c955221461055e578063a6a7f0eb1461058b578063a95c9805146105ab578063aba4ab74146105cb578063ad5c4648146105eb57610246565b8063881f7c57146104b05780638a9bb02a146104c35780638bdb2afa146104f25780638d9776721461050757806392239dff1461053e57610246565b8063311a6c56116101c757806368c76ffd1161018b57806368c76ffd146104195780636cc6cde1146104465780636e8218aa1461045b5780636e99a23a1461047b5780637b9433831461049b57610246565b8063311a6c561461038f578063339ac67c146103af5780633a2dabfa146103cf57806341658341146103e457806354954d82146103f957610246565b806312b3a2c01161020e57806312b3a2c01461030757806312ce35251461031a5780631972483a1461033a5780631d5120851461035a578063244772e81461036f57610246565b8063064ba1891461024b57806309e24ad4146102815780630c340a24146102a35780630c7ac7b6146102c55780631165542b146102e7575b600080fd5b34801561025757600080fd5b5061026b610266366004613095565b610734565b6040516102789190613f16565b60405180910390f35b34801561028d57600080fd5b506102a161029c366004613095565b610746565b005b3480156102af57600080fd5b506102b861077e565b60405161027891906133a5565b3480156102d157600080fd5b506102da61078d565b604051610278919061347d565b3480156102f357600080fd5b5061026b6103023660046130c5565b61081b565b6102a1610315366004613165565b610a2a565b34801561032657600080fd5b506102a1610335366004613095565b611080565b34801561034657600080fd5b5061026b610355366004613095565b6110af565b34801561036657600080fd5b5061026b611195565b34801561037b57600080fd5b5061026b61038a366004613095565b61119b565b34801561039b57600080fd5b506102a16103aa3660046131d3565b611222565b3480156103bb57600080fd5b506102a16103ca366004612fd1565b611387565b3480156103db57600080fd5b5061026b6113e0565b3480156103f057600080fd5b5061026b6113e6565b34801561040557600080fd5b5061026b610414366004613095565b6113ec565b34801561042557600080fd5b50610439610434366004613217565b61163d565b6040516102789190613427565b34801561045257600080fd5b506102b86116d9565b34801561046757600080fd5b5061026b610476366004613095565b6116e8565b34801561048757600080fd5b506102a1610496366004612f9d565b61180e565b3480156104a757600080fd5b5061026b611a8d565b6102a16104be366004613189565b611a93565b3480156104cf57600080fd5b506104e36104de3660046131d3565b611d8d565b60405161027893929190613435565b3480156104fe57600080fd5b506102b8611e88565b34801561051357600080fd5b50610527610522366004613095565b611e97565b6040516102789b9a999897969594939291906134ea565b34801561054a57600080fd5b506102a1610559366004613095565b611f11565b34801561056a57600080fd5b5061057e610579366004613095565b611f40565b60405161027891906133f6565b34801561059757600080fd5b506102a16105a6366004613189565b611fac565b3480156105b757600080fd5b506102a16105c6366004613095565b612052565b3480156105d757600080fd5b506102a16105e6366004613095565b612081565b3480156105f757600080fd5b506102b8612233565b34801561060c57600080fd5b506102a161061b366004613095565b612242565b6102a161062e366004613095565b612271565b34801561063f57600080fd5b5061026b61253f565b34801561065457600080fd5b506102a1610663366004613189565b612545565b34801561067457600080fd5b5061026b61264c565b34801561068957600080fd5b50610692612652565b6040516102789190613f2d565b3480156106ab57600080fd5b506102a16106ba366004613095565b612657565b3480156106cb57600080fd5b5061026b612804565b3480156106e057600080fd5b506102a16106ef366004612f81565b61280a565b34801561070057600080fd5b5061026b61070f3660046130f4565b612856565b34801561072057600080fd5b5061026b61072f366004613095565b612b04565b600b6020526000908152604090205481565b6002546001600160a01b031633146107795760405162461bcd60e51b815260040161077090613aa4565b60405180910390fd5b600555565b6002546001600160a01b031681565b6004805460408051602060026001851615610100026000190190941693909304601f810184900484028201840190925281815292918301828280156108135780601f106107e857610100808354040283529160200191610813565b820191906000526020600020905b8154815290600101906020018083116107f657829003601f168201915b505050505081565b600080600a848154811061082b57fe5b60009182526020909120600f9091020190506004808083015460ff169081111561085157fe5b1461085c5750610a24565b60005b600d820154811015610a2157600082600d01828154811061087c57fe5b60009182526020909120600360069092020190810154909150610100900460ff1615806108b45750600381015462010000900460ff16155b156108e9576001600160a01b038516600090815260058201602052604090206002810154600190910154019390930192610a18565b600e8301546109a357600080826001015411610906576000610942565b8160020154826001015460048401546001600160a01b03891660009081526005860160205260409020929091019160010154028161094057fe5b045b9050600080836002015411610958576000610994565b8260020154836001015460048501546001600160a01b038a1660009081526005870160205260409020929091019160020154028161099257fe5b045b91909101949094019350610a18565b60008160000184600e0154600381106109b857fe5b0154116109c6576000610a13565b600e8301548190600381106109d757fe5b015460048201546001600160a01b03871660009081526005840160205260409020600e86015460038110610a0757fe5b01540281610a1157fe5b045b840193505b5060010161085f565b50505b92915050565b6000600a8381548110610a3957fe5b60009182526020909120600f9091020190506001826002811115610a5957fe5b1480610a7057506002826002811115610a6e57fe5b145b610a8c5760405162461bcd60e51b815260040161077090613e27565b600360048083015460ff1690811115610aa157fe5b14610abe5760405162461bcd60e51b815260040161077090613b3f565b6001600354600c83015460405163021e2d3d60e31b81526001600160a01b03909216916310f169e891610af391600401613f16565b60206040518083038186803b158015610b0b57600080fd5b505afa158015610b1f573d6000803e3d6000fd5b505050506040513d601f19601f82011682018060405250810190610b43919061302b565b6002811115610b4e57fe5b14610b6b5760405162461bcd60e51b815260040161077090613ba3565b600354600c82015460405163afe15cfb60e01b815260009283926001600160a01b039091169163afe15cfb91610ba391600401613f16565b604080518083038186803b158015610bba57600080fd5b505afa158015610bce573d6000803e3d6000fd5b505050506040513d601f19601f82011682018060405250810190610bf291906131f4565b91509150814210158015610c0557508042105b610c215760405162461bcd60e51b8152600401610770906135e0565b600354600c840154604051631c3db16d60e01b81526000926001600160a01b031691631c3db16d91610c569190600401613f16565b60206040518083038186803b158015610c6e57600080fd5b505afa158015610c82573d6000803e3d6000fd5b505050506040513d601f19601f82011682018060405250810190610ca691906130ad565b90506000856002811115610cb657fe5b821415610cc65750600854610cff565b81610cd45750600754610cff565b60028484030484420310610cfa5760405162461bcd60e51b8152600401610770906137fb565b506009545b600d85018054600091906000198101908110610d1757fe5b9060005260206000209060060201905080600301876002811115610d3757fe5b60038110610d4157fe5b602081049091015460ff601f9092166101000a90041615610d745760405162461bcd60e51b815260040161077090613da1565b600354600c87015460405163791f8b7360e11b81526000926001600160a01b03169163f23f16e691610dab9190600490810161358f565b60206040518083038186803b158015610dc357600080fd5b505afa158015610dd7573d6000803e3d6000fd5b505050506040513d601f19601f82011682018060405250810190610dfb91906130ad565b90506000610e1f612710610e0f8487612b31565b81610e1657fe5b84919004612b65565b9050600080610e5034610e4b878e6002811115610e3857fe5b60038110610e4257fe5b01548690612b7a565b612b95565b3360009081526005880160205260409020919350915082908c6002811115610e7457fe5b60038110610e7e57fe5b018054909101905581858c6002811115610e9457fe5b60038110610e9e57fe5b01805490910190556040518c907f22039e79a27860a038aece214124c8ecef12fdc1334feb8e8a157a0ae16a1db490610edc908e9033908790613567565b60405180910390a282858c6002811115610ef257fe5b60038110610efc57fe5b015410610fa0576001856003018c6002811115610f1557fe5b60038110610f1f57fe5b602091828204019190066101000a81548160ff021916908315150217905550846000018b6002811115610f4e57fe5b60038110610f5857fe5b015460048601805490910190556040518c907f213276d821d6205d87fa4f4658db4bf5a24a2323b0fdd8ffcd239c445f86a57b90610f97908e90613559565b60405180910390a25b604051339082156108fc029083906000818181858888f1505050506003860154610100900460ff1690508015610fe05750600385015462010000900460ff165b1561107257600354600c8b015460405163093225f160e31b81526001600160a01b03909216916349912f8891879161101d9190600490810161358f565b6000604051808303818588803b15801561103657600080fd5b505af115801561104a573d6000803e3d6000fd5b505050600d8c01805460010181556000525050600485015461106c9085612b7a565b60048601555b505050505050505050505050565b6002546001600160a01b031633146110aa5760405162461bcd60e51b815260040161077090613aa4565b600755565b600080600a83815481106110bf57fe5b90600052602060002090600f020190506005548160050154420311806110f85750600260048083015460ff16908111156110f557fe5b14155b1561110c576001600160ff1b03915061118f565b60035460405163f7434ea960e01b81526001600160a01b039091169063f7434ea99061113c9060049081016134d0565b60206040518083038186803b15801561115457600080fd5b505afa158015611168573d6000803e3d6000fd5b505050506040513d601f19601f8201168201806040525081019061118c91906130ad565b91505b50919050565b60095481565b600080600a83815481106111ab57fe5b90600052602060002090600f0201905080600101548160050154420311806111e65750600060048083015460ff16908111156111e357fe5b14155b156111f4576000915061118f565b8060010154816005015442038260020154836003015403028161121357fe5b04816002015401915050919050565b600081600281111561123057fe5b6000848152600b6020526040812054600a805493945090928390811061125257fe5b600091825260208220600d600f90920201908101805491935090600019810190811061127a57fe5b6000918252602090912060035460069092020191506001600160a01b031633146112b65760405162461bcd60e51b8152600401610770906137ba565b600360048084015460ff16908111156112cb57fe5b146112e85760405162461bcd60e51b815260040161077090613704565b600381015460ff610100909104161515600114156113095760019350611326565b600381015462010000900460ff1615156001141561132657600293505b85337f394027a5fa6e098a1191094d1719d6929b9abc535fcc0c8f448d6a4e7562227686600281111561135557fe5b6040516113629190613f16565b60405180910390a361137f8685600281111561137a57fe5b612bba565b505050505050565b6000600a848154811061139657fe5b90600052602060002090600f0201905060008390505b600d820154811080156113c857508215806113c8575082840181105b1561137f576113d886868361180e565b6001016113ac565b60065481565b60075481565b600080600a83815481106113fc57fe5b90600052602060002090600f0201905060008160010154826005015442038360020154846003015403028161142d57fe5b04826002015401905081600101548260050154420311806114615750600060048084015460ff169081111561145e57fe5b14155b1561146f5760009250611636565b60005482546001600160a01b039081169116141561148f57809250611636565b60008054835482916001600160a01b039081169116106114c05760005484546001600160a01b0391821691166114d3565b83546000546001600160a01b0391821691165b6001546040519294509092506000916001600160a01b03909116906114fe9085908590602001613328565b6040516020818303038152906040528051906020012060405160200161152592919061334f565b6040516020818303038152906040528051906020012060001c9050600080826001600160a01b0316630902f1ac6040518163ffffffff1660e01b815260040160606040518083038186803b15801561157c57600080fd5b505afa158015611590573d6000803e3d6000fd5b505050506040513d601f19601f820116820180604052508101906115b49190613047565b5088546001600160701b0392831694509116915060009081906001600160a01b038881169116146115e65782846115e9565b83835b915091506000821180156115fd5750600081115b6116195760405162461bcd60e51b8152600401610770906138bf565b816116248983612b31565b8161162b57fe5b049950505050505050505b5050919050565b611645612f0c565b6000600a858154811061165457fe5b90600052602060002090600f02019050600081600d01858154811061167557fe5b600091825260208083206001600160a01b03881684526005600690930201918201905260409182902082516060810190935290925060038282826020028201915b8154815260200190600101908083116116b6575050505050925050509392505050565b6003546001600160a01b031681565b600080600a83815481106116f857fe5b90600052602060002090600f0201905080600101548160050154420311806117335750600060048083015460ff169081111561173057fe5b14155b15611747576001600160ff1b03915061118f565b6000611752846113ec565b60035460405163f7434ea960e01b81529192506000916001600160a01b039091169063f7434ea9906117889060049081016134d0565b60206040518083038186803b1580156117a057600080fd5b505afa1580156117b4573d6000803e3d6000fd5b505050506040513d601f19601f820116820180604052508101906117d891906130ad565b90506118056127106117f584600654612b3190919063ffffffff16565b816117fc57fe5b83919004612b65565b95945050505050565b6000600a838154811061181d57fe5b90600052602060002090600f02019050600081600d01838154811061183e57fe5b6000918252602090912060069091020190506004808084015460ff169081111561186457fe5b146118815760405162461bcd60e51b815260040161077090613c8c565b6003810154600090610100900460ff1615806118a85750600382015462010000900460ff16155b156118e257506001600160a01b03851660009081526005820160205260408120600281018054600190920180549084905592905501611a60565b600e8301546119bf576000808360010154116118ff57600061193b565b8260020154836001015460048501546001600160a01b038a1660009081526005870160205260409020929091019160010154028161193957fe5b045b905060008084600201541161195157600061198d565b8360020154846001015460048601546001600160a01b038b1660009081526005880160205260409020929091019160020154028161198b57fe5b045b6001600160a01b038916600090815260058601602052604081206001810182905560020155919091019150611a609050565b60008260000184600e0154600381106119d457fe5b0154116119e2576000611a2f565b600e8301548290600381106119f357fe5b015460048301546001600160a01b03881660009081526005850160205260409020600e86015460038110611a2357fe5b01540281611a2d57fe5b045b6001600160a01b03871660009081526005840160205260408120600e860154929350909160038110611a5d57fe5b01555b6040516001600160a01b0387169082156108fc029083906000818181858888f15050505050505050505050565b60085481565b6000600a8481548110611aa257fe5b60009182526020822060035460405163f7434ea960e01b8152600f90930290910193506001600160a01b03169063f7434ea990611ae39060049081016134d0565b60206040518083038186803b158015611afb57600080fd5b505afa158015611b0f573d6000803e3d6000fd5b505050506040513d601f19601f82011682018060405250810190611b3391906130ad565b9050600260048084015460ff1690811115611b4a57fe5b14611b675760405162461bcd60e51b815260040161077090613981565b600554826005015442031115611b8f5760405162461bcd60e51b815260040161077090613d5d565b80341015611baf5760405162461bcd60e51b8152600401610770906139fd565b60048201805460ff19166003179055336009830160020180546001600160a01b0319166001600160a01b0392831617905560035460405163c13517e160e01b815291169063c13517e1908390611c0c90600290600490810161358f565b6020604051808303818588803b158015611c2557600080fd5b505af1158015611c39573d6000803e3d6000fd5b50505050506040513d601f19601f82011682018060405250810190611c5e91906130ad565b600c83018190556000908152600b6020526040808220879055600d8401805460010181558252513483900391339183156108fc0291849190818181858888f1505050600c8501546003546040519193506001600160a01b031691507f74baab670a4015ab2f1b467c5252a96141a2573f2908e58a92081e80d3cfde3d90611ce8908a908190613f1f565b60405180910390a3336001600160a01b0316867f6f0bb1c54bb0ad8822894f45a3837ab62e23e77d25c5881ab57e1c6a99f7e0b542604051611d2a9190613f16565b60405180910390a3831561137f57600354604051339188916001600160a01b03909116907fdccf2f8b2cc26eafcd61905cba744cff4b81d14740725f6376390dc6298a6a3c90611d7d908a908a906135a8565b60405180910390a4505050505050565b611d95612f0c565b611d9d612f0c565b600080600a8681548110611dad57fe5b90600052602060002090600f02019050600081600d018681548110611dce57fe5b906000526020600020906006020190508060000181600301826004015482600380602002604051908101604052809291908260038015611e23576020028201915b815481526020019060010190808311611e0f575b5050604080516060810191829052949750869350600392509050826000855b825461010083900a900460ff161515815260206001928301818104948501949093039092029101808411611e425790505050505050915094509450945050509250925092565b6001546001600160a01b031681565b600a8181548110611ea757600080fd5b60009182526020909120600f90910201805460018201546002830154600384015460048501546005860154600687015460078801546008890154600c8a0154600e909a01546001600160a01b03998a169b5097999698959760ff909516969395909216939092908b565b6002546001600160a01b03163314611f3b5760405162461bcd60e51b815260040161077090613aa4565b600955565b611f48612f0c565b6000600a8381548110611f5757fe5b60009182526020909120604080516060810191829052600f9093029091019250600983019060039082845b81546001600160a01b03168152600190910190602001808311611f82575050505050915050919050565b6000600a8481548110611fbb57fe5b60009182526020909120600f9091020190506004808083015460ff1690811115611fe157fe5b1415611fff5760405162461bcd60e51b815260040161077090613e7d565b600354604051339186916001600160a01b03909116907fdccf2f8b2cc26eafcd61905cba744cff4b81d14740725f6376390dc6298a6a3c9061204490889088906135a8565b60405180910390a450505050565b6002546001600160a01b0316331461207c5760405162461bcd60e51b815260040161077090613aa4565b600655565b6000600a828154811061209057fe5b60009182526020909120600f909102019050600260048083015460ff16908111156120b757fe5b106120d45760405162461bcd60e51b815260040161077090613d10565b806001015481600501544203116120fd5760405162461bcd60e51b815260040161077090613aed565b6004818101805460ff19169091179055600781018054600883018054600093849055908390556006840154604051929391926001600160a01b03909116916108fc841502918491818181858888f150508554600687015460405163a9059cbb60e01b81526001600160a01b03928316955063a9059cbb9450612187935091169086906004016133dd565b602060405180830381600087803b1580156121a157600080fd5b505af11580156121b5573d6000803e3d6000fd5b505050506040513d601f19601f820116820180604052508101906121d9919061300b565b6121f55760405162461bcd60e51b815260040161077090613663565b837f5850eca3b971056e7a311e04b06c359c0aceec8e422e4e015301e136efbd888a426040516122259190613b6d565b60405180910390a250505050565b6000546001600160a01b031681565b6002546001600160a01b0316331461226c5760405162461bcd60e51b815260040161077090613aa4565b600855565b6000600a828154811061228057fe5b90600052602060002090600f0201905080600101548160050154420311156122ba5760405162461bcd60e51b81526004016107709061362e565b6000816001015482600501544203836002015484600301540302816122db57fe5b04826002015401905060006122ef846113ec565b60035460405163f7434ea960e01b81529192506000916001600160a01b039091169063f7434ea9906123259060049081016134d0565b60206040518083038186803b15801561233d57600080fd5b505afa158015612351573d6000803e3d6000fd5b505050506040513d601f19601f8201168201806040525081019061237591906130ad565b90506000612394612710610e0f85600654612b3190919063ffffffff16565b9050600060048087015460ff16908111156123ab57fe5b146123c85760405162461bcd60e51b815260040161077090613cc3565b803410156123e85760405162461bcd60e51b815260040161077090613ec3565b600a850180546001600160a01b0319163390811790915560048601805460ff1916600117905560078601859055600886018290556040513483900391906108fc8315029083906000818181858888f150505050600387015461244b915086612b7a565b8654600688015460405163a9059cbb60e01b81529293506001600160a01b039182169263a9059cbb9261248492169085906004016133dd565b602060405180830381600087803b15801561249e57600080fd5b505af11580156124b2573d6000803e3d6000fd5b505050506040513d601f19601f820116820180604052508101906124d6919061300b565b6124f25760405162461bcd60e51b815260040161077090613bda565b336001600160a01b0316877f9c8de00bfaaca6ca425ca3047c87c81f398e79f7c15166f53dcb29782ef9da42874260405161252e929190613f1f565b60405180910390a350505050505050565b600a5490565b6000600a848154811061255457fe5b60009182526020909120600f909102019050600160048083015460ff169081111561257b57fe5b146125985760405162461bcd60e51b81526004016107709061374a565b80600101548160050154420311156125c25760405162461bcd60e51b81526004016107709061362e565b60098101600101546001600160a01b031633146125f15760405162461bcd60e51b815260040161077090613858565b60048101805460ff191660021790554260058201819055604051339186917f81c1cc8daea412565717a44fb42a08dbcb5d73101f5473d062391293c947d26d9161263e91889188916135bc565b60405180910390a350505050565b60055481565b608081565b6000600a828154811061266657fe5b60009182526020909120600f909102019050600260048083015460ff169081111561268d57fe5b146126aa5760405162461bcd60e51b815260040161077090613981565b60055481600501544203116126d15760405162461bcd60e51b81526004016107709061393e565b6004818101805460ff19169091179055600a810154600782018054600884018054600093849055908390556040516001600160a01b03909416939192909184916108fc841502918491818181858888f15050865460405163a9059cbb60e01b81526001600160a01b03909116935063a9059cbb92506127579150869086906004016133dd565b602060405180830381600087803b15801561277157600080fd5b505af1158015612785573d6000803e3d6000fd5b505050506040513d601f19601f820116820180604052508101906127a9919061300b565b6127c55760405162461bcd60e51b815260040161077090613663565b847f5850eca3b971056e7a311e04b06c359c0aceec8e422e4e015301e136efbd888a426040516127f59190613c56565b60405180910390a25050505050565b61271081565b6002546001600160a01b031633146128345760405162461bcd60e51b815260040161077090613aa4565b600280546001600160a01b0319166001600160a01b0392909216919091179055565b6000838511156128785760405162461bcd60e51b815260040161077090613a47565b6040516323b872dd60e01b81526001600160a01b038716906323b872dd906128a8903390309089906004016133b9565b602060405180830381600087803b1580156128c257600080fd5b505af11580156128d6573d6000803e3d6000fd5b505050506040513d601f19601f820116820180604052508101906128fa919061300b565b6129165760405162461bcd60e51b8152600401610770906136a7565b4287116129355760405162461bcd60e51b815260040161077090613de2565b50600a8054600181018255600091909152600f81027fc65a7bb8d6351c1cf70c95a316cc6a92839c986682d98bc35f958f4883f9d2a8810180546001600160a01b0389166001600160a01b031991821617825542808b037fc65a7bb8d6351c1cf70c95a316cc6a92839c986682d98bc35f958f4883f9d2a98501557fc65a7bb8d6351c1cf70c95a316cc6a92839c986682d98bc35f958f4883f9d2aa84018990557fc65a7bb8d6351c1cf70c95a316cc6a92839c986682d98bc35f958f4883f9d2ab84018890557fc65a7bb8d6351c1cf70c95a316cc6a92839c986682d98bc35f958f4883f9d2ad8401557fc65a7bb8d6351c1cf70c95a316cc6a92839c986682d98bc35f958f4883f9d2ae83018054909116331790557fc65a7bb8d6351c1cf70c95a316cc6a92839c986682d98bc35f958f4883f9d2af90910185905560405182907f61606860eb6c87306811e2695215385101daab53bd6ab4e9f9049aead9363c7d90612aa790879087906135a8565b60405180910390a28054604051339184917ff3efa663e8763e3719e2bdc58b7fdc03d43b6fcec97b7bcf371e6a4ea870448891612af1916001600160a01b039091169042906133dd565b60405180910390a3509695505050505050565b600080600a8381548110612b1457fe5b60009182526020909120600d600f9092020101549150505b919050565b600082612b4057506000610a24565b82820282848281612b4d57fe5b0414612b5b57600019612b5d565b805b949350505050565b600082820183811015612b5b57600019612b5d565b600082821115612b8c57506000610a24565b50808203610a24565b60008083831115612bab57508290506000612bb3565b508190508083035b9250929050565b6000828152600b6020526040812054600a805491929183908110612bda57fe5b600091825260208220600f909102016004818101805460ff19169091179055600e810185905560088101805460078301805490859055939091559092509084612d2357600a8301546040516002909304926001600160a01b03909116906108fc8415029084906000818181858888f1505050600b8501546040516001600160a01b0390911692506108fc851502915084906000818181858888f150508554600687015460405163a9059cbb60e01b81526001600160a01b03928316955063a9059cbb9450612cb0935091169085906004016133dd565b602060405180830381600087803b158015612cca57600080fd5b505af1158015612cde573d6000803e3d6000fd5b505050506040513d601f19601f82011682018060405250810190612d02919061300b565b612d1e5760405162461bcd60e51b8152600401610770906139b6565b612ecc565b6001851415612dfc57600a8301546040516001600160a01b03909116906108fc8415029084906000818181858888f150508554600a87015460405163a9059cbb60e01b81526001600160a01b03928316955063a9059cbb9450612d8e935091169085906004016133dd565b602060405180830381600087803b158015612da857600080fd5b505af1158015612dbc573d6000803e3d6000fd5b505050506040513d601f19601f82011682018060405250810190612de0919061300b565b612d1e5760405162461bcd60e51b8152600401610770906138f6565b600b8301546040516001600160a01b03909116906108fc8415029084906000818181858888f150508554600687015460405163a9059cbb60e01b81526001600160a01b03928316955063a9059cbb9450612e5e935091169085906004016133dd565b602060405180830381600087803b158015612e7857600080fd5b505af1158015612e8c573d6000803e3d6000fd5b505050506040513d601f19601f82011682018060405250810190612eb0919061300b565b612ecc5760405162461bcd60e51b8152600401610770906139b6565b837f5850eca3b971056e7a311e04b06c359c0aceec8e422e4e015301e136efbd888a42604051612efc9190613c25565b60405180910390a2505050505050565b60405180606001604052806003906020820280368337509192915050565b60008083601f840112612f3b578182fd5b50813567ffffffffffffffff811115612f52578182fd5b602083019150836020828501011115612bb357600080fd5b80516001600160701b0381168114612b2c57600080fd5b600060208284031215612f92578081fd5b8135612b5b81613f47565b600080600060608486031215612fb1578182fd5b8335612fbc81613f47565b95602085013595506040909401359392505050565b60008060008060808587031215612fe6578081fd5b8435612ff181613f47565b966020860135965060408601359560600135945092505050565b60006020828403121561301c578081fd5b81518015158114612b5b578182fd5b60006020828403121561303c578081fd5b8151612b5b81613f5f565b60008060006060848603121561305b578283fd5b61306484612f6a565b925061307260208501612f6a565b9150604084015163ffffffff8116811461308a578182fd5b809150509250925092565b6000602082840312156130a6578081fd5b5035919050565b6000602082840312156130be578081fd5b5051919050565b600080604083850312156130d7578182fd5b8235915060208301356130e981613f47565b809150509250929050565b60008060008060008060a0878903121561310c578182fd5b86359550602087013561311e81613f47565b94506040870135935060608701359250608087013567ffffffffffffffff811115613147578283fd5b61315389828a01612f2a565b979a9699509497509295939492505050565b60008060408385031215613177578182fd5b8235915060208301356130e981613f5f565b60008060006040848603121561319d578283fd5b83359250602084013567ffffffffffffffff8111156131ba578283fd5b6131c686828701612f2a565b9497909650939450505050565b600080604083850312156131e5578182fd5b50508035926020909101359150565b60008060408385031215613206578182fd5b505080516020909101519092909150565b60008060006060848603121561322b578081fd5b8335925060208401359150604084013561308a81613f47565b8060005b6003811015613267578151845260209384019390910190600101613248565b50505050565b6000815460018082166000811461328b57600181146132a9576132e7565b60028304607f16865260ff19831660208701526040860193506132e7565b600283048087526132b986613f3b565b60005b828110156132dd5781546020828b01015284820191506020810190506132bc565b8801602001955050505b50505092915050565b600381106132fa57fe5b9052565b60008284528282602086013780602084860101526020601f19601f85011685010190509392505050565b6bffffffffffffffffffffffff19606093841b811682529190921b16601482015260280190565b6001600160f81b0319815260609290921b6bffffffffffffffffffffffff1916600183015260158201527f96e8ac4277198ff8b6f785478aa9a39f403cb768dd02cbee326c3e7da348845f603582015260550190565b6001600160a01b0391909116815260200190565b6001600160a01b039384168152919092166020820152604081019190915260600190565b6001600160a01b03929092168252602082015260400190565b60608101818360005b60038110156132e75781516001600160a01b03168352602092830192909101906001016133ff565b60608101610a248284613244565b60e081016134438286613244565b606082018460005b600381101561346c578151151583526020928301929091019060010161344b565b5050508260c0830152949350505050565b6000602080835283518082850152825b818110156134a95785810183015185820160400152820161348d565b818111156134ba5783604083870101525b50601f01601f1916929092016040019392505050565b6000602082526134e3602083018461326d565b9392505050565b6001600160a01b038c81168252602082018c9052604082018b9052606082018a905261016082019060058a1061351c57fe5b608083019990995260a08201979097529490961660c085015260e08401929092526101008301526101208201526101400191909152949350505050565b60208101610a2482846132f0565b6060810161357582866132f0565b6001600160a01b0393909316602082015260400152919050565b600083825260406020830152612b5d604083018461326d565b600060208252612b5d6020830184866132fe565b6000604082526135d06040830185876132fe565b9050826020830152949350505050565b6020808252602e908201527f46756e64696e67206d757374206265206d6164652077697468696e207468652060408201526d30b83832b0b6103832b934b7b21760911b606082015260800190565b6020808252818101527f54686520646561646c696e652068617320616c7265616479207061737365642e604082015260600190565b60208082526024908201527f54686520746f6b656e207472616e736665722077617320756e73756363657373604082015263333ab61760e11b606082015260800190565b6020808252603d908201527f52657175657374657220646f6573206e6f74206861766520656e6f756768207460408201527f6f6b656e7320746f20636f76657220746865206d61782070726963652e000000606082015260800190565b60208082526026908201527f54686520646973707574652068617320616c7265616479206265656e2072657360408201526537b63b32b21760d11b606082015260800190565b6020808252604a908201527f546865207461736b20697320656974686572206e6f742061737369676e65642060408201527f6f72207472616e736c6174696f6e2068617320616c7265616479206265656e2060608201526939bab136b4ba3a32b21760b11b608082015260a00190565b60208082526021908201527f4d7573742062652063616c6c6564206279207468652061726269747261746f726040820152601760f91b606082015260800190565b6020808252603e908201527f546865206c6f736572206d7573742070617920647572696e672074686520666960408201527f7273742068616c66206f66207468652061707065616c20706572696f642e0000606082015260800190565b60208082526041908201527f43616e2774207375626d6974207472616e736c6174696f6e20746f207468652060408201527f7461736b2074686174207761736e27742061737369676e656420746f20796f756060820152601760f91b608082015260a00190565b6020808252601e908201527f436f756c64206e6f742063616c63756c617465207468652070726963652e0000604082015260600190565b60208082526028908201527f436f756c64206e6f74207472616e7366657220746f6b656e7320746f207472616040820152673739b630ba37b91760c11b606082015260800190565b60208082526023908201527f54686520726576696577207068617365206861736e277420706173736564207960408201526232ba1760e91b606082015260800190565b6020808252818101527f546865207461736b20697320696e207468652077726f6e67207374617475732e604082015260600190565b60208082526027908201527f436f756c64206e6f74207472616e7366657220746f6b656e7320746f207265716040820152663ab2b9ba32b91760c91b606082015260800190565b6020808252602a908201527f4e6f7420656e6f7567682045544820746f20636f766572206368616c6c656e6760408201526932903232b837b9b4ba1760b11b606082015260800190565b6020808252603c908201527f546865206d696e696d616c2070726963652073686f756c64206265206c65737360408201527f207468616e206f7220657175616c20746f206d61782070726963652e00000000606082015260800190565b60208082526029908201527f4f6e6c7920676f7665726e6f7220697320616c6c6f77656420746f207065726660408201526837b936903a3434b99760b91b606082015260800190565b60208082526032908201527f43616e2774207265696d62757273652069662074686520646561646c696e65206040820152713430b9b713ba103830b9b9b2b2103cb2ba1760711b606082015260800190565b602080825260149082015273139bc8191a5cdc1d5d19481d1bc8185c1c19585b60621b604082015260600190565b6040808252601490820152731c995c5d595cdd195c8b5c995a5b589d5c9cd95960621b6060820152602081019190915260800190565b6020808252601a908201527f44697370757465206973206e6f742061707065616c61626c652e000000000000604082015260600190565b6020808252602b908201527f436f756c64206e6f74207472616e7366657220746f6b656e7320746f2074686560408201526a103932b8bab2b9ba32b91760a91b606082015260800190565b6040808252600f908201526e191a5cdc1d5d194b5cd95d1d1b1959608a1b6060820152602081019190915260800190565b6040808252601490820152731d1c985b9cdb185d1a5bdb8b5858d8d95c1d195960621b6060820152602081019190915260800190565b6020808252601c908201527f546865207461736b2073686f756c64206265207265736f6c7665642e00000000604082015260600190565b6020808252602d908201527f5461736b2068617320616c7265616479206265656e2061737369676e6564206f60408201526c39103932b4b6b13ab939b2b21760991b606082015260800190565b6020808252602d908201527f43616e2774207265696d6275727365206966207472616e736c6174696f6e207760408201526c30b99039bab136b4ba3a32b21760991b606082015260800190565b60208082526024908201527f546865207265766965772070686173652068617320616c72656164792070617360408201526339b2b21760e11b606082015260800190565b60208082526021908201527f41707065616c206665652068617320616c7265616479206265656e20706169646040820152601760f91b606082015260800190565b60208082526025908201527f54686520646561646c696e652073686f756c6420626520696e207468652066756040820152643a3ab9329760d91b606082015260800190565b60208082526036908201527f526563697069656e74206d7573742062652065697468657220746865207472616040820152753739b630ba37b91037b91031b430b63632b733b2b91760511b606082015260800190565b60208082526026908201527f546865207461736b206d757374206e6f7420616c72656164792062652072657360408201526537b63b32b21760d11b606082015260800190565b60208082526033908201527f4e6f7420656e6f7567682045544820746f20726561636820746865207265717560408201527234b932b2103232b837b9b4ba103b30b63ab29760691b606082015260800190565b90815260200190565b918252602082015260400190565b60ff91909116815260200190565b60009081526020902090565b6001600160a01b0381168114613f5c57600080fd5b50565b60038110613f5c57600080fdfea264697066735822122034e7765540a97efd521f090e8d58952ba96265cb39141a105a7f83c293cce60b64736f6c63430007040033",
  "devdoc": {
    "events": {
      "AppealContribution(uint256,uint8,address,uint256)": {
        "details": "To be emitted when someone contributes to the appeal process.",
        "params": {
          "_amount": "The amount contributed.",
          "_contributor": "The address of the contributor.",
          "_party": "The party which received the contribution.",
          "_taskID": "The ID of the respective task."
        }
      },
      "HasPaidAppealFee(uint256,uint8)": {
        "details": "To be emitted when the appeal fees of one of the parties are fully funded.",
        "params": {
          "_party": "The party that is fully funded.",
          "_taskID": "The ID of the respective task."
        }
      },
      "TaskAssigned(uint256,address,uint256,uint256)": {
        "details": "To be emitted when a translator assigns the task to himself.",
        "params": {
          "_price": "The task price at the moment it was assigned.",
          "_taskID": "The ID of the assigned task.",
          "_timestamp": "When the task was assigned.",
          "_translator": "The address that was assigned to the task."
        }
      },
      "TaskCreated(uint256,address,address,uint256)": {
        "details": "To be emitted when the new task is created.",
        "params": {
          "_requester": "The address that created the task.",
          "_taskID": "The ID of the newly created task.",
          "_timestamp": "When the task was created.",
          "_token": "The token that task uses."
        }
      },
      "TaskResolved(uint256,string,uint256)": {
        "details": "To be emitted when a task is resolved, either by the translation being accepted, the requester being reimbursed or a dispute being settled.",
        "params": {
          "_reason": "Short description of what caused the task to be solved. One of: 'translation-accepted' | 'requester-reimbursed' | 'dispute-settled'",
          "_taskID": "The ID of the respective task.",
          "_timestamp": "When the task was resolved."
        }
      },
      "TranslationChallenged(uint256,address,uint256)": {
        "details": "To be emitted when a translation is challenged.",
        "params": {
          "_challenger": "The address of the challenger.",
          "_taskID": "The ID of the respective task.",
          "_timestamp": "When the task was challenged."
        }
      },
      "TranslationSubmitted(uint256,address,string,uint256)": {
        "details": "To be emitted when a translation is submitted.",
        "params": {
          "_taskID": "The ID of the respective task.",
          "_timestamp": "When the translation was submitted.",
          "_translatedText": "A URI to the translated text.",
          "_translator": "The address that performed the translation."
        }
      }
    },
    "kind": "dev",
    "methods": {
      "acceptTranslation(uint256)": {
        "details": "Pays the translator for completed task if no one challenged the translation during review period.",
        "params": {
          "_taskID": "The ID of the task."
        }
      },
      "amountWithdrawable(uint256,address)": {
        "details": "Returns the sum of withdrawable wei from appeal rounds. This function is O(n), where n is the number of rounds of the task. This could exceed the gas limit, therefore this function should only be used for interface display and not by other contracts.",
        "params": {
          "_beneficiary": "The contributor for which to query.",
          "_taskID": "The ID of the associated task."
        },
        "returns": {
          "total": "The total amount of wei available to withdraw."
        }
      },
      "assignTask(uint256)": {
        "details": "Assigns a specific task to the sender. Requires a translator's deposit in wei.",
        "params": {
          "_taskID": "The ID of the task."
        }
      },
      "batchRoundWithdraw(address,uint256,uint256,uint256)": {
        "details": "Withdraws contributions of multiple appeal rounds at once. This function is O(n) where n is the number of rounds. This could exceed the gas limit, therefore this function should be used only as a utility and not be relied upon by other contracts.",
        "params": {
          "_beneficiary": "The address that made contributions.",
          "_count": "The number of rounds to iterate. If set to 0 or a value larger than the number of rounds, iterates until the last round.",
          "_cursor": "The round from where to start withdrawing.",
          "_taskID": "The ID of the associated task."
        }
      },
      "challengeTranslation(uint256,string)": {
        "details": "Challenges the translation of a specific task. Requires challenger's deposit in wei.",
        "params": {
          "_evidence": "A link to evidence using its URI. Ignored if not provided.",
          "_taskID": "The ID of the task."
        }
      },
      "changeGovernor(address)": {
        "details": "Changes the governor of this contract.",
        "params": {
          "_governor": "A new governor."
        }
      },
      "changeLoserStakeMultiplier(uint256)": {
        "details": "Changes the percentage of arbitration fees that must be paid as a fee stake by the party that lost the previous round.",
        "params": {
          "_loserStakeMultiplier": "A new value of the multiplier of the appeal cost that the party that lost the previous round has to pay. In basis points."
        }
      },
      "changeReviewTimeout(uint256)": {
        "details": "Changes the time allocated for review phase.",
        "params": {
          "_reviewTimeout": "A new value of the time allotted for reviewing a translation. In seconds."
        }
      },
      "changeSharedStakeMultiplier(uint256)": {
        "details": "Changes the percentage of arbitration fees that must be paid by parties as a fee stake if there was no winner and loser in the previous round.",
        "params": {
          "_sharedStakeMultiplier": "A new value of the multiplier of the appeal cost in case when there is no winner/loser in previous round. In basis point."
        }
      },
      "changeTranslationMultiplier(uint256)": {
        "details": "Changes the multiplier for translator's deposit.",
        "params": {
          "_translationMultiplier": "A new value of the multiplier for calculating translator's deposit. In basis points."
        }
      },
      "changeWinnerStakeMultiplier(uint256)": {
        "details": "Changes the percentage of arbitration fees that must be paid as a fee stake by the party that won the previous round.",
        "params": {
          "_winnerStakeMultiplier": "A new value of the multiplier of the appeal cost that the winner of the previous round has to pay. In basis points."
        }
      },
      "constructor": {
        "details": "Constructor.",
        "params": {
          "_WETH": "Address of the WETH token contract.",
          "_arbitrator": "The arbitrator of the contract.",
          "_arbitratorExtraData": "Extra data for the arbitrator.",
          "_loserStakeMultiplier": "Multiplier of the appeal cost that the loser has to pay for a round. In basis points.",
          "_reviewTimeout": "Time in seconds during which a translation can be challenged.",
          "_sharedStakeMultiplier": "Multiplier of the appeal cost that submitter must pay for a round when there is no winner/loser in the previous round. In basis points.",
          "_translationMultiplier": "Multiplier for calculating translator's deposit. In basis points.",
          "_uniswapFactory": "Address of the UniswapPair factory contract.",
          "_winnerStakeMultiplier": "Multiplier of the appeal cost that the winner has to pay for a round. In basis points."
        }
      },
      "createTask(uint256,address,uint256,uint256,string)": {
        "details": "Creates a task based on provided details. Requires a value of maximal price to be deposited.",
        "params": {
          "_deadline": "The deadline for the translation to be completed.",
          "_maxPrice": "A maximal price of the translation. This value should be deposited by the requester.",
          "_metaEvidence": "A URI of meta-evidence object for task submission.",
          "_minPrice": "A minimal price of the translation.",
          "_token": "The token that will be paid for the completion of the task."
        },
        "returns": {
          "taskID": "The ID of the created task."
        }
      },
      "fundAppeal(uint256,uint8)": {
        "details": "Takes up to the total amount required to fund a side of an appeal. Reimburses the rest. Creates an appeal if all sides are fully funded.",
        "params": {
          "_side": "The party that pays the appeal fee.",
          "_taskID": "The ID of challenged task."
        }
      },
      "getChallengeValue(uint256)": {
        "details": "Gets the deposit required for challenging the translation.",
        "params": {
          "_taskID": "The ID of the task."
        },
        "returns": {
          "deposit": "The challengers's deposit."
        }
      },
      "getContributions(uint256,uint256,address)": {
        "details": "Gets the contributions made by a party for a given round of task's appeal.",
        "params": {
          "_contributor": "The address of the contributor.",
          "_round": "The position of the round.",
          "_taskID": "The ID of the task."
        },
        "returns": {
          "contributions": "The contributions."
        }
      },
      "getDepositValue(uint256)": {
        "details": "Gets the deposit required for self-assigning the task.",
        "params": {
          "_taskID": "The ID of the task."
        },
        "returns": {
          "deposit": "The translator's deposit."
        }
      },
      "getNumberOfRounds(uint256)": {
        "details": "Gets the number of rounds of the specific task.",
        "params": {
          "_taskID": "The ID of the task."
        },
        "returns": {
          "_0": "The number of rounds."
        }
      },
      "getRoundInfo(uint256,uint256)": {
        "details": "Gets the information on a round of a task.",
        "params": {
          "_round": "The round to be queried.",
          "_taskID": "The ID of the task."
        },
        "returns": {
          "feeRewards": "The amount available to pay for fees provide rewards to the winenr side.",
          "hasPaid": "Whether or not a given party has paid the full fees for the round.",
          "paidFees": "The amount paid by each party in the round."
        }
      },
      "getTaskCount()": {
        "details": "Gets the total number of created tasks.",
        "returns": {
          "_0": "The number of created tasks."
        }
      },
      "getTaskParties(uint256)": {
        "details": "Gets the addresses of parties of a specified task.",
        "params": {
          "_taskID": "The ID of the task."
        },
        "returns": {
          "parties": "The addresses of requester, translator and challenger."
        }
      },
      "getTaskPrice(uint256)": {
        "details": "Gets the current price of a specified task. Returns 0 if the task can no longer be assigned.",
        "params": {
          "_taskID": "The ID of the task."
        },
        "returns": {
          "price": "The price of the task."
        }
      },
      "getTaskPriceInETH(uint256)": {
        "details": "Gets the current price of a specified task in ETH. Returns 0 if the task can no longer be assigned.",
        "params": {
          "_taskID": "The ID of the task."
        },
        "returns": {
          "priceETH": "The price of the task."
        }
      },
      "reimburseRequester(uint256)": {
        "details": "Reimburses the requester if no one picked the task or the translator failed to submit the translation before deadline.",
        "params": {
          "_taskID": "The ID of the task."
        }
      },
      "rule(uint256,uint256)": {
        "details": "Gives a ruling for a dispute. Can only be called by the arbitrator.  The purpose of this function is to ensure that the address calling it has the right to rule on the contract and to invert the ruling in the case a party loses from lack of appeal fees funding.",
        "params": {
          "_disputeID": "ID of the dispute in the Arbitrator contract.",
          "_ruling": "Ruling given by the arbitrator. Note that 0 is reserved for \"Refuse to arbitrate\"."
        }
      },
      "submitEvidence(uint256,string)": {
        "details": "Submit a reference to evidence. EVENT.",
        "params": {
          "_evidence": "A link to evidence using its URI.",
          "_taskID": "A task evidence is submitted for."
        }
      },
      "submitTranslation(uint256,string)": {
        "details": "Submits translated text for a specific task.",
        "params": {
          "_taskID": "The ID of the task.",
          "_translation": "A URI to the translated text."
        }
      },
      "withdrawFeesAndRewards(address,uint256,uint256)": {
        "details": "Witdraws contributions of appeal rounds. Reimburses contributions if no disputes were raised. If a dispute was raised, sends the fee stake rewards and reimbursements proportional to the contributions made to the winner of a dispute.",
        "params": {
          "_beneficiary": "The address that made contributions.",
          "_round": "The round from which to withdraw.",
          "_taskID": "The ID of the associated task."
        }
      }
    },
    "title": "LinguoToken  Linguo is a decentralized platform where anyone can submit a document for translation and have it translated by freelancers.  It has no platform fees and disputes about translation quality are handled by Kleros jurors.  This version of the contract is made for ERC-20 tokens support.  NOTE: This contract trusts that the Arbitrator is honest and will not reenter or modify its costs during a call.  The arbitrator must support appeal period.  Also note that this contract trusts that the tokens will not allow the recipients to block the transfers.",
    "version": 1
  },
  "userdoc": {
    "kind": "user",
    "methods": {},
    "version": 1
  },
  "storageLayout": {
    "storage": [
      {
        "astId": 3957,
        "contract": "contracts/0.7.x/LinguoToken.sol:LinguoToken",
        "label": "WETH",
        "offset": 0,
        "slot": "0",
        "type": "t_contract(ERC20)961"
      },
      {
        "astId": 3959,
        "contract": "contracts/0.7.x/LinguoToken.sol:LinguoToken",
        "label": "uniswapFactory",
        "offset": 0,
        "slot": "1",
        "type": "t_address"
      },
      {
        "astId": 3963,
        "contract": "contracts/0.7.x/LinguoToken.sol:LinguoToken",
        "label": "governor",
        "offset": 0,
        "slot": "2",
        "type": "t_address"
      },
      {
        "astId": 3965,
        "contract": "contracts/0.7.x/LinguoToken.sol:LinguoToken",
        "label": "arbitrator",
        "offset": 0,
        "slot": "3",
        "type": "t_contract(IArbitrator)113"
      },
      {
        "astId": 3967,
        "contract": "contracts/0.7.x/LinguoToken.sol:LinguoToken",
        "label": "arbitratorExtraData",
        "offset": 0,
        "slot": "4",
        "type": "t_bytes_storage"
      },
      {
        "astId": 3969,
        "contract": "contracts/0.7.x/LinguoToken.sol:LinguoToken",
        "label": "reviewTimeout",
        "offset": 0,
        "slot": "5",
        "type": "t_uint256"
      },
      {
        "astId": 3971,
        "contract": "contracts/0.7.x/LinguoToken.sol:LinguoToken",
        "label": "translationMultiplier",
        "offset": 0,
        "slot": "6",
        "type": "t_uint256"
      },
      {
        "astId": 3973,
        "contract": "contracts/0.7.x/LinguoToken.sol:LinguoToken",
        "label": "sharedStakeMultiplier",
        "offset": 0,
        "slot": "7",
        "type": "t_uint256"
      },
      {
        "astId": 3975,
        "contract": "contracts/0.7.x/LinguoToken.sol:LinguoToken",
        "label": "winnerStakeMultiplier",
        "offset": 0,
        "slot": "8",
        "type": "t_uint256"
      },
      {
        "astId": 3977,
        "contract": "contracts/0.7.x/LinguoToken.sol:LinguoToken",
        "label": "loserStakeMultiplier",
        "offset": 0,
        "slot": "9",
        "type": "t_uint256"
      },
      {
        "astId": 3980,
        "contract": "contracts/0.7.x/LinguoToken.sol:LinguoToken",
        "label": "tasks",
        "offset": 0,
        "slot": "10",
        "type": "t_array(t_struct(Task)3938_storage)dyn_storage"
      },
      {
        "astId": 3984,
        "contract": "contracts/0.7.x/LinguoToken.sol:LinguoToken",
        "label": "disputeIDtoTaskID",
        "offset": 0,
        "slot": "11",
        "type": "t_mapping(t_uint256,t_uint256)"
      }
    ],
    "types": {
      "t_address": {
        "encoding": "inplace",
        "label": "address",
        "numberOfBytes": "20"
      },
      "t_address_payable": {
        "encoding": "inplace",
        "label": "address payable",
        "numberOfBytes": "20"
      },
      "t_array(t_address_payable)3_storage": {
        "base": "t_address_payable",
        "encoding": "inplace",
        "label": "address payable[3]",
        "numberOfBytes": "96"
      },
      "t_array(t_bool)3_storage": {
        "base": "t_bool",
        "encoding": "inplace",
        "label": "bool[3]",
        "numberOfBytes": "32"
      },
      "t_array(t_struct(Round)3955_storage)dyn_storage": {
        "base": "t_struct(Round)3955_storage",
        "encoding": "dynamic_array",
        "label": "struct LinguoToken.Round[]",
        "numberOfBytes": "32"
      },
      "t_array(t_struct(Task)3938_storage)dyn_storage": {
        "base": "t_struct(Task)3938_storage",
        "encoding": "dynamic_array",
        "label": "struct LinguoToken.Task[]",
        "numberOfBytes": "32"
      },
      "t_array(t_uint256)3_storage": {
        "base": "t_uint256",
        "encoding": "inplace",
        "label": "uint256[3]",
        "numberOfBytes": "96"
      },
      "t_bool": {
        "encoding": "inplace",
        "label": "bool",
        "numberOfBytes": "1"
      },
      "t_bytes_storage": {
        "encoding": "bytes",
        "label": "bytes",
        "numberOfBytes": "32"
      },
      "t_contract(ERC20)961": {
        "encoding": "inplace",
        "label": "contract ERC20",
        "numberOfBytes": "20"
      },
      "t_contract(IArbitrator)113": {
        "encoding": "inplace",
        "label": "contract IArbitrator",
        "numberOfBytes": "20"
      },
      "t_enum(Status)3904": {
        "encoding": "inplace",
        "label": "enum LinguoToken.Status",
        "numberOfBytes": "1"
      },
      "t_mapping(t_address,t_array(t_uint256)3_storage)": {
        "encoding": "mapping",
        "key": "t_address",
        "label": "mapping(address => uint256[3])",
        "numberOfBytes": "32",
        "value": "t_array(t_uint256)3_storage"
      },
      "t_mapping(t_uint256,t_uint256)": {
        "encoding": "mapping",
        "key": "t_uint256",
        "label": "mapping(uint256 => uint256)",
        "numberOfBytes": "32",
        "value": "t_uint256"
      },
      "t_struct(Round)3955_storage": {
        "encoding": "inplace",
        "label": "struct LinguoToken.Round",
        "members": [
          {
            "astId": 3942,
            "contract": "contracts/0.7.x/LinguoToken.sol:LinguoToken",
            "label": "paidFees",
            "offset": 0,
            "slot": "0",
            "type": "t_array(t_uint256)3_storage"
          },
          {
            "astId": 3946,
            "contract": "contracts/0.7.x/LinguoToken.sol:LinguoToken",
            "label": "hasPaid",
            "offset": 0,
            "slot": "3",
            "type": "t_array(t_bool)3_storage"
          },
          {
            "astId": 3948,
            "contract": "contracts/0.7.x/LinguoToken.sol:LinguoToken",
            "label": "feeRewards",
            "offset": 0,
            "slot": "4",
            "type": "t_uint256"
          },
          {
            "astId": 3954,
            "contract": "contracts/0.7.x/LinguoToken.sol:LinguoToken",
            "label": "contributions",
            "offset": 0,
            "slot": "5",
            "type": "t_mapping(t_address,t_array(t_uint256)3_storage)"
          }
        ],
        "numberOfBytes": "192"
      },
      "t_struct(Task)3938_storage": {
        "encoding": "inplace",
        "label": "struct LinguoToken.Task",
        "members": [
          {
            "astId": 3910,
            "contract": "contracts/0.7.x/LinguoToken.sol:LinguoToken",
            "label": "token",
            "offset": 0,
            "slot": "0",
            "type": "t_contract(ERC20)961"
          },
          {
            "astId": 3912,
            "contract": "contracts/0.7.x/LinguoToken.sol:LinguoToken",
            "label": "submissionTimeout",
            "offset": 0,
            "slot": "1",
            "type": "t_uint256"
          },
          {
            "astId": 3914,
            "contract": "contracts/0.7.x/LinguoToken.sol:LinguoToken",
            "label": "minPrice",
            "offset": 0,
            "slot": "2",
            "type": "t_uint256"
          },
          {
            "astId": 3916,
            "contract": "contracts/0.7.x/LinguoToken.sol:LinguoToken",
            "label": "maxPrice",
            "offset": 0,
            "slot": "3",
            "type": "t_uint256"
          },
          {
            "astId": 3918,
            "contract": "contracts/0.7.x/LinguoToken.sol:LinguoToken",
            "label": "status",
            "offset": 0,
            "slot": "4",
            "type": "t_enum(Status)3904"
          },
          {
            "astId": 3920,
            "contract": "contracts/0.7.x/LinguoToken.sol:LinguoToken",
            "label": "lastInteraction",
            "offset": 0,
            "slot": "5",
            "type": "t_uint256"
          },
          {
            "astId": 3922,
            "contract": "contracts/0.7.x/LinguoToken.sol:LinguoToken",
            "label": "requester",
            "offset": 0,
            "slot": "6",
            "type": "t_address_payable"
          },
          {
            "astId": 3924,
            "contract": "contracts/0.7.x/LinguoToken.sol:LinguoToken",
            "label": "requesterDeposit",
            "offset": 0,
            "slot": "7",
            "type": "t_uint256"
          },
          {
            "astId": 3926,
            "contract": "contracts/0.7.x/LinguoToken.sol:LinguoToken",
            "label": "sumDeposit",
            "offset": 0,
            "slot": "8",
            "type": "t_uint256"
          },
          {
            "astId": 3930,
            "contract": "contracts/0.7.x/LinguoToken.sol:LinguoToken",
            "label": "parties",
            "offset": 0,
            "slot": "9",
            "type": "t_array(t_address_payable)3_storage"
          },
          {
            "astId": 3932,
            "contract": "contracts/0.7.x/LinguoToken.sol:LinguoToken",
            "label": "disputeID",
            "offset": 0,
            "slot": "12",
            "type": "t_uint256"
          },
          {
            "astId": 3935,
            "contract": "contracts/0.7.x/LinguoToken.sol:LinguoToken",
            "label": "rounds",
            "offset": 0,
            "slot": "13",
            "type": "t_array(t_struct(Round)3955_storage)dyn_storage"
          },
          {
            "astId": 3937,
            "contract": "contracts/0.7.x/LinguoToken.sol:LinguoToken",
            "label": "ruling",
            "offset": 0,
            "slot": "14",
            "type": "t_uint256"
          }
        ],
        "numberOfBytes": "480"
      },
      "t_uint256": {
        "encoding": "inplace",
        "label": "uint256",
        "numberOfBytes": "32"
      }
    }
  },
  "gasEstimates": {
    "creation": {
      "codeDepositCost": "3258000",
      "executionCost": "infinite",
      "totalCost": "infinite"
    },
    "external": {
      "MULTIPLIER_DIVISOR()": "316",
      "VERSION_ID()": "284",
      "WETH()": "1203",
      "acceptTranslation(uint256)": "infinite",
      "amountWithdrawable(uint256,address)": "infinite",
      "arbitrator()": "1137",
      "arbitratorExtraData()": "infinite",
      "assignTask(uint256)": "infinite",
      "batchRoundWithdraw(address,uint256,uint256,uint256)": "infinite",
      "challengeTranslation(uint256,string)": "infinite",
      "changeGovernor(address)": "22121",
      "changeLoserStakeMultiplier(uint256)": "21198",
      "changeReviewTimeout(uint256)": "21133",
      "changeSharedStakeMultiplier(uint256)": "21132",
      "changeTranslationMultiplier(uint256)": "21153",
      "changeWinnerStakeMultiplier(uint256)": "21109",
      "createTask(uint256,address,uint256,uint256,string)": "infinite",
      "disputeIDtoTaskID(uint256)": "1218",
      "fundAppeal(uint256,uint8)": "infinite",
      "getChallengeValue(uint256)": "infinite",
      "getContributions(uint256,uint256,address)": "infinite",
      "getDepositValue(uint256)": "infinite",
      "getNumberOfRounds(uint256)": "2184",
      "getRoundInfo(uint256,uint256)": "infinite",
      "getTaskCount()": "1117",
      "getTaskParties(uint256)": "infinite",
      "getTaskPrice(uint256)": "7951",
      "getTaskPriceInETH(uint256)": "infinite",
      "governor()": "1161",
      "loserStakeMultiplier()": "1140",
      "reimburseRequester(uint256)": "infinite",
      "reviewTimeout()": "1161",
      "rule(uint256,uint256)": "infinite",
      "sharedStakeMultiplier()": "1140",
      "submitEvidence(uint256,string)": "infinite",
      "submitTranslation(uint256,string)": "infinite",
      "tasks(uint256)": "10606",
      "translationMultiplier()": "1118",
      "uniswapFactory()": "1160",
      "winnerStakeMultiplier()": "1161",
      "withdrawFeesAndRewards(address,uint256,uint256)": "infinite"
    },
    "internal": {
      "calculateContribution(uint256,uint256)": "78",
      "executeRuling(uint256,uint256)": "infinite"
    }
  }
}